:020000040000FA
:0400000080311E2805
:100008007E1480310B1F1C284E01191A0F1E13284D
:1000180040015D088A005C080A0080311C28991A92
:100028008F1E1C2840015B088A005A080A0080318C
:100038007E10090080312028EF30840025308500AB
:100048000130FE000230FF008131C8218031F0010B
:10005800F101F201F301F401203084000030850041
:100068001B30FE000030FF008131C8217E104001A6
:100078008031BD284E019912F5304001BB00003097
:10008800BC008131F92180314E01191295304001AF
:10009800BB000130BC008131F321803108304201BE
:1000A8009F0090309D0004309E001F309B009C01F3
:1000B80018304001BB000230BC008231052280317B
:1000C80011304001BB000230BC008131FF2180317A
:1000D80015304001BB000230BC0082310B224001C8
:1000E800BA01F401F3010830F9007908DE00F201E1
:1000F800F101F0014E01991608004001D0000310EB
:10010800D00C0310BB0C0310BD0C0310BC0C500822
:10011800BE00BF013E08C2003F08C3003B08BE0046
:10012800BF013E08C6003F08C7003D08BE00BF012A
:100138003E08CA003F08CB003C08BE00BF013E088D
:10014800CE003F08CF0046018D014001420846011C
:100158008C0091014001460846019000950140013C
:100168004A0846019400990140014E08460198004A
:1001780008008131D421803181312721803140012B
:10018800131319134F30BB000130BC008131F92122
:1001980080318B170B17EF308600253087004331ED
:1001A80001084001D1005108BB00EF30860025301E
:1001B800870044310108D2005208BC00EF308600A5
:1001C8002530870045310108D3005308BD00EF30C2
:1001D8008600253087004231010880318120803136
:1001E800CF287208203E86008701810142011D1D2B
:1001F80008297208203E86008701811440015908A9
:100208008A0058080A00813142019D1C162972088B
:10021800203E860087010115400157088A005608CC
:100228000A0081317208203E8600870101080319FF
:100238002429400155088A0054080A008131080021
:100248008131B2210800400194131413141294113F
:100258000130450190008E1746018E170E08F039BF
:100268000C388E0092171208F0390C389200961745
:100278001608F0390C3896009A171A08F0390C3815
:100288009A0009307E01A7000A30A6000B30A400AE
:100298000C30A300080040011917191342011D1D55
:1002A80059294001B801B9015E2901304001B80758
:1002B8000030B93DEF30F5002530F60038087507F5
:1002C800F7003908763DF800770886007808870037
:1002D8004201190881009D1C08001D121D16080006
:1002E8004001980199019A013F309200F030930043
:1002F800FF309400FF307E01CE00E030C30037307D
:10030800B800C401B901CF01BA01C501D001373025
:10031800BB00F030C600FF30D1000C307D01CB00AF
:100328000800083040015E020318AF297308303E08
:1003380086008701010842019A000130F50075081E
:10034800F307083073020318F3010130F50075084C
:100358004001DE0708004E01191208004201190881
:10036800F5007208283E8600870175088100013073
:10037800F5007508F207083072020318F20101301F
:10038800F5007508F00708006400800101310130AC
:10039800FE020030FF3B7F087E0403190034C929A0
:1003A8008131E02181318131742181318131EA212A
:1003B800813180313E2008004F0196019701980154
:1003C80099019A019B019C019D010800603051012F
:1003D8008D008F01910106309300920108004001C1
:1003E8003C08DD003B08DC00080040013C08DB005D
:1003F8003B08DA00080040013C08D7003B08D6005B
:10040800080040013C08D9003B08D800080040011A
:100418003C08D5003B08D400080042011D121D16F7
:0A04280008008131B221080008002D
:020000040001F9
:0A000E00EC3FFF3F9F3FFF3FFF3F25
:00000001FF
