:020000040000FA
:1000000080313928080008007E1480314E01961A8C
:100010008C1E0E2888310020803137280B1F37288E
:1000200099188F1C1728903185208031372819188E
:100030000F1C1E288B31442380313728191A0F1EBC
:100040002828420168088A0067080A00803137289A
:10005000991A8F1E3228420166088A0065080A0034
:100060008031372897188D1C3728913153217E1005
:10007000090080313B288731FE278031FA00873123
:10008000FF278031FB00A5308400903085006A3066
:100090008600013087000030FF0006309131472193
:1000A00080313130840091308500D03086000130BD
:1000B00087000030FF000A30913147218031EF3056
:1000C0008400253085000130FE000230FF009131B0
:1000D0003B218031F601F701F801F901EF014101FF
:1000E000E901EA01EB01EC01ED01EE01EF01203045
:1000F0008400013085003F30FE000030FF00913168
:100100003B218031A0308400013085003030FE007A
:100110000030FF0091313B217E10400195310E2DC2
:100120000230AF3E86008701403F4001A000413FC2
:10013000A100423FA200433FA3000030A7000030CF
:10014000A6000030A5000030A40095319425803130
:10015000031CE8280130D73E860087010230D73ED5
:1001600084008501410138084001C400410137087D
:100170004001C300410136084001C2004101350879
:100180004001C1004330C0007F30BF000030BE00DE
:100190000030BD008331EE23803140014008410131
:1001A000A70040013F084101A60040013E0841016F
:1001B000A50040013D084101A4009731242780316A
:1001C00041012408803FC03FB9003908D700DD2B2A
:1001D00043304001B100B430B0000030AF00003017
:1001E000AE0041012F084001A0004101300840014C
:1001F000A100890D893B8909A200A3000130893142
:100200000321803140012308B5002208B4002108F1
:10021000B3002008B2008C31A424803140013108A1
:100220004101D200400130084101D10040012F08B6
:100230004101D00040012E084101CF000630AF3E01
:1002400086008701403F4001D700413FD800423F30
:10025000D900433FDA003F30DE000030DD000030DF
:10026000DC000030DB00883187208031031CAB29A3
:100270000230AF3E86008701403F4001A900413F68
:10028000AA00423FAB00433FAC000630AF3E8600C1
:100290008701403FAD00413FAE00423FAF00433FCA
:1002A000B0008E311E26803140012C084101BE0075
:1002B00040012B084101BD0040012A084101BC005A
:1002C000400129084101BB000230AF3E8600870192
:1002D000403F4001BD00413FBE00423FBF00433FA1
:1002E000C0000630AF3E86008701403FC100413F5D
:1002F000C200423FC300433FC4008331EE2380313C
:1003000040014008DA003F08D9003E08D8003D0807
:10031000D70041013E084001DE0041013D08400197
:10032000DD0041013C084001DC0041013B08400187
:10033000DB0092317822803140015A084101D60019
:10034000400159084101D500400158084101D4003D
:1003500040015708E9290630AF3E86008701403F3B
:100360004001BD00413FBE00423FBF00433FC000CF
:100370003F30AC008030AB000030AA000030A90054
:100380000230AF3E86008701403FAD00413FAE00E6
:10039000423FAF00433FB0008E311E268031400106
:1003A0002C08C4002B08C3002A08C2002908C10079
:1003B0008331EE238031400140084101D6004001E5
:1003C0003F084101D50040013E084101D4004001F1
:1003D0003D084101D30056084001DA0041015508AB
:1003E0004001D900410154084001D800410153089F
:1003F0004001D7004030C0000030BF000030BE00D8
:100400000030BD000630AF3E86008701403FC1008E
:10041000413FC200423FC300433FC4008331EE234B
:10042000803140014008DE003F08DD003E08DC006E
:100430003D08DB0092317822803140015A084101A9
:10044000CE00400159084101CD004001580841014A
:10045000CC00400157084101CB0052084001B000D8
:10046000410151084001AF00410150084001AE0078
:1004700041014F084001AD003E30AC00AA30AB0056
:10048000AA30AA00AB30A9008E311E26803140016F
:100490002C084101C60040012B084101C500400164
:1004A0002A084101C400400129084101C30046084F
:1004B0004001EE00410145084001ED0041014408C2
:1004C0004001EC00410143084001EB0041015608A6
:1004D0004001EA00410155084001E900410154088A
:1004E0004001E800410153084001E70041014E0886
:1004F0004001E60041014D084001E50041014C0882
:100500004001E40041014B084001E30086311A2616
:100510008031400166084101CA004001650841017F
:10052000C900400164084101C8004001630841015D
:10053000C7004A084001C400410149084001C30006
:10054000410148084001C200410147084001C10083
:100550004330C0007F30BF000030BE000030BD001F
:100560008331EE238031400140084101A700400162
:100570003F084101A60040013E084101A50040019D
:100580003D084101A400973124278031410124080E
:10059000B9003908D70052084001EE004101510866
:1005A0004001ED00410150084001EC0041014F08BD
:1005B0004001EB00410156084001EA0041015508A5
:1005C0004001E900410154084001E800410153089D
:1005D0004001E70041014E084001E60041014D089D
:1005E0004001E50041014C084001E40041014B0895
:1005F0004001E30086311A2680314001660841013E
:10060000C200400165084101C10040016408410188
:10061000C000400163084101BF0042084001C4001E
:10062000410141084001C300410140084001C200AE
:1006300041013F084001C1004330C0007F30BF008E
:100640000030BE000030BD008331EE238031400118
:1006500040084101A70040013F084101A6004001B8
:100660003E084101A50040013D084101A400973129
:100670002427803141012408B9003908D8005208E4
:100680004001B000410151084001AF004101500854
:100690004001AE0041014F084001AD00BE30AC004A
:1006A000AA30AB00AA30AA00AB30A9008E311E26BA
:1006B000803140012C084101C60040012B08410156
:1006C000C50040012A084101C40040012908410138
:1006D000C30046084001EE00410145084001ED001D
:1006E000410144084001EC00410143084001EB0096
:1006F000410156084001EA00410155084001E90066
:10070000410154084001E800410153084001E7005D
:1007100041014E084001E60041014D084001E5005D
:1007200041014C084001E40041014B084001E30055
:1007300086311A268031400166084101CA00400115
:1007400065084101C900400164084101C800400139
:1007500063084101C7004A084001C400410149083B
:100760004001C300410148084001C200410147085F
:100770004001C1004330C0007F30BF000030BE00E8
:100780000030BD008331EE2380314001400841013B
:10079000A70040013F084101A60040013E08410179
:1007A000A50040013D084101A40097312427803174
:1007B00041012408B9003908D9005808B90039089E
:1007C0004001A00041015908BA003A084001A100C7
:1007D000A201410157089431D22408004001400889
:1007E0008039C5004508CA004035C5004508D0001D
:1007F000BF1B5014500803190A2C500A031D082C63
:100800000030C0000030BF000030BE000030BD002E
:10081000BF17122C0030C0000030BF000030BE00F7
:100820000030BD0044088039C5004508CA0644357B
:10083000C5004508CB00C31B4B144B0803192D2CD6
:100840004B0A031D2B2C0030C4000030C3000030C5
:10085000C2000030C100C317352C0030C400003086
:10086000C3000030C2000030C1004B08031D500817
:10087000031D432C0030C0000030BF000030BE001C
:100880000030BD0008003D08C5004508A000430831
:100890009231D722833140012108D6002008D500AB
:1008A0005508C500C601C701C8014808CF00470860
:1008B000CE004608CD004508CC005608C500C6014C
:1008C000C701C8014808D4004708D3004608D20031
:1008D0004508D1003E08C5004508A00042089231F5
:1008E000D722833140012108D6002008D5005508C1
:1008F000C500C601C701C8014508CC074608CD3D63
:100900004708CE3D4808CF3D5608C500C601C7017F
:10091000C8014508D1074608D23D4708D33D4808DD
:10092000D43D3F08C5004508A00041089231D722B8
:10093000833140012108D6002008D5005508C500A4
:10094000C601C701C8014508CC074608CD3D470888
:10095000CE3D4808CF3D5608C500C601C701C801B5
:100960004508D1074608D23D4708D33D4808D43D45
:100970000830CC35CD0DCE0DCF0D890BB92C3E08EE
:10098000C5004508A00041089231D72283314001BB
:100990002108D6002008D5005508CC075608CD3DC3
:1009A0000030CE3DCF3D3D08C5004508A0004208BF
:1009B0009231D722833140012108D6002008D5008A
:1009C0005508CC075608CD3D0030CE3DCF3D083010
:1009D000CC35CD0DCE0DCF0D890BE82C3D08C500D3
:1009E0004508A00041089231D722833140012108F7
:1009F000D6002008D5005508CC075608CD3D00305C
:100A0000CE3DCF3D3E08C5004508A00043089231C9
:100A1000D722833140012108D6002008D50055088F
:100A2000D1075608D23D0030D33DD43D3F08C50024
:100A30004508A00042089231D722833140012108A5
:100A4000D6002008D5005508D1075608D23D003001
:100A5000D33DD43D3F08C5004508A000430892316E
:100A6000D722833140012108D6002008D50055083F
:100A7000C5005608C600C701C8010830C535C60DF7
:100A8000C70DC80D890B3E2D4508D1074608D23D3C
:100A90004708D33D4808D43D4C08C5004D08C60062
:100AA0004E08C7004F08C8001830C836C70CC60C1F
:100AB000C50C890B552D4508D1074608D23D47087E
:100AC000D33D4808D43D0830CC35CD0DCE0DCF0DEB
:100AD000890B642D50084B07C500C601C60D45089B
:100AE000823ED500FF30463DD600D31B8C2D013011
:100AF000D135D20DD30DD40D890B782DCF1B5114C8
:100B00000130CC35CD0DCE0DCF0D890B812DFF30B1
:100B1000D507FF30D63D752DCB01CF1FA52DFF305A
:100B20004C05C500FF304D05C600FF304E05C7001F
:100B30007F304F05C80048084704460445040319A0
:100B40005118A32DA52DCB01CB0A4B080319CE2D8F
:100B50000130D1070030D23D0030D33D0030D43DCC
:100B6000541CCE2D5108C5005208C6005308C700BA
:100B70005408C8000130C900C837C70CC60CC50CE2
:100B8000C90BBC2D4808D4004708D3004608D20042
:100B90004508D1000130D5070030D63D5608803ACF
:100BA000C50080304502031DD72DFF305502031CC0
:100BB000E32D7F304001D4008030D3000030D200DC
:100BC0000030D1000D2E40015608803AC50080301B
:100BD0004502031DED2D013055020318FA2D00309A
:100BE0004001D4000030D3000030D2000030D100EA
:100BF000CA010D2E40015508C5004508D000FF3040
:100C0000D105FF30D2057F30D3050030D405501810
:100C1000D3175036C5004508D4004A08C50045081A
:100C2000D4045408C0005308BF005208BE00510845
:100C3000BD00080040016E08DA006D08D9006C089C
:100C4000D8006B08D7000030DE000030DD00003037
:100C5000DC000030DB0088318720863103184D2E00
:100C60003F304001AC008030AB000030AA000030C3
:100C7000A9006E08B0006D08AF006C08AE006B08EC
:100C8000AD008E311E26863140012C08EE002B0867
:100C9000ED002A08EC002908EB003F304001DA00A3
:100CA0008030D9000030D8000030D7006E08DE0058
:100CB0006D08DD006C08DC006B08DB0088318720E4
:100CC00086310318802E3F304001DA008030D90091
:100CD0000030D8000030D7006E08DE006D08DD005F
:100CE0006C08DC006B08DB00923178228631400111
:100CF0005A08EE005908ED005808EC005708EB00C0
:100D000040304001C000C030BF000030BE000030A5
:100D1000BD006E08C4006D08C3006C08C2006B08FB
:100D2000C1008331EE23863140014008DA003F08DC
:100D3000D9003E08D8003D08D7003F30DE008030A3
:100D4000DD000030DC000030DB0088318720863198
:100D500003181B2F40304001C000C030BF000030DE
:100D6000BE000030BD006608DA006508D9006408DE
:100D7000D8006308D7006A08DE006908DD0068084B
:100D8000DC006708DB0092317822863140015A0886
:100D9000C4005908C3005808C2005708C100833175
:100DA000EE238631400140084101A30040013F0885
:100DB0004101A20040013E084101A10040013D085F
:100DC0004101A00040016608AC006508AB00640862
:100DD000AA006308A9006E08C0006D08BF006C0877
:100DE000BE006B08BD00410123084001C400410161
:100DF00022084001C300410121084001C200410115
:100E000020084001C1008331EE23863140014008B3
:100E1000B0003F08AF003E08AE003D08AD008E3187
:100E20001E2640012C08E6002B08E5002A08E400F5
:100E30002908E300080040304001C0000030BF0036
:100E40000030BE000030BD006E08C4006D08C30055
:100E50006C08C2006B08C1008331EE23863140016B
:100E60004008DA003F08D9003E08D8003D08D70006
:100E70003F30DE008030DD000030DC000030DB0081
:100E800088318720863103184F2F40016A08E60019
:100E90006908E5006808E4006708E30008004030DE
:100EA0004001C0004030BF000030BE000030BD0037
:100EB0006E08C4006D08C3006C08C2006B08C10056
:100EC0008331EE23863140014008DA003F08D90023
:100ED0003E08D8003D08D7004030DE000030DD007D
:100EE0000030DC000030DB008831872086310318B9
:100EF000080040016E08DA006D08D9006C08D800BF
:100F00006B08D7003F30DE002A30DD00AA30DC005D
:100F1000AB30DB0092317822863140015A08C000A4
:100F20005908BF005808BE005708BD006608DA001F
:100F30006508D9006408D8006308D7006A08DE0095
:100F40006908DD006808DC006708DB009231782260
:100F5000863140015A08C4005908C3005808C2002D
:100F60005708C1008331EE2386314001400841011A
:100F7000A30040013F084101A20040013E08410199
:100F8000A10040013D084101A00040016608AC00FD
:100F90006508AB006408AA006308A9004030C000DF
:100FA000C030BF000030BE000030BD00410123084A
:100FB0004001C400410122084001C3004101210851
:100FC0004001C200410120084001C1008331EE23ED
:100FD000863140014008B0003F08AF003E08AE0037
:100FE0003D08AD008E311E2640012C08E6002B087E
:100FF000E5002A08E4002908E30008000134003471
:101000004E018C1242016108620403190800620853
:101010008A0061080A0088310800273040013C023C
:10102000103003193B02031C44284530BD003D0825
:10103000B4000030B500B600003092312322883170
:1010400045304001BD003D08B4000030B500B60099
:10105000013092312322883145304001BD003D08E6
:10106000B4000030B500B60002309231232288313E
:1010700045304001BD003D08B4000030B500B60069
:101080000330923123220800C001C101C001C10117
:101090000A304001A0000030A1003C08A3003B083A
:1010A000A2009331D723883140012108BF002008D6
:1010B000BE003E08303EBD003D08B4000030B50023
:1010C000B6004008033C9231232288310A304001A7
:1010D000A0000030A1003C08A3003B08A20094310E
:1010E0006624883140012108BC002008BB00013083
:1010F000C0070030C13D4108803ABD0080303D024C
:10110000031D8428043040020318080048280030DA
:1011100040015705DF0000305805E00080305905D8
:10112000E1007F305A05E2006208610460045F0458
:10113000031DA2280030DA000030D9000030D800AA
:101140000030D70000305B05DF0000305C05E000B8
:1011500080305D05E1007F305E05E20062086104D9
:1011600060045F04031DBC280030DE000030DD0099
:101170000030DC000030DB00DA1FD6280030DF0052
:101180000030E0000030E1008030E2005708DF026C
:101190005808E03B5908E13B5A08E23B6208DA0094
:1011A0006108D9006008D8005F08D700DE1FF0286A
:1011B0000030DF000030E0000030E1008030E2006D
:1011C0005B08DF025C08E03B5D08E13B5E08E23B58
:1011D0006208DE006108DD006008DC005F08DB00FB
:1011E0008030DA068030DE065E085A02031D0800F1
:1011F0005D085902031D08005C085802031D080021
:101200005B08570208004001A8002808031DA31F1F
:1012100019292009AA002109AB002209AC002309E1
:10122000AD00AA0A0319AB0A0319AC0A0319AD0AE7
:1012300021292308AD002208AC002108AB002008BA
:10124000AA002308220421042004031D30290030B1
:10125000A3000030A2000030A1000030A000080070
:101260009630A4002408A900FE302D050319572943
:101270000130A4002408A9070130AD36AC0CAB0C3A
:10128000AA0C890B3D2934290130A4002408A907A0
:101290000130AA070030AB3D0030AC3D0030AD3D21
:1012A0000130AD36AC0CAB0CAA0C890B5129FF30C8
:1012B0002D0503196929442902302902031C6B29D1
:1012C0000130A9020130AA35AB0DAC0DAD0D890B73
:1012D0006329AC1F5C2929187529FF30AA05FF3046
:1012E000AB057F30AC05FF30AD050310A90C290814
:1012F000A400A501A601A7011830A435A50DA60DCF
:10130000A70D890B7D292408AA042508AB0426080B
:10131000AC042708AD042808031DA31F9029AD17AE
:101320002D08A3002C08A2002B08A1002A08A00069
:1013300008009031D620893140012108A7002008FB
:10134000A60042013F0840012602A20042014008D7
:101350004001273BA3000030230232300319220250
:10136000031C080027084201C00040012608420172
:10137000BF004001A5012508A2000230A235FF3EB2
:10138000031DBE292235B03EA3002308A80028086B
:10139000860001308700403FA200413FA3002208A1
:1013A0008600230887000130A4002808023E84003C
:1013B00001308500000ADD29A435890BDC292408C9
:1013C0000105031DEB292808033E86000130870034
:1013D0008101810AF1292808033E86000130870037
:1013E00081012808033E8600013087000103031DA8
:1013F000122A2808043E8600013087000108031DD8
:10140000122A2808053E8600013087008101810AE2
:101410002808063E8600013087002608C03F2708BE
:10142000C13F542A2808033E86000130870001038B
:10143000031D3E2A2808043E860001308700010370
:10144000031D3E2A2808063E860001308700403FE3
:101450002602A200413F273BA30001302302F530C2
:1014600003192202031C542A0230A2002808053E58
:1014700086000130870022088100542A2808033E94
:101480008600013087000108031D542A2808043E05
:101490008600013087000103031D542A2808053EF9
:1014A00086000130870081012808033E8600013054
:1014B00087000108A2002808043E8600013087004A
:1014C000220881000130A2002208A507043025026D
:1014D00003180800BB29903188208A31003A031D87
:1014E00008009031D6208A3142013508400120029F
:1014F000A800420136084001213BA90042016D08C5
:1015000040012902031D882A42016C08400128027B
:10151000031C08009031D6208A3140012108420185
:10152000B600400120084201B50041016903031DD6
:101530009F2A01304201B3070030B43DA62A420180
:10154000B301B4011430EC000030ED004101690337
:10155000031DED2A42014908031DED2ACA01CA0AEA
:101560006430EC000030ED009031D6208A31420129
:10157000390840012002AA0042013A084001213BFB
:10158000AB009031D6208A31400121084201BA00D7
:10159000400120084201B900003040012B02963082
:1015A00003192A020318DA2A90304201B7000130E9
:1015B000B800ED2A2B08A1002A08A0006030A20084
:1015C000EA30A300943166248A31400121084201A7
:1015D000B800400120084201B700410169084001FC
:1015E000A80028084201C9004101E901420134086C
:1015F000803A4001A80080302802031D022B0430ED
:1016000042013302031C212B01304201EE0700305E
:10161000EF3D6F084001A10042016E084001A000AB
:101620009031C4208A314201B301B4019031D620F7
:10163000400121084201BA00400120084201B900DE
:1016400008009031D6208A31420139084001200239
:10165000A80042013A084001213BA90003302902B9
:10166000E93003192802031C080001304201EE0290
:101670000030EF3B6F084001A10042016E084001BD
:10168000A0009031C42008004E010F104301901FAC
:10169000772C90134101ED016A08023E860001306B
:1016A00087000108860087018101810AEA0108009C
:1016B0004201AA1808002908F20072084101EA0054
:1016C000420129088600013087000108F2007208F3
:1016D0004101EC00420129088600013087000130F9
:1016E000413F4101EB000330F20072084201A907BB
:1016F00029085F3A031D802B5C30F2007208A900B4
:101700002A10290828060319AA14430111140230CB
:10171000F20072084101ED0008001F2C4301111F67
:101720009A2B0130F20072084201AC07043092316A
:10173000092208007908F3007808F200F336F20C69
:1017400072088C00781CAA2B0B30F2007208410141
:10175000ED0008000330F20072084101ED000800BE
:101760004301111FBC2B0130F20072084201AC078B
:10177000043092310922080091147908F3007808A6
:10178000F2007308F200F30106307205F400003035
:101790007305F500F0307404F80000307504F900AA
:1017A00078144201D001D00A872B4201500303195B
:1017B000F32B41016B08860001308700403FF800A1
:1017C000413FF9006B088600013087000130433F3C
:1017D0004201D20041016B088600013087000130D0
:1017E000423F4201D100780843018C00781CAA2BAB
:1017F0000530F20072084101ED0008004301111F9D
:101800000C2C0130F20072084201AC0743011113A5
:10181000053092310922080001304201D102510AFB
:10182000031D222C0430F20072084101EB07013045
:10183000EC02031D1F2C00309231092208004301E5
:101840009114872B520886008701010843018C0000
:101850000130F20072084201D20708004301111F53
:101860003C2C0130F20072084201AC070430923186
:10187000092243011113080091150830F200720883
:101880004101ED0008000830F2007208ED0043014C
:101890009115080043010C08F2004201520886002D
:1018A0008701720881000130F2007208D20701300E
:1018B000D1020319632C430191120630F200720821
:1018C0004101ED00672C43019116913160214301E4
:1018D0001116080000309231092208000130F20090
:1018E00072084201AC07063092310922080041011A
:1018F0006D08F200F3017308003A0319802C6E2C76
:101900007208003A0319582B013A03198D2B033A38
:101910000319D52B013A0319FE2B073A03196A2C38
:10192000013A03192E2C033A0319432C013A0319E7
:101930006A2C0F3A03194A2C023A03198E2B013AEA
:101940000319B02B6E2C0800400135088039B60011
:101950003608BF003535B6003608C600B41B46143D
:1019600046080319C12C460A031DBE2C0030B500E1
:101970000030B4000030B3000030B200B417B5013D
:10198000C92C0030B5000030B4000030B300003086
:10199000B20031088039B6003608BF063135B600CE
:1019A0003608C700B01B471447080319E52C470A3F
:1019B000031DE22C0030B1000030B0000030AF0059
:1019C0000030AE00B017B101ED2C0030B100003096
:1019D000B0000030AF000030AE00310830042F04FA
:1019E0002E04031D0C2D0030B5000030B400003073
:1019F000B3000030B2008030B4047F30B5043F083B
:101A0000B6003608B5043508B1003408B000330814
:101A1000AF003208AE0008004608031D182D003044
:101A2000B1000030B0000030AF000030AE00080060
:101A30004608B600B7013708B90047083602B800B3
:101A4000031CB90338087F3EC0000030393DC10097
:101A50003508BE003408BD003308BC003208BB00A6
:101A60000030B5000030B4000030B3000030B200E8
:101A70000030C5000030C4000030C3000030C20098
:101A8000C7011A30470203187D2D470803195F2D3F
:101A90000130BB35BC0DBD0DBE0D890B492D01308C
:101AA000B235B30DB40DB50D890B502DC51B3214D5
:101AB0000130C235C30DC40DC50D890B592D310838
:101AC0003E02031D6D2D30083D02031D6D2D2F08B4
:101AD0003C02031D6D2D2E083B02031C782D45177B
:101AE0002E08BB022F08BC3B3008BD3B3108BE3B73
:101AF0000130B6003608C707412D3E083D043C04BE
:101B00003B04031D4214B41B9A2D0130B235B30DB2
:101B1000B40DB50D890B862DC51B32140130C235AD
:101B2000C30DC40DC50D890B8F2DFF30C007FF30CD
:101B3000C13D832DC701C51FB32DFF304205B6003F
:101B4000FF304305B700FF304405B8007F3045053E
:101B5000B900390838043704360403193218B12D96
:101B6000B32DC701C70A47080319DC2D0130B2079E
:101B70000030B33D0030B43D0030B53D351CDC2DA8
:101B80003208B6003308B7003408B8003508B90089
:101B90000130BA00B937B80CB70CB60CBA0BCA2D65
:101BA0003908B5003808B4003708B3003608B20069
:101BB0000130C0070030C13D4108803AB600803096
:101BC0003602031DE52DFF304002031CF42DFF30CB
:101BD0004001C0000030C1000030B5000030B4004A
:101BE0000030B3000030B20040014108803AB60036
:101BF00080303602031DFE2D0130400203180C2EEA
:101C00004001C001C1010030B5000030B400003017
:101C1000B3000030B200BF0140014008B6003608F2
:101C2000C600461C152EB417192E7F30B600360894
:101C3000B4054636B6003608B500FF2C40012C0826
:101C40008039B1003108B9002C35B1003108BB0032
:101C5000AB1B3B143B0803193B2E3B0A031D382EDC
:101C60000030AC000030AB000030AA000030A9000A
:101C7000AB17AC01432E0030AC000030AB0000309D
:101C8000AA000030A90030088039B1003108BA003C
:101C90003A083906031D39173035B1003108BA004A
:101CA000AF1B3A143A080319632E3A0A031D602E3B
:101CB0000030B0000030AF000030AE000030AD00AA
:101CC000AF17B0016B2E0030B0000030AF00003015
:101CD000AE000030AD003B083A020318B12E391FA8
:101CE000752E8030B1003108B9063B08B1003108CB
:101CF000BC003A08B1003108BB003C08B100310813
:101D0000BA002908B1003108BC002D08B100310823
:101D1000A9003C08B1003108AD002A08B100310823
:101D2000BC002E08B1003108AA003C08B1003108FF
:101D3000AE002B08B1003108BC002F08B1003108FB
:101D4000AB003C08B1003108AF002C08B1003108ED
:101D5000BC003008B1003108AC003C08B1003108CB
:101D6000B000BC013A08B100B2013208B4003B082F
:101D70003102B300031CB4033408803AB50080304C
:101D80003502031DC52E1A303302031CF92E400103
:101D90002C082B042A0429040319D02E0130D12E3B
:101DA0000030B1003108BC000030AC000030AB00A6
:101DB0000030AA000030A9003A08B1003108BB0089
:101DC000FE2E3C1CE92E3C360138B1003108BC0027
:101DD000EB2E0310BC0C2918BC170130B100AC3736
:101DE000AB0CAA0CA90CB10BEF2E0130B1003108DD
:101DF000BB0740013A083B02031CE12E391B2F2F81
:101E00003B08031D0C2F0030AC000030AB0000304D
:101E1000AA000030A90008002D08A9072E08AA3D35
:101E20002F08AB3D3008AC3D2C1CA92F3C1C1E2FAD
:101E30003C360138B1003108BC00202F0310BC0C27
:101E40002918BC170130B100AC37AB0CAA0CA90C97
:101E5000B10B242F0130B1003108BB07A92F2C088A
:101E6000803AB1003008803A3102031D412F2F081B
:101E70002B02031D412F2E082A02031D412F2D087E
:101E800029020318792FFF30B100FF30B200FF3074
:101E9000B300FF30B40029082D02B5002A082E3BFC
:101EA000B6002B082F3BB7002C08303BB800350894
:101EB000B1073608B23D3708B33D3808B43D3408A1
:101EC000AC003308AB003208AA003108A90080300A
:101ED000B1003108B906BC09BC0A3C08031D812FBA
:101EE0000130A9070030AA3D0030AB3D0030AC3DC9
:101EF000812F2D08A9022E08AA3B2F08AB3B3008E2
:101F0000AC3B2C082B042A042904031DA72F3C08F2
:101F1000031DA72F0030AC000030AB000030AA003A
:101F20000030A90008000130A935AA0DAB0DAC0D99
:101F3000890B942FBC1B29143C1CA02F0314A12F28
:101F40000310BC0D3B080319A72F0130BB02AB1FC8
:101F5000932FBA01BC1FB42F3C087F3903192918ED
:101F6000B22FB42FBA01BA0A3A080319E02F013090
:101F7000A9070030AA3D0030AB3D0030AC3D2C1C21
:101F8000E02F2908B1002A08B2002B08B3002C0862
:101F9000B4000130B500B437B30CB20CB10CB50BC2
:101FA000CB2F3408AC003308AB003208AA0031084C
:101FB000A9003B0A0319E02F0130B1003108BB072B
:101FC0003B0A031D3B08031DF02F0030AC0000301E
:101FD000AB000030AA000030A9003B080319B9018A
:101FE0003B1CF42FAB17F82F7F30B1003108AB0545
:101FF0003B36B1003108AC00B91F0800AC1708002F
:1021020008009131F12108004E018F1008004201B0
:102112004F0808004201470808004101E901E90AA5
:10212200080042011D121D1608000130913185215F
:10213200080041016D08031908009A280130420184
:10214200C3070030C43D0800143400340A3400349C
:10215200903406349F304001A0001030A10090312D
:10216200DF2008007B084001BC007A08BB008831F0
:102172000D200800400121084201E0004001200832
:102182004201DF0008004001210841018F004001A7
:10219200200841018E0008004001A00020084101F2
:1021A2009F004201911711140800420144084001A6
:1021B200A100420143084001A0000800400121089B
:1021C2004201E200400120084201E1000800420110
:1021D2004A080319EF28CA0101300800003008003C
:1021E200400121084301DB00400120084301DA00DD
:1021F2000800400121084201E40040012008420198
:10220200E3000800400121084301DD0040012008ED
:102212004301DC000800400121084201E6004001C0
:1022220020084201E5000800400121084201E800BF
:10223200400120084201E7000800603051018D0092
:102242008F01910106309300920108004F0196011F
:102252009701980199019A019B019C019D01080037
:10226200003400340034003480343F34003400340D
:1022720000343F346400800101310130FE0200303D
:10228200FF3B7F087E04031900343C29FE00120044
:102292001E000130FE020030FF3B7F087E0403195E
:1022A200003448294E018D1042015F086004031971
:1022B200080060088A005F080A00913108000430B3
:1022C200F00070084101EB070130EC02031D6E299A
:1022D2000430F0007008ED000800ED01ED0A08007E
:1022E20045304B019F00F9309D009C014E018C123C
:1022F200961603304001A0000030A1009031DF208B
:1023020080304B019E0008004001B40034080319DC
:102312009329AE01AE0A243092315B224201CF01F1
:10232200CF0A0800AE01243092315B224201CF0174
:1023320008007A037B04031DA3290030FA0002304F
:10234200FB00A7290130FA020030FB3B7B08400169
:10235200BC007A08BB0088310D200800913127218A
:10236200913194310424913191311E219131923174
:102372003F22913193315F2391319131712191311A
:1023820095314C25080002307B067A04031DCE29C4
:102392000130FA000030FB00D2290130FA07003088
:1023A200FB3D7B084001BC007A08BB0088310D2050
:1023B200080042016F084001A10042016E0840017D
:1023C200A0009031C42091318E304001A000103025
:1023D200A1009031BB2091310F309031CD20080007
:1023E20042011908F0007708A03E860001308700FC
:1023F200700881000130F0007008F707083077029A
:102402000318F7010130F00070084101EE070800DF
:10241200F1004301111541016A08023E86000130B4
:10242200870001080319212A7108F0006A08023E98
:10243200860001308700010886008701700881004C
:10244200ED0108004001BA003408E03E84009730F4
:102452000318013E85000008B7003508B8000630B1
:10246200B835FF3E031D312A38353704B900390823
:10247200AE003A08343E92315B2208005C304001E3
:10248200A00020084201A9005C304001A000200801
:102492004201A800AA142A10AC0143018F0128307E
:1024A2009000920150308D004E010F108F101914C0
:1024B200991408004001B2000230AF002F08B300A7
:1024C200A701A70A3208AF00B0012F08A800300800
:1024D200A9003330B1003108AA002E309331AD2368
:1024E2009231023040013306031D0800722A803007
:1024F2004001DA065E08AC005D08AB005C08AA0089
:102502005B08A9005A08B0005908AF005808AE008D
:102512005708AD008E311E2640012C08DA002B0828
:10252200D9002A08D8002908D7000800083042013B
:1025320069020318B42A41016F08A83E86000130DF
:102542008700010842019A000130F0007008410141
:10255200EF0708306F020318EF010130F000700836
:102562004201E90708004E01191208004001A400C7
:1025720024088600013087002008C03F2108C13F9F
:102582002208A3002408023E8600013087002308A7
:1025920081002408033E860001308700810124085F
:1025A200053E860001308700810108004001A80035
:1025B200A401A5012008A200A3012208A600230865
:1025C200A700281CE82A2608A4072708A53D0130F1
:1025D200A635A70D890BE92A0310A80C2808031DAC
:1025E200E22A2508A1002408A00008004001A30057
:1025F2002308053E8600013087000103031D0C2BD2
:102602002308053E86000130870081010130A000C9
:102612000030A10008002308053E86000130870033
:10262200023001060319072BA001A1010800400195
:10263200A6002308A5002208A400A435A50D26089B
:102642008600013087002408C03F2508C13F2108C9
:10265200A4002608023E860001308700240881007B
:102662002008A4002608033E8600013087002408C3
:102672008100080040011917191342011D1D462B44
:10268200B101B201C801C80A4A2B0130B1070030BA
:10269200B23DEF30F0002530F10031087007F20052
:1026A2003208713DF300720886007308870019082A
:1026B20081009D1C08001D121D16080041018C019D
:1026C2008D018E018F019201930198019A019F0160
:1026D20042018C018D018E018F01900192015430D3
:1026E2009300563094009501960197019801D430D9
:1026F20091004E018D10971481304001A0001030DE
:10270200A1009031BB20080040019413141314124D
:1027120094110130450190008E1746018E170E0864
:10272200F0390C388E0092171208F0390C389200EA
:1027320096171608F0390C3896009A171A08F039CD
:102742000C389A0009307E01A7000A30A6000B302F
:10275200A4000C30A30008004001AD0042012A1879
:10276200D02B40012D08AB002B08A0002708AC009D
:102772002C08A1002908A3002808A2005830933190
:102782001823933158304001AB002B08A0002A08CF
:10279200AC002C08A100013096317A2608004001D5
:1027A2002A08860087018101810A08004001200869
:1027B20021040319FF2BA501A50AA11BEA2B013055
:1027C200A035A10D890BE12B0130A4002408A50737
:1027D200DE2B21082302031DF02B20082202031CFA
:1027E200F62B2008A2022108A33B0130A136A00C3F
:1027F200890BF72B0130A502031DEA2B2308A10048
:102802002208A00008004001980199019A013F3076
:102812009200F0309300FF309400F8307E01CE0039
:10282200E030C3000330B800C4010430B9000730FF
:10283200CF00BA01C501D0013730BB00F030C6006D
:10284200FF30D10005307D01C50014307E019400B7
:102852001330950004307D01C6000C30CB00080017
:102862007708203E860001308700810142011D1D4C
:10287200452C7708203E86000130870081146408C9
:102882008A0063080A00943142019D1C542C770887
:10289200203E860001308700011543015D088A0051
:1028A2005C080A0094317708203E860001308700D8
:1028B20001080319632C43015B088A005A080A00C5
:1028C200943108009131F12108004001A601A701CD
:1028D200200821040319962CA501A50AA11B7B2C13
:1028E2000130A035A10D890B722C0130A4002408FF
:1028F200A5076F2C0130A635A70D890B7C2C21086A
:102902002302031D862C20082202031C8D2C200882
:10291200A2022108A33B26140130A136A00C890B88
:102922008E2C0130A502031D7B2C2708A10026084E
:10293200A00008009031D620943140012108A50062
:102942002008A40042012F0840012402A2004201F3
:1029520030084001253BA30003302302E83003196D
:102962002202031C080025084201B000400124088D
:102972004201AF0048080319C52C4608031DC52CA7
:10298200C601C60AC801080048080319D02C460827
:102992000319D02CC701C70AC601C8010800C70124
:1029A20008004001B5000310B50C0310A00C031081
:1029B200A20C0310A10C3508A300A4012308A70050
:1029C2002408A8002008A300A4012308AB002408BF
:1029D200AC002208A300A4012308AF002408B00021
:1029E2002108A300A4012308B3002408B40046016F
:1029F2008D014001270846018C00910140012B08FE
:102A020046019000950140012F084601940099016A
:102A1200400133084601980008009131AF219531F9
:102A22009031AB2095314001131319133B30A000B4
:102A32001330A10091310C2195318B170B171530F2
:102A42004301DF004B30DE00BE30890B262DDE0B4A
:102A5200262DDF0B262D00009031962095319531E1
:102A6200DD2595319031B320953193318523953110
:102A72009131DA2195318A316B2295319631CF2607
:102A8200953189319921953197318A279531943140
:102A92009B2495313C2D4E01991231304001A0000A
:102AA2001430A10091310C2195314E011912973049
:102AB2004001A0001230A10091311521953108305A
:102AC20042019F0090309D0004309E001F309B0009
:102AD2009C0102304001A0000030A1009031FA2098
:102AE200953192304001A0001030A10091310321B4
:102AF200953182304001A0001030A1009031F120C8
:102B02004201D3014001EF014101EF0108304001D0
:102B1200A20022084201E900F701F6014101EE019B
:102B22004E0199160800003040012005A80000302F
:102B32002105A90080302205AA007F302305AB00C1
:102B42002B082A0429042804031DAF2D0030A300FA
:102B52000030A2000030A1000030A00000302405A7
:102B6200A80000302505A90080302605AA007F3084
:102B72002705AB002B082A0429042804031DC92DAC
:102B82000030A7000030A6000030A5000030A400ED
:102B920027082306031DD72D26082206031DD72D3D
:102BA20025082106031DD72D240820060319DB2D35
:102BB2000310080003140800B0304001A5002508E6
:102BC2004201CB00B8304001A50025084201CE00E9
:102BD200C0304001A50025084201CD00C8304001A7
:102BE200A50025084201CC000E304001A0000030B3
:102BF200A1000230A5002508A20042014B08923133
:102C0200B72295310C304001A0000030A100023003
:102C1200A5002508A20042014C089231B722953145
:102C22000E304001A0000030A100A20142014D0877
:102C32009231B72295310E304001A0000030A10040
:102C4200A201A20A42014E089231B7220800903135
:102C5200D6209631400121084101DD0040012008C3
:102C62004101DC0042012D0841015C02DA0042010F
:102C72002E0841015D3BDB0000305B020A30031984
:102C82005A02031C08005D084201AE0041015C08C3
:102C92004201AD00683043015006031D562E510318
:102CA200031D562ED001D1015A2E0130D00700301B
:102CB200D13DFF304201EA07FF30EB3D6A086B0469
:102CC200031D682E1430EA000030EB00C501D0303D
:102CD200860001308700AF308400003085000A3062
:102CE2004101DA0016001A00DA0B732E80319020AF
:102CF20008004001A30042012A18BC2E0230400104
:102D0200A200210886008701220881002008A20073
:102D12004201280A86000130870040012208810012
:102D22002308A200420128088600013087004001E2
:102D3200220881002108A20042012808023E8600E2
:102D4200013087004001220881000330A2002208DE
:102D52004201A80728085F3A031DB52E5C304001E6
:102D6200A20022084201A800AA1029082806031D71
:102D7200C22E2A14C22E4001210886008701810139
:102D8200810A400121088600870102300106031DE5
:102D9200080090319A204E010F14080090318B20C8
:102DA2009631003A0319142FF1304101DE0025302B
:102DB200DF007A085E0786007B085F3D8700010816
:102DC200E00060084001A000F2304101E10025303E
:102DD200E2007A08610786007B08623D87000108ED
:102DE200E30063084001A100F3304101E400253013
:102DF200E5007A08640786007B08653D87000108C4
:102E0200E60066084001A200F0304101E7002530EB
:102E1200E8007A08670786007B08683D870001089A
:102E22009431D22408009031E8209631003A0319F7
:102E32001D2F4201C501C50A4201450803190800B8
:102E420096312826080003104101260D270DA800FF
:102E52002808AE002E08031D372F0030A7000030CF
:102E6200A6000030A5000030A40008002408A80035
:102E72002508A9002608AA002708AB001F30AB3698
:102E8200AA0CA90CA80C890B402F2808AC002C080E
:102E9200AD00A617FF30A405FF30A505FF30A6053B
:102EA2000030A7059630AE02AE1F6A2F2E08803A78
:102EB200973E031C2E2F0130A736A60CA50CA40C9E
:102EC200890B5D2F0130A8002808AE0703197B2F5C
:102ED2005C2F20302E0203182E2F2E0803197B2F71
:102EE2000130A435A50DA60DA70D890B722F013057
:102EF200AE026E2F2D0803190800A409A509A60920
:102F0200A709A40A0319A50A0319A60A0319A70AFD
:102F120008009031D620973140012108C5002008D1
:102F2200C40042013D0840014402C20042013E0881
:102F32004001453BC30000304302233003194202E3
:102F4200031C080045084201BE004001440842013A
:102F5200BD004E089231F72297314001200821042A
:102F62000319C22F9131C421973140014508420112
:102F7200BC00400144084201BB000130913185216F
:102F8200080042014D089231F72297314001200892
:102F920021040319DB2F91319A2197314001450811
:102FA2004201BC00400144084201BB0001309131A2
:102FB200852108009031D620973142013B0840011B
:102FC2002002C20042013C084001213BC3001330F1
:102FD2004302883003194202031C08000030913179
:102FE200852197319031D62040012008773E420159
:102FF200BB00EC304001213D4201BC00080000341E
:103002008234213400340034003400340234393440
:103012000F340034003400344034803400343F3400
:1030220006345B344F3466346D347D3407347F3478
:103032006F340034003400344834003453340034E4
:1030420077347C3439345E34793471346F34763485
:1030520006341E3400343834003454343F3473346C
:10306200673450346D3478343E34003400340034E4
:103072006E340034393400340F340034083463348D
:103082005F347C3458345E347B3471346F3474343E
:1030920002341E3400340634003454345C34733445
:1030A200673450346D3478341C34003400340034C6
:0E30B2006E340034393430340F3400340034BE
:020000040001F9
:0A000E00EC3FFF3F9F3FFF3FFF3F25
:00000001FF
