:020000040000FA
:10000000803139280A3400347E1480314E01961A2A
:100010008C1E0E288E316626803137280B1F37281C
:1000200099188F1C17288D31AA2580313728191867
:100030000F1C1E288031892080313728191A0F1E85
:10004000282841015D088A005C080A0080313728B1
:10005000991A8F1E322841015B088A005A080A004B
:100060008031372897188D1C37288E3159267E10FD
:10007000090080313B288731FC278031EA00873135
:10008000FD278031EB008731FE278031EC0087317E
:10009000FF278031ED004101803102208031DE00F8
:1000A000803103208031DF00EF308400253085006F
:1000B0000130FE000230FF008E314D268031F0010C
:1000C000F101F201F301F401F50146308400003042
:1000D00085002430FE000030FF008E314D26803137
:1000E000A0308400003085003030FE000030FF007A
:1000F0008E314D2680312030840001308500203043
:10010000FE000030FF008E314D267E10400185310B
:10011000EB2D4E010F104301901FA52990134001B4
:10012000E4016108023E860087010108860087011C
:100130008101810AE1010800C81808004708F80099
:100140007808E1004708860087010108F800780870
:10015000E300470886008701413FE2000330F800D2
:100160007808C70747086A3A031DBA286730F800BD
:100170007808C7004810470846060319C814430109
:1001800011140230F80078084001E40008004E29FC
:100190004301111FD4280130F80078084001CA0734
:1001A00004308F31182708007508F9007408F8002A
:1001B000F936F80C78088C00741CE4280B30F80031
:1001C00078084001E40008000330F8007808400196
:1001D000E40008004301111FF6280130F8007808F8
:1001E0004001CA0704308F311827080091147508A0
:1001F000F9007408F8007908F800F901063078056C
:10020000FA0000307905FB00F0307A04F400003089
:100210007B04F50074144001DE01DE0AC1285E0390
:1002200003192329620886008701403FF400413FFB
:10023000F500620886008701433FE00062088600FF
:100240008701423FDF00740843018C00741CE428DE
:100250000530F80078084001E40008004301111F50
:100260003C290130F80078084001CA074301111306
:1002700005308F311827080001304001DF025F0A86
:10028000031D51290430F8007808E2070130E30229
:10029000031D4E2900308F311827080043019114A7
:1002A000C128600886008701010843018C000130E5
:1002B000F80078084001E00708004301111F6B298E
:1002C0000130F80078084001CA0704308F31182740
:1002D00043011113080091150830F8007808400117
:1002E000E40008000830F8007808E40043019115A4
:1002F000080043010C08F8004001600886008701EF
:10030000780881000130F8007808E0070130DF024A
:1003100003199229430191120630F8007808400130
:10032000E4009629430191168E317326430111167C
:10033000080000308F31182708000130F8007808D5
:10034000CA0706308F311827080040016408F800FA
:10035000F9017908003A0319AE299D297808003A75
:1003600003199C28013A0319C728033A03190F29D6
:10037000013A03192E29073A03199929013A031959
:100380005D29033A03197229013A031999290F3A91
:1003900003197929023A0319C828013A0319EA28EE
:1003A0009D2908008D31CA25813140012108A7000F
:1003B0002008A6004F082602A2005008273BA300F1
:1003C00000302302323003192202031C08002708E0
:1003D000D0002608CF00A5012508A2000230A235D2
:1003E000FF3E031DEF292235203EA3002308A8006D
:1003F0002808860001308700403FA200413FA3004B
:1004000022088600230887000130A4002808023E45
:10041000840001308500000A0E2AA435890B0D2ABC
:1004200024080105031D1C2A2808033E860001300C
:1004300087008101810A222A2808033E86000130B4
:10044000870081012808033E8600013087000103F0
:10045000031D432A2808043E860001308700010856
:10046000031D432A2808053E8600013087008101CC
:10047000810A2808063E8600013087002608C03F12
:100480002708C13F852A2808033E860001308700DF
:100490000103031D6F2A2808043E860001308700EF
:1004A0000103031D6F2A2808063E860001308700DD
:1004B000403F2602A200413F273BA3000130230218
:1004C000F53003192202031C852A0230A2002808F5
:1004D000053E86000130870022088100852A280811
:1004E000033E8600013087000108031D852A280885
:1004F000043E8600013087000103031D852A280879
:10050000053E86000130870081012808033E8600F1
:10051000013087000108A2002808043E860001304F
:100520008700220881000130A2002208A5070430BC
:10053000250203180800EC298D31AD258231003ADF
:10054000031D08008D31CA25823141014008400158
:100550002002A800410141084001213BA9004101BE
:100560005F0840012902031DB92A41015E084001CC
:100570002802031C08008D31CA2582314001210860
:100580004101C100400120084101C0004001570362
:10059000031DD02A01304101BE070030BF3DD72ADC
:1005A0004101BE01BF011430DE000030DF00400118
:1005B0005703031D172B5608031D172BD801D80A04
:1005C00064304101DE000030DF008D31CA25823108
:1005D00040014B082002AA004C08213BAB008D31A2
:1005E000CA25823140012108CC002008CB00003010
:1005F0002B02963003192A020318042B9030410174
:10060000C2000130C300172B2B08A1002A08A0004C
:100610006030A200EA30A30086319D26823140017D
:1006200021084101C300400120084101C2004001EE
:100630005708A8002808D600D70141013F08803A92
:100640004001A80080302802031D292B04304101FD
:100650003E02031C422B01304001EA070030EB3D13
:100660006B08A1006A08A0008D31E92582314101A3
:10067000BE01BF018D31CA2540012108CC002008F0
:10068000CB0008008D31CA25823140014B08200281
:10069000A8004C08213BA90003302902E9300319C6
:1006A0002802031C08000130EA020030EB3B6B0813
:1006B000A1006A08A0008D31E92508008D31B02520
:1006C0008331003A03199D2BF1304001B6002530EB
:1006D000B7006C08360786006D08373D87000108B3
:1006E000B8003808A000F230B9002530BA006C0814
:1006F000390786006D083A3D87000108BB003B08BA
:10070000A100F330BC002530BD006C083C0786001A
:100710006D083D3D87000108BE003E08A200F03094
:10072000BF002530C0006C083F0786006D08403DC3
:10073000870001088631292608008D31CA258331BA
:1007400040012108C2002008C100410138084001D1
:100750004102B600410139084001423BB700003078
:100760003702643003193602031C080042084101B5
:10077000B900400141084101B8008E31042683319F
:10078000003A0319D42BFF304001B6003608A00010
:10079000FF30B7003708A100FF30B8003808A200CA
:1007A000FF308631292608004001A001A101A201E5
:1007B0000030863129260800273040013C021030E5
:1007C00003193B02031C132C4530BD003D08B40047
:1007D0000030B500B60000308F31492783314530F5
:1007E0004001BD003D08B4000030B500B600013046
:1007F0008F314927833145304001BD003D08B400A9
:100800000030B500B60002308F31492783314530C2
:100810004001BD003D08B4000030B500B600033013
:100820008F3149270800C001C101C001C1010A3050
:100830004001A0000030A1003C08A3003B08A2003A
:1008400087313127833140012108BF002008BE00D5
:100850003E08303EBD003D08B4000030B500B60093
:100860004008033C8F31492783310A304001A00002
:100870000030A1003C08A3003B08A20086319D2661
:10088000833140012108BC002008BB000130C007B3
:100890000030C13D4108803ABD0080303D02031D5B
:1008A000532C0430400203180800172C8D31CA2540
:1008B000843140012108C5002008C4004D084402CD
:1008C000C2004E08453BC3000030430223300319E9
:1008D0004202031C08004508CE004408CD005C0815
:1008E0008F31DF2784314001200821040319872C30
:1008F0008E31EB268431400145084101C50040019D
:1009000044084101C40001308E31AC2608005B0868
:100910008F31DF27843140012008210403199F2CE7
:100920008E31C1268431400145084101C500400196
:1009300044084101C40001308E31AC2608008D31DD
:10094000CA2584314101440840012002C20041010E
:1009500045084001213BC30013304302883003198E
:100960004202031C080000308E31AC2684318D31E8
:10097000CA2540012008773E4101C400EC30400107
:10098000213D4101C5000800003482342134003487
:10099000003400340034023439340F34003400346D
:1009A00000344034803400343F3406345B344F34F8
:1009B00066346D347D3407347F346F340034003452
:1009C0000034483400345334003477347C343934C0
:1009D0005E34793471346F34763406341E34003426
:1009E0003834003454343F347334673450346D3405
:1009F00078343E340034003400346E3400343934FA
:100A000000340F340034083463345F347C34583499
:100A10005E347B3471346F34743402341E340034E9
:100A20000634003454345C347334673450346D34D9
:100A300078341C340034003400346E3400343934DB
:100A400030340F34003400344001A3004818582DCE
:100A50000230A200210886008701220881002008B8
:100A6000A200460A86008701220881002308A2000E
:100A7000460886008701220881002108A200460856
:100A8000023E86008701220881000330A20022086E
:100A9000C60746086A3A031D512D6730A200220896
:100AA000C600C81047084606031D5D2D48145D2D7D
:100AB0002108860087018101810A210886008701BB
:100AC00002300106031D08008D31BF254E010F14B1
:100AD00008004E019912D2304001A0000630A1005A
:100AE0008E31282685314E01191265304001A00053
:100AF0000F30A1008E3131268531083042019F0030
:100B000090309D0004309E001F309B009C01A5305A
:100B10004001A0000D30A1008E3116268531B7307E
:100B20004001A0000D30A1008E311F268531A73075
:100B30004001A0000D30A1008E310D264001E501DD
:100B4000F301F2010830A2002208EE00F101F001E9
:100B5000E6014E019916080020304001A500250845
:100B6000D9002830A5002508DC003030A500250874
:100B7000DB003830A5002508DA000E30A000003078
:100B8000A1000230A5002508A20059088F319F2737
:100B900085310C304001A0000030A1000230A500DA
:100BA0002508A2005A088F319F2785310E30400159
:100BB000A0000030A100A2015B088F319F27853182
:100BC0000E304001A0000030A100A201A20A5C0882
:100BD0008F319F2708008E31D62685318D31D02563
:100BE00085314001131319135E30A0000730A100B6
:100BF0008E31282685318B170B1715304101E10006
:100C00004B30E000BE30890B032EE00B032EE10BCE
:100C1000032E00008D31BB2585318531AC25853112
:100C20008D31D82585318731872785318E318426CE
:100C3000853182319C22853183315E23853181313A
:100C4000D22185318431562485318631652685311E
:100C5000192E4001B5000310B50C0310A00C0310B1
:100C6000A20C0310A10C3508A300A4012308A700BF
:100C70002408A8002008A300A4012308AB0024082E
:100C8000AC002208A300A4012308AF002408B00090
:100C90002108A300A4012308B3002408B4004601DE
:100CA0008D014001270846018C00910140012B086D
:100CB00046019000950140012F08460194009901DA
:100CC000400133084601980008008D31CA2586315D
:100CD00040012108A5002008A40041013A08400174
:100CE0002402A20041013B084001253BA300033040
:100CF0002302E83003192202031C080025084101E1
:100D0000BB00400124084101BA0040015508031905
:100D1000902E5308031D902ED301D30AD50108004D
:100D2000550803199B2E530803199B2ED401D40A8E
:100D3000D301D5010800D40108004001A601A70194
:100D4000200821040319CD2EA501A50AA11BB22E4E
:100D50000130A035A10D890BA92E0130A400240873
:100D6000A507A62E0130A635A70D890BB32E2108A5
:100D70002302031DBD2E20082202031CC42E2008BE
:100D8000A2022108A33B26140130A136A00C890B36
:100D9000C52E0130A502031DB22E2708A10026088A
:100DA000A00008007108A03E860087018101420171
:100DB0001D1DE52E7108A03E8600870181144101AA
:100DC00059088A0058080A00863142019D1CF32EFA
:100DD0007108A03E860087010115410157088A006D
:100DE00056080A0086317108A03E86008701010876
:100DF0000319012F410155088A0054080A00863161
:100E000008008F31012708004001980199019A01DB
:100E10003F309200F0309300FF309400F8307E01B4
:100E2000CE00E030C3000330B800C4010430B90084
:100E30000730CF00BA01C501D0013730BB00F03018
:100E4000C600FF30D10005307D01C50014307E01A1
:100E500094001330950004307D01C6000C30CB00A7
:100E600008004001200821040319592FA501A50AF3
:100E7000A11B442F0130A035A10D890B3B2F013060
:100E8000A4002408A507382F21082302031D4A2F98
:100E900020082202031C502F2008A2022108A33B95
:100EA0000130A136A00C890B512F0130A502031D82
:100EB000442F2308A1002208A000080040011917B0
:100EC000191342011D1D6B2F4101BC01BD014001E1
:100ED000D501D50A702F01304101BC070030BD3D5E
:100EE000EF30F6002530F70041013C087607F800A6
:100EF0003D08773DF90078088600790887004201AF
:100F0000190881009D1C08001D121D1608004001D3
:100F100094131413141294110130450190008E178C
:100F200046018E170E08F0390C388E009217120801
:100F3000F0390C38920096171608F0390C389600E4
:100F40009A171A08F0390C389A0009307E01A70068
:100F50000A30A6000B30A4000C30A30008004001AA
:100F6000AD004818D02F2D08AB002B08A000270893
:100F7000AC002C08A1002908A3002808A200CC304E
:100F80008F31BF278731CC304001AB002B08A00048
:100F90002A08AC002C08A100013085312425080066
:100FA0002A08860087018101810A080041018C011D
:100FB0008D018E018F019201930198019A019F0189
:100FC00042018C018D018E018F01900192015430FC
:100FD0009300563094009501960197019801D43002
:100FE00091004E018D109714A4304001A0000D30E7
:100FF000A1008D31E025080090340634013400341E
:101B48000800080008008F31012708004E018F1097
:101B5800080040015D0808004001540808004001E1
:101B6800D701D70A080042011D121D1608000130CE
:101B78008E31AC2608004001640803190800BF2D07
:101B880001304001D1070030D23D08004001520821
:101B9800A1005108A0000800C4304001A0000D3089
:101BA800A1008D31FB25080040016D08BC006C08C0
:101BB800BB008331DC230800400121084101D1002A
:101BC800400120084101D0000800400121084101DE
:101BD8008F004001200841018E0008004001A0004C
:101BE800200841019F00420191171114080040018B
:101BF80021084101D300400120084101D20008001A
:101C08004001580803190B2ED80101300800003094
:101C18000800400121084101D50040012008410188
:101C2800D4000800400121084101D90040012008E2
:101C38004101D8000800400121084101D7004001B6
:101C480020084101D6000800400121084101DB00BD
:101C5800400120084101DA00080040012108410143
:101C6800DD00400120084101DC000800603051011E
:101C78008D008F01910106309300920108004F01F9
:101C880096019701980199019A019B019C019D0178
:101C980008006400800101310130FE020030FF3B82
:101CA8007F087E04031900344E2E4E018D10410129
:101CB800500851040319080051088A0050080A0006
:101CC8008E3108004E018C12410152085304031949
:101CD800080053088A0052080A008E3108000430B0
:101CE800F60076084001E2070130E302031D812E69
:101CF8000430F6007608E4000800E401E40A08006D
:101D080040016B08A1006A08A0008D31E9258E31D9
:101D1800B3304001A0000D30A1008D31E0258E3197
:101D28000F308D31F225080045304B019F00F93006
:101D38009D009C014E018C129616A6304001A00011
:101D48000D30A1008D31FB2580304B019E0008002D
:101D58004001B40034080319BA2EAE01AE0A24308B
:101D68008F3182274001DD01DD0A0800AE012430F1
:101D78008F3182274001DD01080040016C036D04AA
:101D8800031DCB2E0030EC000230ED00CF2E0130C9
:101D9800EC020030ED3B6D08BC006C08BB008331E1
:101DA800DC2308008E3143268E31873104278E319B
:101DB8008E313A268E318F3130278E318731D627B2
:101DC8008E318E3198268E31853169250800023092
:101DD80040016D066C04031DF62E0130EC00003046
:101DE800ED00FA2E0130EC070030ED3D6D08BC0027
:101DF8006C08BB008331DC23080042011908F60097
:101E08007108A83E86008701760881000130F60037
:101E18007608F107083071020318F1010130F60065
:101E280076084001E6070800F70043011115400154
:101E38006108023E86008701010803192E2F7708E2
:101E4800F6006108023E86008701010886008701C6
:101E580076088100E401080067304001A0002008EE
:101E6800C7006730A0002008C600C8144810CA017F
:101E780043018F0128309000920150308D004E01AF
:101E88000F108F101914991408004001BA00340873
:101E9800A43E840084300318013E85000008B70082
:101EA8003508B8000630B835FF3E031D572F3835C2
:101EB8003704B9003908AE003A08343E8F3182271A
:101EC8000800083040016E0203187F2F7208B03EE8
:101ED80086008701010842019A000130F600760861
:101EE800F207083072020318F2010130F600760892
:101EF8004001EE0708004E01191208004001B20027
:101F08000230AF002F08B300A701A70A3208AF00BC
:101F1800B0012F08A8003008A9003330B1003108FB
:101F2800AA002E308731AF278F31023040013306A7
:101F3800031D0800992F4001A400240886000130E1
:101F480087002008C03F2108C13F2208A3002408B9
:101F5800023E860001308700230881002408033EE2
:101F680086000130870081012408053E8600013083
:101F78008700810108004001A6002308A500220867
:101F8800A400A435A50D2608860087012408C03FB3
:101F98002508C13F2108A4002608023E86008701C3
:101FA800240881002008A4002608033E8600870133
:101FB8002408810008004001A3002308053E86008C
:101FC800013087000103031DF42F2308053E860016
:101FD8000130870081010130A0000030A100080015
:101FE8002308053E860001308700023001060319E8
:081FF800EF2FA001A101080078
:020000040001F9
:0A000E00EC3FFF3F9F3FFF3FFF3F25
:00000001FF
