:020000040000FA
:0400000080313328F0
:100008007E1480314E01961A8C1E0E2887310927DE
:10001800803131280B1F312899188F1C17288731F8
:1000280091278031312819180F1C1E28803167202C
:1000380080313128191A0F1E282840016A088A00C1
:1000480069080A0080313128991A8F1E3128410128
:100058005F088A005E080A0080317E10090080313E
:100068003528873197278031EC00873198278031F0
:10007800ED00EF308400253085000130FE000230AD
:10008800FF00873116278031F001F101F201F301F9
:10009800F401F50120308400003085002830FE008E
:1000A8000030FF00873116278031A03084000030EF
:1000B80085003830FE000030FF00873116277E109B
:1000C80040018531772D4E010F104301901F832980
:1000D80090134001C2013F08023E860087010108D3
:1000E800860087018101810ABF010800AA1808005B
:1000F8002908F8007808BF00290886008701010848
:10010800F8007808C100290886008701413FC0002F
:100118000330F8007808A9072908483A031D9828E9
:100128004530F8007808A9002A102908280603197C
:10013800AA14430111140230F80078084001C200E3
:1001480008002C294301111FB2280130F800780853
:100158004001AC0704308631502608007508F900C4
:100168007408F800F936F80C78088C00741CC2285A
:100178000B30F80078084001C20008000330F8008E
:1001880078084001C20008004301111FD42801303B
:10019800F80078084001AC07043086315026080082
:1001A80091147508F9007408F8007908F800F90145
:1001B80006307805FA0000307905FB00F0307A0443
:1001C800F40000307B04F50074144001BC01BC0A43
:1001D8009F283C0303190129400886008701403FF6
:1001E800F400413FF500400886008701433FBE0008
:1001F800400886008701423FBD00740843018C0017
:10020800741CC2280530F80078084001C2000800B4
:100218004301111F1A290130F80078084001AC0782
:100228004301111305308631502608000130400182
:10023800BD023D0A031D2F290430F8007808C007C5
:100248000130C102031D2C290030863150260800D8
:10025800430191149F283E08860087010108430145
:100268008C000130F80078084001BE0708004301FF
:10027800111F49290130F80078084001AC07043003
:100288008631502643011113080091150830F800F3
:1002980078084001C20008000830F8007808C20059
:1002A80043019115080043010C08F80040013E087D
:1002B80086008701780881000130F8007808BE07B9
:1002C8000130BD0203197029430191120630F8006C
:1002D80078084001C2007429430191168631F82636
:1002E80043011116080000308631502608000130FD
:1002F800F8007808AC07063086315026080040011F
:100308004208F800F9017908003A03198C297B2979
:100318007808003A03197A28013A0319A528033AFC
:100328000319ED28013A03190C29073A031977290B
:10033800013A03193B29033A03195029013A0319D1
:1003480077290F3A03195729023A0319A628013ABF
:100358000319C8287B29080087317C27813140018F
:100368004908CF004808CE002D084E02CA002E08C2
:100378004F3BCB0000304B02323003194A02031CBA
:1003880008004F08AE004E08AD00CD014D08CA0068
:100398000230CA35FF3E031DCD294A35B03ECB0099
:1003A8004B08D200520886008701403FCA00413FEF
:1003B800CB004A0886004B0887000130CC00520861
:1003C800023E84008501000AEA29CC35890BE92917
:1003D8004C080105031DF7295208033E86008701D2
:1003E8008101810AFC295208033E860087018101A8
:1003F8005208033E860087010108031D112A52088E
:10040800043E860087010103031D112A5208053E98
:10041800860087018101810A542A5208033E86001A
:1004280087010103031D3E2A5208043E8600870106
:100438000103031D3E2A5208063E86008701403FFD
:100448004E02D000413F4F3BD1005108803ACA00CC
:1004580081304A02031D322AF5305002031C542A07
:1004680002304001CA005208053E860087014A084A
:100478008100542A5208033E860087010103031DA8
:10048800542A5208043E860087010108031D542A95
:100498005208063E860087014E08C03F4F08C13FFC
:1004A80040015208033E860087010108CA0052082D
:1004B800043E860087014A0881000130CA004A08C4
:1004C800CD0704304D0203180800CA29273040011F
:1004D8006502103003196402031CA12A4530E600A6
:1004E8006608DC000030DD00DE000030853129259B
:1004F800823145304001E6006608DC000030DD004E
:10050800DE00013085312925823145304001E60081
:100518006608DC000030DD00DE0002308531292568
:10052800823145304001E6006608DC000030DD001D
:10053800DE0003308531292508004101E201E3018D
:10054800E201E3010A304001C8000030C900650833
:10055800CB006408CA008431A824823140014908CC
:100568004101E100400148084101E0006008303ED7
:100578004001E6006608DC000030DD00DE004101D5
:100588006208033C8531292582310A304001C800C0
:100598000030C9006508CB006408CA0084311424FF
:1005A800823140014908E5004808E4000130410172
:1005B800E2070030E33D6308803A4001E6008030FE
:1005C8006602031DEA2A043041016202031808008A
:1005D800A62A003482342134003400340034003434
:1005E800023439340F340034003400344034803459
:1005F80000343F3406345B344F3466346D347D3414
:1006080007347F346F340034003400344834003405
:100618005334003477347C3439345E34793471346B
:100628006F34763406341E3400343834003454348D
:100638003F347334673450346D3478343E34003486
:10064800003400346E340034393400340F3400344C
:10065800083463345F347C3458345E347B3471340A
:100668006F34743402341E34003406340034543485
:100678005C347334673450346D3478341C3400344B
:10068800003400346E340034393430340F340034DC
:1006980000344001CB002A18812B0230CA004908D7
:1006A800860087014A0881004808CA00280A86008F
:1006B80087014A0881004B08CA002808860087017C
:1006C8004A0881004908CA002808023E86008701B6
:1006D8004A0881000330CA004A08A8072808483A8F
:1006E800031D7A2B4530CA004A08A800AA10290819
:1006F8002806031D862B2A14862B490886008701A5
:100708008101810A49088600870102300106031D1C
:100718000800873188274E010F1408004E019912EE
:1007280049304001C8000430C9008731352783317A
:100738004E011912FE304001C8000530C90087314A
:1007480070278331083042019F0090309D000430AB
:100758009E001F309B009C019A304001C800073062
:10076800C9008731472783318D304001C8000730E1
:10077800C90087313E27833194304001C8000730D3
:10078800C900873150274001C301F301F201083045
:10079800CA004A08EB00F101F001C4014E019916A4
:1007A8000800B0304001CD004D08B700B830CD008A
:1007B8004D08BA00C030CD004D08B900C830CD0092
:1007C8004D08B8000E30C8000030C9000230CD0016
:1007D8004D08CA00370886311B2683310C3040018A
:1007E800C8000030C9000230CD004D08CA003808E2
:1007F80086311B2683310E304001C8000030C90005
:10080800CA01390886311B2683310E304001C800E1
:100818000030C900CA01CA0A3A0886311B260800F6
:100828004001CE01CF01480849040319442CCD01E9
:10083800CD0AC91B292C0130C835C90D890B202CBC
:100848000130CC004C08CD071D2C0130CE35CF0D22
:10085800890B2A2C49084B02031D342C48084A02EC
:10086800031C3B2C4808CA024908CB3B4E140130F4
:10087800C936C80C890B3C2C0130CD02031D292C2C
:100888004F08C9004E08C80008007108203E8600BD
:100898008701810142011D1D5C2C7108203E8600E4
:1008A8008701811441015D088A005C080A008431CF
:1008B80042019D1C6A2C7108203E860087010115A3
:1008C80041015B088A005A080A0084317108203EF9
:1008D8008600870101080319782C410159088A000C
:1008E80058080A008431080086316826080040014B
:1008F800980199019A013F309200F0309300FF303F
:100908009400F8307E01CE00E030C3000330B80018
:10091800C4010430B9000730CF00BA01C501D001C5
:100928003730BB00F030C600FF30D10005307D0104
:10093800C50014307E0194001330950004307D0109
:10094800C6000C30CB0008004001480849040319D0
:10095800D02CCD01CD0AC91BBB2C0130C835C90D1F
:10096800890BB22C0130CC004C08CD07AF2C4908BC
:100978004B02031DC12C48084A02031CC72C480817
:10098800CA024908CB3B0130C936C80C890BC82CB0
:100998000130CD02031DBB2C4B08C9004A08C80012
:1009A800080040013A0886319526843140014808FC
:1009B80049040319E22C86317F260800390886315C
:1009C800952684314001480849040319EE2C8631E4
:1009D800AB2608003A088631E626843140014808EB
:1009E8004904031DDF2C39088631E626843140018D
:1009F8004808490403190800EB2C40019413141308
:100A0800141294110130450190008E1746018E177B
:100A18000E08F0390C388E0092171208F0390C388D
:100A2800920096171608F0390C3896009A171A088B
:100A3800F0390C389A0009307E01A7000A30A60068
:100A48000B30A4000C30A30008004001E2005C0851
:100A5800CD3E840082300318013E85000008DF0087
:100A68005F08E3005C08CD3E840082300318013E35
:100A780085000008DF005D08E0000630E035FF3E35
:100A8800031D422D60355F04E1006108D60062084D
:100A9800343E8531E12508004001D5002A18712D22
:100AA8005508D3005308C8004F08D4005408C9009B
:100AB8005108CB005008CA00D4308531C125853192
:100AC800D4304001D3005308C8005208D400540859
:100AD800C900013083314D23080052088600870180
:100AE8008101810A08008631D426853185310125A6
:100AF80085318731612785314001131319139C30E3
:100B0800C8000530C9008731352785318B170B1789
:100B18008731692785318331D52385318731592735
:100B280085318131B02185318431D5248531952DA8
:100B380040011917191342011D1DA62D4001B501C9
:100B4800B601AB2D01304001B5070030B63DEF309E
:100B5800F6002530F70035087607F8003608773DA7
:100B6800F900780886007908870042011908810091
:100B78009D1C08001D121D1608004001CE004B08E0
:100B8800CD004A08CC00CC35CD0D4E088600870133
:100B98004C08C03F4D08C13F4908CC004E08023EF2
:100BA800860087014C0881004808CC004E08033EA7
:100BB800860087014C08810008004001DA000230F5
:100BC800D7005708DB00CF01CF0A5A08D700D80151
:100BD8005708D0005808D1005B30D9005908D20016
:100BE8005630853150258531023040015B06031DA2
:100BF8000800F82D083040016B020318182E7208FF
:100C0800A83E86008701010842019A000130F600DB
:100C18007608F207083072020318F2010130F60074
:100C280076084001EB0708004E0119120800400140
:100C3800CC004C08860087014808C03F4908C13FDE
:100C48004A08CB004C08023E860087014B08810009
:100C58004C08033E8600870181014C08053E86004A
:100C680087018101080045304001C8004808A900F3
:100C78004530C8004808A800AA142A10AC0143014E
:100C88008F0128309000920150308D004E010F10D6
:100C98008F10191499140800F70043011115400129
:100CA8003F08023E8600870101080319662E77086F
:100CB800F6003F08023E860087010108860087018A
:100CC80076088100C201080042011908F60071087F
:100CD800A03E86008701760881000130F60076087C
:100CE800F107083071020318F1010130F6007608A7
:100CF8004001C4070800023040016D066C04031D62
:100D08008A2E0130EC000030ED008E2E0130EC0709
:100D18000030ED3D6D08E5006C08E40082316A2280
:100D280008004001CB004B08053E860087010103FF
:100D3800031DA82E4B08053E86008701810101305E
:100D4800C8000030C9000800C801C90108004001F6
:100D58006C036D04031DB52E0030EC000230ED006D
:100D6800B92E0130EC020030ED3B6D08E5006C084F
:100D7800E40082316A22080045304B019F00F930B7
:100D88009D009C014E018C12961699304001C800B6
:100D98000730C9008731762780304B019E00080054
:100DA80087312227863184317B24863187312C276D
:100DB80086318631372686318631C02686318331A1
:100DC800922308004001CB004B08053E86008701AE
:100DD80002300106031DF52E0130C8000030C9009D
:100DE8000800C801C90108000430F600760840016F
:100DF800C0070130C102031D062F0430F600760833
:100E0800C2000800C201C20A08004E018C1240014B
:100E1800670868040319080068088A0067080A0058
:100E2800873108006400800101310130FE02003082
:100E3800FF3B7F087E0403190034172F4F019601EA
:100E48009701980199019A019B019C019D01080055
:100E5800603051018D008F0191010630930092019D
:100E68000800400149084101DF00400148084101EC
:100E7800DE000800400149084101DB004001480844
:100E88004101DA000800400149084101DD00400144
:100E980048084101DC000800400149084101D90027
:100EA800400148084101D800080040016D08E500EC
:100EB8006C08E40082316A22080082304001C800D0
:100EC8000730C9008731762708004001D601D60AC5
:100ED80024308531E125080040014908EA00480826
:100EE800E900080040014908E8004808E700080050
:100EF80040013208C9003108C8000800013040012B
:100F0800B1070030B23D080040014208031908004B
:100F1800882F42011D121D1608004E018F1008006F
:0E0F28008631682608000134003408000800F5
:020000040001F9
:0A000E00EC3FFF3F9F3FFF3FFF3F25
:00000001FF
