:020000040000FA
:10000000803139280A3400347E1480314E01961A2A
:100010008C1E0E288E31DF26803137280B1F3728A3
:1000200099188F1C17288E312226803137281918ED
:100030000F1C1E288031892080313728191A0F1E85
:10004000282841015B088A005A080A0080313728B5
:10005000991A8F1E3228410159088A0058080A004F
:100060008031372897188D1C37288E31D2267E1084
:10007000090080313B288E3134268031EA008E31F0
:1000800035268031EB008E3136268031EC008E3102
:1000900037268031ED004101803102208031DC00C3
:1000A000803103208031DD00EF3084002530850071
:1000B0000130FE000230FF008E31C6268031F00193
:1000C000F101F201F301F401F50146308400003042
:1000D00085002430FE000030FF008E31C6268031BE
:1000E000A0308400003085002E30FE000030FF007C
:1000F0008E31C626803120308400013085002030CA
:10010000FE000030FF008E31C6267E104001853192
:10011000B92D4E010F104301901FA52990134001E6
:10012000E4016108023E860087010108860087011C
:100130008101810AE1010800C81808004708F80099
:100140007808E1004708860087010108F800780870
:10015000E300470886008701413FE2000330F800D2
:100160007808C70747086A3A031DBA286730F800BD
:100170007808C7004810470846060319C814430109
:1001800011140230F80078084001E40008004E29FC
:100190004301111FD4280130F80078084001CA0734
:1001A00004308731E82708007508F9007408F80062
:1001B000F936F80C78088C00741CE4280B30F80031
:1001C00078084001E40008000330F8007808400196
:1001D000E40008004301111FF6280130F8007808F8
:1001E0004001CA0704308731E827080091147508D8
:1001F000F9007408F8007908F800F901063078056C
:10020000FA0000307905FB00F0307A04F400003089
:100210007B04F50074144001DE01DE0AC1285E0390
:1002200003192329620886008701403FF400413FFB
:10023000F500620886008701433FE00062088600FF
:100240008701423FDF00740843018C00741CE428DE
:100250000530F80078084001E40008004301111F50
:100260003C290130F80078084001CA074301111306
:1002700005308731E827080001304001DF025F0ABE
:10028000031D51290430F8007808E2070130E30229
:10029000031D4E2900308731E827080043019114DF
:1002A000C128600886008701010843018C000130E5
:1002B000F80078084001E00708004301111F6B298E
:1002C0000130F80078084001CA0704308731E82778
:1002D00043011113080091150830F8007808400117
:1002E000E40008000830F8007808E40043019115A4
:1002F000080043010C08F8004001600886008701EF
:10030000780881000130F8007808E0070130DF024A
:1003100003199229430191120630F8007808400130
:10032000E4009629430191168E31EC264301111603
:10033000080000308731E82708000130F80078080D
:10034000CA0706308731E827080040016408F80032
:10035000F9017908003A0319AE299D297808003A75
:1003600003199C28013A0319C728033A03190F29D6
:10037000013A03192E29073A03199929013A031959
:100380005D29033A03197229013A031999290F3A91
:1003900003197929023A0319C828013A0319EA28EE
:1003A0009D2908008E314326813140012108A70094
:1003B0002008A6004101420840012602A200410196
:1003C00043084001273BA3000030230232300319C9
:1003D0002202031C080027084101C300400126082F
:1003E0004101C2004001A5012508A2000230A2354A
:1003F000FF3E031DF7292235203EA3002308A80055
:100400002808860001308700403FA200413FA3003A
:1004100022088600230887000130A4002808023E35
:10042000840001308500000A162AA435890B152A9C
:1004300024080105031D242A2808033E86000130F4
:1004400087008101810A2A2A2808033E860001309C
:10045000870081012808033E8600013087000103E0
:10046000031D4B2A2808043E86000130870001083E
:10047000031D4B2A2808053E8600013087008101B4
:10048000810A2808063E8600013087002608C03F02
:100490002708C13F8D2A2808033E860001308700C7
:1004A0000103031D772A2808043E860001308700D7
:1004B0000103031D772A2808063E860001308700C5
:1004C000403F2602A200413F273BA3000130230208
:1004D000F53003192202031C8D2A0230A2002808DD
:1004E000053E860001308700220881008D2A2808F9
:1004F000033E8600013087000108031D8D2A28086D
:10050000043E8600013087000103031D8D2A280860
:10051000053E86000130870081012808033E8600E1
:10052000013087000108A2002808043E860001303F
:100530008700220881000130A2002208A5070430AC
:10054000250203180800F4298E3125268231003A4D
:10055000031D08008E314326823141013A084001D3
:100560002002A80041013B084001213BA9004101B4
:100570005D0840012902031DC12A41015C084001B8
:100580002802031C08008E314326823140012108D5
:100590004101BB00400120084101BA00400156035F
:1005A000031DD82A01304101B8070030B93DDF2AC8
:1005B0004101B801B9011430DC000030DD00400118
:1005C0005603031D1F2B5508031D1F2BD701D70AE8
:1005D00064304101DC000030DD008E314326823181
:1005E00040014B082002AA004C08213BAB008E3191
:1005F0004326823140012108CC002008CB00003086
:100600002B02963003192A0203180C2B903041015B
:10061000BC000130BD001F2B2B08A1002A08A00040
:100620006030A200EA30A30086312C2682314001DE
:1006300021084101BD00400120084101BC004001EA
:100640005608A8002808D500D60141013908803A8B
:100650004001A80080302802031D312B04304101E5
:100660003802031C4A2B01304001EA070030EB3D01
:100670006B08A1006A08A0008E3162268231410118
:10068000B801B9018E31432640012108CC00200871
:10069000CB0008008E314326823140014B082002F6
:1006A000A8004C08213BA90003302902E9300319B6
:1006B0002802031C08000130EA020030EB3B6B0803
:1006C000A1006A08A0008E31622608002730400190
:1006D0003C02103003193B02031C9D2B4530BD002A
:1006E0003D08B4000030B500B60000308F31AA27B5
:1006F000833145304001BD003D08B4000030B500F5
:10070000B60001308F31AA27833145304001BD004A
:100710003D08B4000030B500B60002308F31AA2782
:10072000833145304001BD003D08B4000030B500C4
:10073000B60003308F31AA270800C001C101C001F3
:10074000C1010A304001A0000030A1003C08A30014
:100750003B08A2008631C026833140012108BF003A
:100760002008BE003E08303EBD003D08B400003009
:10077000B500B6004008033C8F31AA2783310A3008
:100780004001A0000030A1003C08A3003B08A200EB
:1007900086312C26833140012108BC002008BB0093
:1007A0000130C0070030C13D4108803ABD008030B3
:1007B0003D02031DDD2B0430400203180800A12B6D
:1007C0008E314326833140012108C5002008C40032
:1007D0004101400840014402C2004101410840017A
:1007E000453BC30000304302233003194202031C7F
:1007F000080045084101C100400144084101C00012
:1008000040015B088731872783314001200821049C
:100810000319192C8F3164278331400145084101A8
:10082000BF00400144084101BE0001308F3125273F
:1008300008005A08873187278331400120082104A6
:100840000319312C8F313A2783314001450841018A
:10085000BF00400144084101BE0001308F3125270F
:1008600008008E314326833141013E0840012002B9
:10087000C20041013F084001213BC3001330430245
:10088000883003194202031C080000308F312527ED
:1008900083318E31432640012008773E4101BE005E
:1008A000EC304001213D4101BF000800003482349A
:1008B00021340034003400340034023439340F342D
:1008C0000034003400344034803400343F34063483
:1008D0005B344F3466346D347D3407347F346F3489
:1008E0000034003400344834003453340034773456
:1008F0007C3439345E34793471346F347634063470
:100900001E3400343834003454343F347334673484
:1009100050346D3478343E340034003400346E3456
:100920000034393400340F340034083463345F3415
:100930007C3458345E347B3471346F347434023414
:100940001E3400340634003454345C347334673459
:1009500050346D3478341C340034003400346E3438
:100960000034393430340F34003400344001A300F3
:100970004818EA2C0230A2002108860087012208CC
:1009800081002008A200460A860087012208810013
:100990002308A2004608860087012208810021085A
:1009A000A2004608023E860087012208810003302B
:1009B000A2002208C60746086A3A031DE32C6730E6
:1009C000A2002208C600C81047084606031DEF2CE7
:1009D0004814EF2C2108860087018101810A210833
:1009E0008600870102300106031D08008E3138267B
:1009F0004E010F1408004E01991261304001A00011
:100A00000630A1008E31A12684314E011912C63064
:100A10004001A0000F30A1008E31AA268431083099
:100A200042019F0090309D0004309E001F309B00CB
:100A30009C011D304001A0000E30A1008E318F2698
:100A400084312C304001A0000E30A1008E31982658
:100A500084311F304001A0000E30A1008E31862667
:100A60004001E501F301F2010830A2002208EE0086
:100A7000F101F001E6014E01991608002030400115
:100A8000A5002508D8002830A5002508DB00303057
:100A9000A5002508DA003830A5002508D9000E3059
:100AA000A0000030A1000230A5002508A2005808CF
:100AB0008731C82785310C304001A0000030A100EB
:100AC0000230A5002508A20059088731C8278531C2
:100AD0000E304001A0000030A100A2015A08873169
:100AE000C82785310E304001A0000030A100A201CE
:100AF000A20A5B088731C82708004001B50003102F
:100B0000B50C0310A00C0310A20C0310A10C3508A7
:100B1000A300A4012308A7002408A8002008A3001C
:100B2000A4012308AB002408AC002208A300A40100
:100B30002308AF002408B0002108A300A401230863
:100B4000B3002408B40046018D0140012708460186
:100B50008C00910140012B08460190009501400155
:100B60002F0846019400990140013308460198007E
:100B700008008F314F2785318E314926853140015C
:100B8000131319136230A0000730A1008E31A12683
:100B900085318B170B1715304101DF004B30DE001C
:100BA000BE30890BD12DDE0BD12DDF0BD12D0000F6
:100BB0008E313026853185313E2585318E31512665
:100BC00085318631ED2685318E31FD2685318231A4
:100BD000A42285318531F42585318131D2218531B9
:100BE0008331E0238531E72D8E3143268531400165
:100BF0002108BA002008B9004F083902B600500891
:100C00003A3BB70000303702643003193602031C48
:100C100008003A08D0003908CF008E317D26853192
:100C2000003A0319242EFF304001B6003608A00018
:100C3000FF30B7003708A100FF30B8003808A20025
:100C4000FF3085317D2508004001A001A101A201EE
:100C5000003085317D2508004001A601A70120084C
:100C6000210403195C2EA501A50AA11B412E013008
:100C7000A035A10D890B382E0130A4002408A5074A
:100C8000352E0130A635A70D890B422E21082302EF
:100C9000031D4C2E20082202031C532E2008A20202
:100CA0002108A33B26140130A136A00C890B542E39
:100CB0000130A502031D412E2708A1002608A0002F
:100CC00008007108A03E86008701810142011D1DB8
:100CD000742E7108A03E86008701811441015708D7
:100CE0008A0056080A00863142019D1C822E710836
:100CF000A03E860087010115410155088A0054086D
:100D00000A0086317108A03E860087010108031998
:100D1000902E410153088A0052080A0086310800CB
:100D20008F317A2708004001980199019A013F30DC
:100D30009200F0309300FF309400F8307E01CE0036
:100D4000E030C3000330B800C4010430B9000730FC
:100D5000CF00BA01C501D0013730BB00F030C6006A
:100D6000FF30D10005307D01C50014307E019400B4
:100D70001330950004307D01C6000C30CB00080014
:100D80004001200821040319E82EA501A50AA11B92
:100D9000D32E0130A035A10D890BCA2E0130A4003D
:100DA0002408A507C72E21082302031DD92E2008D9
:100DB0002202031CDF2E2008A2022108A33B0130DF
:100DC000A136A00C890BE02E0130A502031DD32E05
:100DD0002308A1002208A000080040019413141366
:100DE000141294110130450190008E1746018E17A0
:100DF0000E08F0390C388E0092171208F0390C38B2
:100E0000920096171608F0390C3896009A171A08AF
:100E1000F0390C389A0009307E01A7000A30A6008C
:100E20000B30A4000C30A30008004001AD004818AE
:100E3000362F2D08AB002B08A0002708AC002C088B
:100E4000A1002908A3002808A200CA308731A827DA
:100E50008731CA304001AB002B08A0002A08AC0043
:100E60002C08A10001308431B62408002A0886002D
:100E700087018101810A080041018C018D018E01E9
:100E80008F019201930198019A019F0142018C0107
:100E90008D018E018F0190019201543093005630E4
:100EA00094009501960197019801D43091004E016C
:100EB0008D1097141C304001A0000E30A1008E311F
:100EC0005926080040011917191342011D1D6C2FE6
:100ED0004001D301D401712F01304001D30700300C
:100EE000D43DEF30F6002530F70053087607F800C0
:100EF0005408773DF9007808860079088700420198
:100F0000190881009D1C08001D121D1608004001D3
:100F1000A3002308053E8600013087000103031D5E
:100F20009C2F2308053E8600013087008101013097
:100F3000A0000030A10008002308053E8600013013
:100F40008700023001060319972FA001A1010800B4
:100F50004001A6002308A5002208A400A435A50D81
:100F60002608860087012408C03F2508C13F2108C4
:100F7000A4002608023E860087012408810020087C
:100F8000A4002608033E860087012408810008008B
:100F90004001A40024088600013087002008C03FDB
:100FA0002108C13F2208A3002408023E8600013028
:100FB0008700230881002408033E86000130870053
:100FC00081012408053E8600013087008101080068
:100FD000F7004301111540016108023E86008701B8
:100FE00001080319FE2F7708F6006108023E86000B
:100FF000870101088600870176088100E401080066
:101C38000800080008008F317A2708004E018F102D
:101C4800080040015C0808004001D601D60A0800D7
:101C580042011D121D16080001308F31252708008A
:101C68009034063401340034400164080319080034
:101C7800382E01304001CD070030CE3D080040012C
:101C88004E08A1004D08A00008003D304001A0000A
:101C98000E30A1008E317426080040016D08BC008A
:101CA8006C08BB008331662308004001210841010C
:101CB800CF00400120084101CE0008004001210862
:101CC80041018F004001200841018E0008004001B9
:101CD800A000200841019F0042019117111408003B
:101CE800400121084101D100400120084101D000F4
:101CF8000800400157080319842ED7010130080055
:101D080000300800400121084101D30040012008AB
:101D18004101D2000800400121084101D7004001DB
:101D280020084101D6000800400121084101D500E2
:101D3800400120084101D400080040012108410168
:101D4800D900400120084101D800080040012108BD
:101D58004101DB00400120084101DA000800603041
:101D680051018D008F019101063093009201080006
:101D78004F0196019701980199019A019B019C01D5
:101D88009D0108006400800101310130FE0200302D
:101D9800FF3B7F087E0403190034C72E4E018D10C7
:101DA80041014E084F04031908004F088A004E08E5
:101DB8000A008E3108004E018C124101500851046E
:101DC8000319080051088A0050080A008E310800DB
:101DD8000430F60076084001E2070130E302031DF3
:101DE800FA2E0430F6007608E4000800E401E40A5C
:101DF800080040016B08A1006A08A0008E31622625
:101E08008E3128304001A0000E30A1008E315926B5
:101E18008E310F308E316B26080045304B019F0004
:101E2800F9309D009C014E018C1296161E3040011F
:101E3800A0000E30A1008E31742680304B019E0028
:101E480008004001B40034080319332FAE01AE0A6C
:101E580024308F31E3274001DC01DC0A0800AE01A1
:101E680024308F31E3274001DC01080040016C0376
:101E78006D04031D442F0030EC000230ED00482FA4
:101E88000130EC020030ED3B6D08BC006C08BB0073
:101E98008331662308008E31BC268F318631932624
:101EA8008F318E31B3268F318F3191278F31873122
:101EB8003C278F318F3111278F318431FB24080063
:101EC800023040016D066C04031D6F2F0130EC00D9
:101ED8000030ED00732F0130EC070030ED3D6D0848
:101EE800BC006C08BB008331662308004201190856
:101EF800F6007108A83E8600870176088100013047
:101F0800F6007608F107083071020318F101013074
:101F1800F60076084001E607080067304001A00097
:101F28002008C7006730A0002008C600C814481061
:101F3800CA0143018F0128309000920150308D0072
:101F48004E010F108F101914991408004001BA009F
:101F58003408363E840084300318013E85000008AA
:101F6800B7003508B8000630B835FF3E031DB82F56
:101F780038353704B9003908AE003A08343E8F3195
:101F8800E3270800083040016E020318E02F7208AA
:101F9800B03E86008701010842019A000130F60030
:101FA8007608F207083072020318F2010130F600D1
:101FB80076084001EE0708004E011912080040019A
:101FC800B2000230AF002F08B300A701A70A3208F9
:101FD800AF00B0012F08A8003008A9003330B100C5
:101FE8003108AA002E30873115278F310230400181
:081FF8003306031D0800FA2F57
:020000040001F9
:0A000E00EC3FFF3F9F3FFF3FFF3F25
:00000001FF
