:020000040000FA
:1000000080313328080008007E1480314E01961A92
:100010008C1E0E2887317327803131280B1F312821
:1000200099188F1C17288F31FD2780313128191816
:100030000F1C1E288031652080313128191A0F1EAF
:100040002828410165088A0064080A0080313128A7
:10005000991A8F1E3128410163088A0062080A003C
:1000600080317E100900803135288731FE278031AC
:10007000FA008731FF278031FB00EF308400253004
:1000800085000130FE000230FF008731802780317B
:10009000F601F701F801F9014730840000308500CE
:1000A0002630FE000030FF00873180278031A030ED
:1000B0008400003085003C30FE000030FF008731B6
:1000C00080277E1040018231E12A4E010F1043014A
:1000D000901F812990134001E1015E08023E8600D5
:1000E00087010108860087018101810ADE0108007D
:1000F000C91808004808F2007208DE0048088600A7
:1001000087010108F2007208E000480886008701B4
:10011000413FDF000330F2007208C80748086D3A1B
:10012000031D96286A30F2007208C800491048087A
:1001300047060319C914430111140230F200720872
:100140004001E10008002A294301111FB0280130B5
:10015000F20072084001CB0704308631E226080025
:100160007908F3007808F200F336F20C72088C007C
:10017000781CC0280B30F20072084001E100080032
:100180000330F20072084001E10008004301111F32
:10019000D2280130F20072084001CB0704308631CA
:1001A000E226080091147908F3007808F200730839
:1001B000F200F30106307205F40000307305F5001B
:1001C000F0307404F80000307504F9007814400130
:1001D000DB01DB0A9D285B030319FF285F0886000B
:1001E0008701403FF800413FF9005F088600870122
:1001F000433FDD005F0886008701423FDC0078084E
:1002000043018C00781CC0280530F20072084001C0
:10021000E10008004301111F18290130F2007208A3
:100220004001CB074301111305308631E226080057
:1002300001304001DC025C0A031D2D290430F2006C
:100240007208DF070130E002031D2A2900308631E1
:10025000E2260800430191149D285D08860087016D
:10026000010843018C000130F20072084001DD07F3
:1002700008004301111F47290130F20072084001B4
:10028000CB0704308631E226430111130800911593
:100290000830F20072084001E10008000830F20066
:1002A0007208E10043019115080043010C08F200B7
:1002B00040015D0886008701720881000130F2006C
:1002C0007208DD070130DC0203196E294301911227
:1002D0000630F20072084001E100722943019116D4
:1002E0008731622743011116080000308631E2266B
:1002F00008000130F2007208CB0706308631E22692
:10030000080040016108F200F3017308003A031984
:100310008A2979297208003A03197828013A0319C1
:10032000A328033A0319EB28013A03190A29073ACB
:1003300003197529013A03193929033A03194E297A
:10034000013A031975290F3A03195529023A03197D
:10035000A428013A0319C628792908008731E9271A
:10036000813140012108A7002008A6004C08260280
:10037000A2004D08273BA3000030230232300319AE
:100380002202031C08002708CD002608CC00A50186
:100390002508A2000230A235FF3E031DCB292235DD
:1003A000B83EA3002308A800280886008701403F24
:1003B000A200413FA30022088600230887000130E5
:1003C000A4002808023E84008501000AE829A4351B
:1003D000890BE72924080105031DF5292808033E98
:1003E000860087018101810AFA292808033E8600D8
:1003F000870181012808033E860087010103031D50
:10040000172A2808043E860087010108031D172AC1
:100410002808053E860087018101810A2808063EDA
:10042000860087012608C03F2708C13F522A2808B6
:10043000033E860087010103031D3F2A2808043E6E
:10044000860087010103031D3F2A2808063E860017
:100450008701403F2602A200413F273BA300013015
:100460002302F53003192202031C522A0230A20093
:100470002808053E8600870122088100522A2808A4
:10048000033E860087010108031D522A2808043E06
:10049000860087010103031D522A2808053E8600B5
:1004A000870181012808033E860087010108A20018
:1004B0002808043E86008701220881000130A2003E
:1004C0002208A5070430250203180800C829273090
:1004D00040013D02103003193C02031C9E2A4530A6
:1004E000BE003E08B4000030B500B60000308531D3
:1004F000C225823145304001BE003E08B4000030C4
:10050000B500B60001308531C22582314530400149
:10051000BE003E08B4000030B500B60002308531A0
:10052000C225823145304001BE003E08B400003093
:10053000B500B60003308531C2250800C101C201F3
:10054000C101C2010A304001A0000030A1003D08F5
:10055000A3003C08A20085316D25823140012108AD
:10056000C0002008BF003F08303EBE003E08B40077
:100570000030B500B6004108033C8531C225823108
:100580000A304001A0000030A1003D08A3003C0853
:10059000A2008431A824823140012108BD00200836
:1005A000BC000130C1070030C23D4208803ABE00A5
:1005B00080303E02031DDE2A043041020318080089
:1005C000A22A87315027823185319A25823187319D
:1005D000D42782314001131319131030A0000630C4
:1005E000A1008731A82782318B170B178731DC27B1
:1005F000823184312D2482318731CC278231F13010
:100600004201A0002530A1007A08200786007B085F
:10061000213D87000108A20022084001A000F2301D
:100620004201A3002530A4007A08230786007B0836
:10063000243D87000108A50025084001A100F330F2
:100640004201A6002530A7007A08260786007B080D
:10065000273D87000108A80028084001A200F030CB
:100660004201A9002530AA007A08290786007B08E4
:100670002A3D8700010884316C2482318131AE210A
:10068000823185310F258231FF2A003482342134B2
:100690000034003400340034023439340F34003470
:1006A000003400344034803400343F3406345B344A
:1006B0004F3466346D347D3407347F346F34003406
:1006C00000340034483400345334003477347C34FC
:1006D00039345E34793471346F34763406341E34F0
:1006E00000343834003454343F3473346734503475
:1006F0006D3478343E340034003400346E340034C9
:10070000393400340F340034083463345F347C34BB
:1007100058345E347B3471346F34743402341E3494
:1007200000340634003454345C3473346734503449
:100730006D3478341C340034003400346E340034AA
:10074000393430340F34003400344001A3004918E8
:10075000D92B0230A20021088600870122088100DF
:100760002008A200470A860087012208810023088A
:10077000A200470886008701220881002108A20004
:100780004708023E86008701220881000330A2004C
:100790002208C70747086D3A031DD22B6A30A20012
:1007A0002208C700C91048084706031DDE2B49145C
:1007B000DE2B2108860087018101810A210886003D
:1007C000870102300106031D08008731F5274E011D
:1007D0000F1408004E019912DD304001A0000430D2
:1007E000A1008731A82783314E01191290304001B2
:1007F000A0000630A10087319F27833108304201D5
:100800009F0090309D0004309E001F309B009C0193
:1008100002304001A0000030A1008731BA278331A7
:10082000FA304001A0000730A1008731B1278331A1
:10083000FA304001A0000F30A1008731C3274001EA
:10084000E201E501E4010830A2002208EF00F7010F
:10085000F601E3014E0199160800B8304001A500E9
:100860002508D600C030A5002508D900C830A5004D
:100870002508D800D030A5002508D7000E30A000EC
:100880000030A1000230A5002508A20056088631DC
:10089000AD2684310C304001A0000030A1000230B0
:1008A000A5002508A20057088631AD2684310E30F8
:1008B0004001A0000030A100A20158088631AD26F9
:1008C00084310E304001A0000030A100A201A20A34
:1008D00059088631AD2608004001B5000310B50C5B
:1008E0000310A00C0310A20C0310A10C3508A300E8
:1008F000A4012308A7002408A8002008A300A4013D
:100900002308AB002408AC002208A300A40123089C
:10091000AF002408B0002108A300A4012308B300FD
:100920002408B40046018D014001270846018C00CF
:10093000910140012B0846019000950140012F08CC
:1009400046019400990140013308460198000800CF
:100950004001A601A701200821040319D82CA501F4
:10096000A50AA11BBD2C0130A035A10D890BB42C0B
:100970000130A4002408A507B12C0130A635A70D2D
:10098000890BBE2C21082302031DC82C200822023B
:10099000031CCF2C2008A2022108A33B26140130FF
:1009A000A136A00C890BD02C0130A502031DBD2C53
:1009B0002708A1002608A00008007708A03E8600AE
:1009C0008701810142011D1DF02C7708A03E8600A1
:1009D00087018114410161088A0060080A0084319E
:1009E00042019D1CFE2C7708A03E86008701011560
:1009F00041015F088A005E080A0084317708A03E42
:100A000086008701010803190C2D41015D088A0049
:100A10005C080A00853108008631FA260800873113
:100A2000E927853140012108C6002008C5004C088F
:100A30004502C3004D08463BC4000030440232303A
:100A400003194302031C08004608CD004508CC00EA
:100A500059088631552685314001200821040319A3
:100A6000342D8731112708005808863155268531E5
:100A700040012008210403190800873127270800B6
:100A80004001980199019A013F309200F0309300A3
:100A9000FF309400F8307E01CE00E030C300033018
:100AA000B800C4010430B9000730CF00BA01C50155
:100AB000D0013730BB00F030C600FF30D100053028
:100AC0007D01C50014307E01940013309500043080
:100AD0007D01C6000C30CB00080040012008210435
:100AE0000319952DA501A50AA11B802D0130A03564
:100AF000A10D890B772D0130A4002408A507742DC2
:100B000021082302031D862D20082202031C8C2DA0
:100B10002008A2022108A33B0130A136A00C890BBA
:100B20008D2D0130A502031D802D2308A100220870
:100B3000A000080040019413141314129411013002
:100B4000450190008E1746018E170E08F0390C38BB
:100B50008E0092171208F0390C389200961716087A
:100B6000F0390C3896009A171A08F0390C389A00A8
:100B700009307E01A7000A30A6000B30A4000C301B
:100B8000A30008004001BA003408253E84008330E9
:100B90000318013E85000008B7003708BB00340881
:100BA000253E840083300318013E85000008B7000D
:100BB0003508B8000630B835FF3E031DDB2D38354B
:100BC0003704B9003908AE003A08343E863173263E
:100BD00008004001AD0049180A2E2D08AB002B0873
:100BE000A0002708AC002C08A1002908A3002808B1
:100BF000A200663086313526853166304001AB0073
:100C00002B08A0002A08AC002C08A1000130833179
:100C1000A52308002A08860087018101810A0800AF
:100C200040011917191342011D1D1A2E4001D4014C
:100C3000D5011F2E01304001D4070030D53DEF30E3
:100C4000F0002530F10054087007F2005508713D9E
:100C5000F3007208860073088700420119088100BA
:100C60009D1C08001D121D1608004001A600230847
:100C7000A5002208A400A435A50D2608860087013A
:100C80002408C03F2508C13F2108A4002608023ED1
:100C900086008701240881002008A4002608033E5E
:100CA000860087012408810008004001A300230872
:100CB000053E860087010103031D682E2308053EBB
:100CC0008600870181010130A0000030A1000800EA
:100CD0002308053E86008701023001060319632EB2
:100CE000A001A10108004001B2000230AF002F08AE
:100CF000B300A701A70A3208AF00B0012F08A8006F
:100D00003008A9003330B1003108AA002E308531F7
:100D1000E9258631023040013306031D08008A2E82
:100D2000083040016F020318AA2E6408B03E860006
:100D30008701010842019A000130F000700840016B
:100D4000E407083064020318E4010130F000700881
:100D5000EF0708004E01191208004001A400240802
:100D6000860087012008C03F2108C13F2208A30058
:100D70002408023E86008701230881002408033EE0
:100D80008600870181012408053E860087018101D4
:100D900008006A304001A0002008C8006A30A000A6
:100DA0002008C700C9144910CB0143018F01283026
:100DB0009000920150308D004E010F108F101914C9
:100DC00099140800F1004301111540015E08023E2C
:100DD0008600870101080319F82E7108F0005E08EB
:100DE000023E8600870101088600870170088100A5
:100DF000E101080042011908F0007708A83E8600CA
:100E00008701700881000130F0007008F707083092
:100E100077020318F7010130F00070084001E30782
:100E2000080002307B067A04031D1B2F0130FA00F4
:100E30000030FB001F2F0130FA070030FB3D7B081C
:100E40004001BD007A08BC008231672208007A03A5
:100E50007B04031D302F0030FA000230FB00342FDA
:100E60000130FA020030FB3B7B084001BD007A08EC
:100E7000BC0082316722080045304B019F00F930E9
:100E80009D009C014E018C12961603304001A0007B
:100E90000030A1008731E32780304B019E0008001D
:100EA00087318C27873185314025873187319627D7
:100EB00087318631C926873187313C278731833195
:100EC000EA2308000430F00070084001DF07013019
:100ED000E002031D702F0430F0007008E1000800EC
:100EE000E101E10A08004E018C1240016D086E0418
:100EF000031908006E088A006D080A00873108008F
:100F00006400800101310130FE020030FF3B7F08A8
:100F10007E0403190034812F4F0196019701980137
:100F200099019A019B019C019D01080060305101CB
:100F30008D008F019101063093009201080040015D
:100F400021084101E500400120084101E4000800BA
:100F5000400121084101E300400120084101E20075
:100F60000800400121084101DF0040012008410143
:100F7000DE000800400121084101E1004001200895
:100F80004101E0000800400121084101DD0040016D
:100F900020084101DC0008007B084001BD007A0800
:100FA000BC00823167220800EF304001A00007300A
:100FB000A1008731E32708004001AE01AE0A2430CA
:100FC00086317326080040012108EE002008ED005C
:100FD000080040015108A1005008A000080001309D
:100FE0004001D0070030D13D0800400161080319DD
:100FF0000800F52F42011D121D16080001340034AF
:0C1FF4008631FA2608004E018F1008000C
:020000040001F9
:0A000E00EC3FFF3F9F3FFF3FFF3F25
:00000001FF
