:020000040000FA
:10000000803139280A3400347E1480314E01961A2A
:100010008C1E0E288E31C726803137280B1F3728BB
:1000200099188F1C17288E311626803137281918F9
:100030000F1C1E288031892080313728191A0F1E85
:100040002828410159088A0058080A0080313728B9
:10005000991A8F1E3228410157088A0056080A0053
:100060008031372897188D1C37288E31BA267E109C
:10007000090080313B288E3128268031EB008E31FB
:1000800029268031EC008E312A268031ED008E3118
:100090002B268031EE004101803102208031DA00D0
:1000A000803103208031DB00EF3084002530850073
:1000B0000130FE000230FF008731F4278031F0016B
:1000C000F101F201F301F401F50148308400003040
:1000D00085002330FE000030FF008731F427803197
:1000E000A0308400003085002C30FE000030FF007E
:1000F0008731F427803120308400013085002030A2
:10010000FE000030FF008731F4277E10400185316A
:10011000FD2D4E010F104301901FA52990134001A2
:10012000E5016208023E860087010108860087011A
:100130008101810AE2010800CA1808004908F80094
:100140007808E2004908860087010108F80078086D
:10015000E400490886008701413FE3000330F800CE
:100160007808C90749086B3A031DBA286830F800B7
:100170007808C9004A10490848060319CA144301FF
:1001800011140230F80078084001E50008004E29FB
:100190004301111FD4280130F80078084001CC0732
:1001A00004308F31792708007508F9007408F800C9
:1001B000F936F80C78088C00741CE4280B30F80031
:1001C00078084001E50008000330F8007808400195
:1001D000E50008004301111FF6280130F8007808F7
:1001E0004001CC0704308F3179270800911475083D
:1001F000F9007408F8007908F800F901063078056C
:10020000FA0000307905FB00F0307A04F400003089
:100210007B04F50074144001DF01DF0AC1285F038D
:1002200003192329630886008701403FF400413FFA
:10023000F500630886008701433FE10063088600FC
:100240008701423FE000740843018C00741CE428DD
:100250000530F80078084001E50008004301111F4F
:100260003C290130F80078084001CC074301111304
:1002700005308F317927080001304001E002600A23
:10028000031D51290430F8007808E3070130E40227
:10029000031D4E2900308F31792708004301911446
:1002A000C128610886008701010843018C000130E4
:1002B000F80078084001E10708004301111F6B298D
:1002C0000130F80078084001CC0704308F317927DD
:1002D00043011113080091150830F8007808400117
:1002E000E50008000830F8007808E50043019115A2
:1002F000080043010C08F8004001610886008701EE
:10030000780881000130F8007808E1070130E00248
:1003100003199229430191120630F8007808400130
:10032000E5009629430191168E31D426430111161A
:10033000080000308F31792708000130F800780874
:10034000CC0706308F317927080040016508F80096
:10035000F9017908003A0319AE299D297808003A75
:1003600003199C28013A0319C728033A03190F29D6
:10037000013A03192E29073A03199929013A031959
:100380005D29033A03197229013A031999290F3A91
:1003900003197929023A0319C828013A0319EA28EE
:1003A0009D2908008E313726813140012108A700A0
:1003B0002008A60051082602A2005208273BA300ED
:1003C00000302302323003192202031C08002708E0
:1003D000D2002608D100A5012508A2000230A235CE
:1003E000FF3E031DEF292235203EA3002308A8006D
:1003F0002808860001308700403FA200413FA3004B
:1004000022088600230887000130A4002808023E45
:10041000840001308500000A0E2AA435890B0D2ABC
:1004200024080105031D1C2A2808033E860001300C
:1004300087008101810A222A2808033E86000130B4
:10044000870081012808033E8600013087000103F0
:10045000031D432A2808043E860001308700010856
:10046000031D432A2808053E8600013087008101CC
:10047000810A2808063E8600013087002608C03F12
:100480002708C13F852A2808033E860001308700DF
:100490000103031D6F2A2808043E860001308700EF
:1004A0000103031D6F2A2808063E860001308700DD
:1004B000403F2602A200413F273BA3000130230218
:1004C000F53003192202031C852A0230A2002808F5
:1004D000053E86000130870022088100852A280811
:1004E000033E8600013087000108031D852A280885
:1004F000043E8600013087000103031D852A280879
:10050000053E86000130870081012808033E8600F1
:10051000013087000108A2002808043E860001304F
:100520008700220881000130A2002208A5070430BC
:10053000250203180800EC298E3119268231003A71
:10054000031D08008E313726823141013C084001ED
:100550002002A80041013D084001213BA9004101C2
:100560005B0840012902031DB92A41015A084001D4
:100570002802031C08008E313726823140012108F1
:100580004101BD00400120084101BC004001580369
:10059000031DD02A01304101BA070030BB3DD72AE4
:1005A0004101BA01BB011430DA000030DB00400128
:1005B0005803031D172B5708031D172BD901D90A00
:1005C00064304101DA000030DB008E3137268231A1
:1005D00040014D082002AA004E08213BAB008E319D
:1005E0003726823140012108CE002008CD0000309E
:1005F0002B02963003192A020318042B9030410174
:10060000BE000130BF00172B2B08A1002A08A00054
:100610006030A200EA30A3008631382682314001E2
:1006200021084101BF00400120084101BE004001F6
:100630005808A8002808D700D80141013B08803A93
:100640004001A80080302802031D292B04304101FD
:100650003A02031C422B01304001EB070030EC3D15
:100660006C08A1006B08A0008E3156268231410132
:10067000BA01BB018E31372640012108CE00200887
:10068000CD0008008E313726823140014D0820020E
:10069000A8004E08213BA90003302902E9300319C4
:1006A0002802031C08000130EB020030EC3B6C0810
:1006B000A1006B08A0008E315626080027304001AB
:1006C0003C02103003193B02031C952B4530BD0042
:1006D0003D08B4000030B500B60000308F31AA27C5
:1006E000833145304001BD003D08B4000030B50005
:1006F000B60001308F31AA27833145304001BD005B
:100700003D08B4000030B500B60002308F31AA2792
:10071000833145304001BD003D08B4000030B500D4
:10072000B60003308F31AA270800C001C101C00103
:10073000C1010A304001A0000030A1003C08A30024
:100740003B08A2008631CC26833140012108BF003E
:100750002008BE003E08303EBD003D08B400003019
:10076000B500B6004008033C8F31AA2783310A3018
:100770004001A0000030A1003C08A3003B08A200FB
:1007800086313826833140012108BC002008BB0097
:100790000130C0070030C13D4108803ABD008030C3
:1007A0003D02031DD52B0430400203180800992B8D
:1007B0008E313726833140012108C5002008C4004E
:1007C0004F084402C2005008453BC30000304302BA
:1007D000233003194202031C08004508D0004408D6
:1007E000CF005D0887319327833140012008210421
:1007F0000319092C8F314C278331400145084101F1
:10080000C100400144084101C00001308F310D2773
:1008100008005C08873193278331400120082104B8
:100820000319212C8F3122278331400145084101D2
:10083000C100400144084101C00001308F310D2743
:1008400008008E31372683314101400840012002E3
:10085000C200410141084001213BC3001330430263
:10086000883003194202031C080000308F310D2725
:1008700083318E31372640012008773E4101C00088
:10088000EC304001213D4101C100080000348234B8
:1008900021340034003400340034023439340F344D
:1008A0000034003400344034803400343F340634A3
:1008B0005B344F3466346D347D3407347F346F34A9
:1008C0000034003400344834003453340034773476
:1008D0007C3439345E34793471346F347634063490
:1008E0001E3400343834003454343F3473346734A5
:1008F00050346D3478343E340034003400346E3477
:100900000034393400340F340034083463345F3435
:100910007C3458345E347B3471346F347434023434
:100920001E3400340634003454345C347334673479
:1009300050346D3478341C340034003400346E3458
:100940000034393430340F34003400348E313726DB
:10095000843140012108C2002008C100550841022D
:10096000B6005608423BB700003037026430031926
:100970003602031C08004208D6004108D500F130B9
:10098000B6002530B7006D08360786006E08373D83
:1009900087000108B8003808A000F230B9002530FF
:1009A000BA006D08390786006E083A3D87000108D5
:1009B000BB003B08A100F330BC002530BD006D0832
:1009C0003C0786006E083D3D87000108BE003E08DA
:1009D000A200F030BF002530C0006D083F07860040
:1009E0006E08403D870001088531C12584318E3174
:1009F000712608004001A3004A182E2D0230A200E3
:100A0000210886008701220881002008A200480AE8
:100A100086008701220881002308A200480886007A
:100A20008701220881002108A2004808023E8600B2
:100A30008701220881000330A2002208C807480865
:100A40006B3A031D272D6830A2002208C800CA1087
:100A500049084806031D332D4A14332D210886000A
:100A600087018101810A2108860087010230010681
:100A7000031D08008E312C264E010F1408004E0174
:100A800099126D304001A0000630A1008E319526EC
:100A900085314E011912C6304001A0000F30A1006F
:100AA0008E319E268531083042019F0090309D0096
:100AB00004309E001F309B009C0111304001A000BB
:100AC0000E30A1008E318326853120304001A000F8
:100AD0000E30A1008E318C26853113304001A000EC
:100AE0000E30A1008E317A264001E601F301F201B9
:100AF0000830A2002208EF00F101F001E7014E01E9
:100B00009916080020304001A5002508DA00283099
:100B1000A5002508DD003030A5002508DC003830B0
:100B2000A5002508DB000E30A0000030A100023037
:100B3000A5002508A2005A088731D42785310C303A
:100B40004001A0000030A1000230A5002508A2004D
:100B50005B088731D42785310E304001A00000307A
:100B6000A100A2015C088731D42785310E304001F5
:100B7000A0000030A100A201A20A5D088731D4279D
:100B800008004001B5000310B50C0310A00C0310C1
:100B9000A20C0310A10C3508A300A4012308A70090
:100BA0002408A8002008A300A4012308AB002408FF
:100BB000AC002208A300A4012308AF002408B00061
:100BC0002108A300A4012308B3002408B4004601AF
:100BD0008D014001270846018C00910140012B083E
:100BE00046019000950140012F08460194009901AB
:100BF000400133084601980008008F3137278531BE
:100C00008E313D2685314001131319136E30A0003B
:100C10000730A1008E31952685318B170B171530C3
:100C20004001C7004B30C600BE30890B152EC60BE5
:100C3000152EC70B152E00008E31242685318531E7
:100C4000822585318E31452685318631F9268531DB
:100C50008E31E526853182319C2285318431A6246E
:100C600085318131D22185318331D82385312B2EB5
:100C70004001A601A701200821040319682EA5013F
:100C8000A50AA11B4D2E0130A035A10D890B442EC4
:100C90000130A4002408A507412E0130A635A70D78
:100CA000890B4E2E21082302031D582E20082202F4
:100CB000031C5F2E2008A2022108A33B261401304A
:100CC000A136A00C890B602E0130A502031D4D2E0C
:100CD0002708A1002608A00008007108A03E860091
:100CE0008701810142011D1D802E7108A03E8600F2
:100CF00087018114410155088A0054080A00863191
:100D000042019D1C8E2E7108A03E860087010115B0
:100D1000410153088A0052080A0086317108A03E3A
:100D200086008701010803199C2E410151088A00A1
:100D300050080A00863108008F3162270800400100
:100D4000980199019A013F309200F0309300FF30F2
:100D50009400F8307E01CE00E030C3000330B800CC
:100D6000C4010430B9000730CF00BA01C501D00179
:100D70003730BB00F030C600FF30D10005307D01B8
:100D8000C50014307E0194001330950004307D01BD
:100D9000C6000C30CB0008004001200821040319D4
:100DA000F42EA501A50AA11BDF2E0130A035A10D4F
:100DB000890BD62E0130A4002408A507D32E2108C4
:100DC0002302031DE52E20082202031CEB2E20081F
:100DD000A2022108A33B0130A136A00C890BEC2E06
:100DE0000130A502031DDF2E2308A1002208A00068
:100DF000080040019413141314129411013045019A
:100E000090008E1746018E170E08F0390C388E00B0
:100E100092171208F0390C38920096171608F0391C
:100E20000C3896009A171A08F0390C389A000930D5
:100E30007E01A7000A30A6000B30A4000C30A300EE
:100E400008004001AD004A18422F2D08AB002B08C6
:100E5000A0002708AC002C08A1002908A30028083E
:100E6000A200C8308731B4278731C8304001AB00B9
:100E70002B08A0002A08AC002C08A1000130843106
:100E8000FA2408002A08860087018101810A0800E7
:100E900041018C018D018E018F0192019301980116
:100EA0009A019F0142018C018D018E018F019001F9
:100EB00092015430930056309400950196019701A9
:100EC0009801D43091004E018D10971410304001DC
:100ED000A0000E30A1008E314D26080040011917E8
:100EE000191342011D1D782F4101B801B9017D2F51
:100EF00001304101B8070030B93DEF30F600253030
:100F0000F70038087607F8003908773DF9007808C7
:100F10008600790887004201190881009D1C08009D
:100F20001D121D1608004001A3002308053E86007F
:100F3000013087000103031DA82F2308053E86000A
:100F40000130870081010130A0000030A1000800BD
:100F50002308053E86000130870002300106031990
:100F6000A32FA001A10108004001A6002308A500AD
:100F70002208A400A435A50D2608860087012408B0
:100F8000C03F2508C13F2108A4002608023E860074
:100F90008701240881002008A4002608033E86005B
:100FA00087012408810008004001A400240886006D
:100FB000013087002008C03F2108C13F2208A3005C
:100FC0002408023E8600013087002308810024089F
:100FD000033E86000130870081012408053E86001B
:100FE0000130870081010800640080010131013077
:100FF000FE020030FF3B7F087E0403190034F52F0A
:101C20000800080008008F31622708004E018F105D
:101C3000080040015E0808004001D801D80A0800E9
:101C400042011D121D16080001308F310D270800BA
:101C5000903406340134003440016508031908004B
:101C60002C2E01304001D3070030D43D0800400144
:101C70005408A1005308A000080031304001A00022
:101C80000E30A1008E316826080040016E08BC00AD
:101C90006D08BB0083315E2308004001210841012B
:101CA000CD00400120084101CC000800400121087E
:101CB00041018F004001200841018E0008004001D1
:101CC000A000200841019F00420191171114080053
:101CD000400121084101CF00400120084101CE0010
:101CE0000800400159080319782ED9010130080075
:101CF00000300800400121084101D10040012008C6
:101D00004101D0000800400121084101D5004001F7
:101D100020084101D4000800400121084101D300FE
:101D2000400120084101D200080040012108410182
:101D3000D700400120084101D600080040012108D9
:101D40004101D900400120084101D800080060305D
:101D500051018D008F01910106309300920108001E
:101D60004F0196019701980199019A019B019C01ED
:101D70009D0108004E018D1041014C084D040319CE
:101D800008004D088A004C080A008E3108004E01F8
:101D90008C1241014E084F04031908004F088A00B5
:101DA0004E080A008E3108000430F6007608400123
:101DB000E3070130E402031DE22E0430F60076084A
:101DC000E5000800E501E50A080040016C08A100F3
:101DD0006B08A0008E3156268E311C304001A000C9
:101DE0000E30A1008E314D268E310F308E315F26A0
:101DF000080045304B019F00F9309D009C014E01C9
:101E00008C12961612304001A0000E30A1008E31C7
:101E1000682680304B019E0008004001B400340861
:101E200003191B2FAE01AE0A24308F31E327400186
:101E3000DE01DE0A0800AE0124308F31E3274001C5
:101E4000DE01080040016D036E04031D2C2F0030DD
:101E5000ED000230EE00302F0130ED020030EE3B9D
:101E60006E08BC006D08BB0083315E2308008E3114
:101E7000B0268F3186319F268F318E31A7268F3144
:101E80008F3191278F31873148278F318E31F92655
:101E90008F3185313F250800023040016E066D0408
:101EA000031D572F0130ED000030EE005B2F013095
:101EB000ED070030EE3D6E08BC006D08BB008331BD
:101EC0005E23080042011908F6007108A83E86004A
:101ED0008701760881000130F6007608F1070830A6
:101EE00071020318F1010130F60076084001E7079E
:101EF0000800F7004301111540016208023E860008
:101F00008701010803198F2F7708F6006208023E47
:101F10008600870101088600870176088100E501B7
:101F2000080068304001A0002008C9006830A00007
:101F30002008C800CA144A10CC0143018F01283080
:101F40009000920150308D004E010F108F10191427
:101F5000991408004001BA003408263E84008430F9
:101F60000318013E85000008B7003508B8000630A8
:101F7000B835FF3E031DB82F38353704B90039088E
:101F8000AE003A08343E8F31E327080008304001A4
:101F90006F020318E02F7208B03E86008701010827
:101FA00042019A000130F6007608F207083072020A
:101FB0000318F2010130F60076084001EF0708002F
:101FC0004E01191208004001B2000230AF002F0884
:101FD000B300A701A70A3208AF00B0012F08A8007C
:101FE0003008A9003330B1003108AA002E30873103
:101FF00021278F31023040013306031D0800FA2FDC
:020000040001F9
:0A000E00EC3FFF3F9F3FFF3FFF3F25
:00000001FF
