:020000040000FA
:1000000080313928013400347E1480314E01961A33
:100010008C1E0E288731F327803137280B1F372895
:1000200099188F1C17289E310B26803137281918F4
:100030000F1C1E288A31DB2280313728191A0F1E27
:100040002828430163088A0062080A0080313728A3
:10005000991A8F1E3228430161088A0060080A003D
:100060008031372897188D1C37289E31D3267E1073
:10007000090080313B284101803102208031EE00AF
:10008000803103208031EF00B03084009E30850045
:1000900060308600013087000030FF000B309E3159
:1000A000C7268031083084009F308500C630860026
:1000B000013087000030FF0014309E31C7268031A8
:1000C000EF308400253085000130FE000230FF0053
:1000D0009E31BB268031F001F101F201F301F40100
:1000E000F501E901EA01EB01EC01ED0120308400AA
:1000F000013085004030FE000030FF009E31BB26FD
:100100008031A0308400013085002630FE000030B0
:10011000FF009E31BB2680312030840002308500F4
:100120002030FE000030FF009E31BB267E104001D3
:1001300092314C2A0230AF3E86008701403F400199
:10014000A000413FA100423FA200433FA300003076
:10015000A7000030A6000030A5000030A4009331B5
:1001600070238031031CF2280130D73E86008701BE
:100170000230D73E84008501410138084001C400A7
:10018000410137084001C300410136084001C20067
:10019000410135084001C1004330C0007F30BF003D
:1001A0000030BE000030BD008331F82380314001B3
:1001B00040084101A70040013F084101A60040015D
:1001C0003E084101A50040013D084101A4009431D1
:1001D0004D24803141012408803FC03FB9003908D7
:1001E000D700E72B43304001B100B430B0000030FD
:1001F000AF000030AE0041012F084001A0004101D6
:1002000030084001A100890D893B8909A200A300A3
:1002100001309631B626803140012308B50022080E
:10022000B4002108B3002008B200863124268031B2
:10023000400131084101D200400130084101D100A4
:1002400040012F084101D00040012E084101CF009C
:100250000630AF3E86008701403F4001D700413F56
:10026000D800423FD900433FDA003F30DE00003083
:10027000DD000030DC000030DB0095312D258031C1
:10028000031CB5290230AF3E86008701403F400184
:10029000A900413FAA00423FAB00433FAC000630FB
:1002A000AF3E86008701403FAD00413FAE00423F78
:1002B000AF00433FB0008C313A24803140012C081C
:1002C0004101BE0040012B084101BD0040012A0848
:1002D0004101BC00400129084101BB000230AF3E92
:1002E00086008701403F4001BD00413FBE00423FC4
:1002F000BF00433FC0000630AF3E86008701403F4D
:10030000C100413FC200423FC300433FC4008331AC
:10031000F823803140014008DA003F08D9003E0848
:10032000D8003D08D70041013E084001DE004101F0
:100330003D084001DD0041013C084001DC00410175
:100340003B084001DB0090312120803140015A08F8
:100350004101D600400159084101D500400158082B
:100360004101D40040015708F3290630AF3E860012
:100370008701403F4001BD00413FBE00423FBF00FA
:10038000433FC0003F30AC008030AB000030AA00DB
:100390000030A9000230AF3E86008701403FAD002B
:1003A000413FAE00423FAF00433FB0008C313A24A2
:1003B000803140012C08C4002B08C3002A08C20069
:1003C0002908C1008331F8238031400140084101F0
:1003D000D60040013F084101D50040013E084101DF
:1003E000D40040013D084101D30056084001DA0025
:1003F000410155084001D900410154084001D8008D
:10040000410153084001D7004030C0000030BF0018
:100410000030BE000030BD000630AF3E86008701D0
:10042000403FC100413FC200423FC300433FC400C0
:100430008331F823803140014008DE003F08DD00B1
:100440003E08DC003D08DB00903121208031400176
:100450005A084101CE00400159084101CD00400138
:1004600058084101CC00400157084101CB00520817
:100470004001B000410151084001AF004101500866
:100480004001AE0041014F084001AD003E30AC00DC
:10049000AA30AB00AA30AA00AB30A9008C313A24B4
:1004A000803140012C084101C60040012B08410168
:1004B000C50040012A084101C4004001290841014A
:1004C000C30046084001EE00410145084001ED002F
:1004D000410144084001EC00410143084001EB00A8
:1004E000410156084001EA00410155084001E90078
:1004F000410154084001E800410153084001E70070
:1005000041014E084001E60041014D084001E5006F
:1005100041014C084001E40041014B084001E30067
:100520008E311C268031400166084101CA0040011D
:1005300065084101C900400164084101C80040014B
:1005400063084101C7004A084001C400410149084D
:100550004001C300410148084001C2004101470871
:100560004001C1004330C0007F30BF000030BE00FA
:100570000030BD008331F823803140014008410143
:10058000A70040013F084101A60040013E0841018B
:10059000A50040013D084101A40094314D24803163
:1005A00041012408B9003908D70052084001EE0083
:1005B000410151084001ED00410150084001EC00AB
:1005C00041014F084001EB00410156084001EA009B
:1005D000410155084001E900410154084001E8008B
:1005E000410153084001E70041014E084001E60087
:1005F00041014D084001E50041014C084001E40083
:1006000041014B084001E3008E311C26803140013E
:1006100066084101C200400165084101C100400176
:1006200064084101C000400163084101BF00420865
:100630004001C400410141084001C300410140089C
:100640004001C20041013F084001C1004330C000E9
:100650007F30BF000030BE000030BD008331F82382
:100660008031400140084101A70040013F0841019D
:10067000A60040013E084101A50040013D0841019E
:10068000A40094314D24803141012408B900390877
:10069000D80052084001B000410151084001AF00AC
:1006A000410150084001AE0041014F084001AD003A
:1006B000BE30AC00AA30AB00AA30AA00AB30A90013
:1006C0008C313A24803140012C084101C6004001A0
:1006D0002B084101C50040012A084101C400400126
:1006E00029084101C30046084001EE0041014508C8
:1006F0004001ED00410144084001EC004101430884
:100700004001EB00410156084001EA004101550853
:100710004001E900410154084001E800410153084B
:100720004001E70041014E084001E60041014D084B
:100730004001E50041014C084001E40041014B0843
:100740004001E3008E311C268031400166084101E2
:10075000CA00400165084101C90040016408410127
:10076000C800400163084101C7004A084001C400B5
:10077000410149084001C300410148084001C2004D
:10078000410147084001C1004330C0007F30BF0035
:100790000030BE000030BD008331F82380314001BD
:1007A00040084101A70040013F084101A600400167
:1007B0003E084101A50040013D084101A4009431DB
:1007C0004D24803141012408B9003908D900580866
:1007D000B90039084001A00041015908BA003A089F
:1007E0004001A100A201410157089231EE22080008
:1007F000400140088039C5004508CA004035C500A1
:100800004508D000BF1B501450080319142C500A7F
:10081000031D122C0030C0000030BF000030BE00AD
:100820000030BD00BF171C2C0030C0000030BF00DE
:100830000030BE000030BD0044088039C5004508C6
:10084000CA064435C5004508CB00C31B4B144B08F2
:100850000319372C4B0A031D352C0030C40000301F
:10086000C3000030C2000030C100C3173F2C00306D
:10087000C4000030C3000030C2000030C1004B088B
:10088000031D5008031D4D2C0030C0000030BF0078
:100890000030BE000030BD0008003D08C50045081E
:1008A000A000430890316020833140012108D60028
:1008B0002008D5005508C500C601C701C801480871
:1008C000CF004708CE004608CD004508CC005608AA
:1008D000C500C601C701C8014808D4004708D300B5
:1008E0004608D2004508D1003E08C5004508A000D2
:1008F000420890316020833140012108D600200851
:10090000D5005508C500C601C701C8014508CC0778
:100910004608CD3D4708CE3D4808CF3D5608C500A6
:10092000C601C701C8014508D1074608D23D47089E
:10093000D33D4808D43D3F08C5004508A000410804
:1009400090316020833140012108D6002008D50075
:100950005508C500C601C701C8014508CC074608AF
:10096000CD3D4708CE3D4808CF3D5608C500C601DD
:10097000C701C8014508D1074608D23D4708D33D05
:100980004808D43D0830CC35CD0DCE0DCF0D890BA8
:10099000C32C3E08C5004508A000410890316020E6
:1009A000833140012108D6002008D5005508CC0726
:1009B0005608CD3D0030CE3DCF3D3D08C500450831
:1009C000A000420890316020833140012108D60008
:1009D0002008D5005508CC075608CD3D0030CE3D47
:1009E000CF3D0830CC35CD0DCE0DCF0D890BF22C7F
:1009F0003D08C5004508A0004108903160208331C2
:100A000040012108D6002008D5005508CC0756081B
:100A1000CD3D0030CE3DCF3D3E08C5004508A0008D
:100A2000430890316020833140012108D60020081E
:100A3000D5005508D1075608D23D0030D33DD43DEE
:100A40003F08C5004508A00042089031602083316E
:100A500040012108D6002008D5005508D1075608C6
:100A6000D23D0030D33DD43D3F08C5004508A0002D
:100A7000430890316020833140012108D6002008CE
:100A8000D5005508C5005608C600C701C801083082
:100A9000C535C60DC70DC80D890B482D4508D107B2
:100AA0004608D23D4708D33D4808D43D4C08C50010
:100AB0004D08C6004E08C7004F08C8001830C83699
:100AC000C70CC60CC50C890B5F2D4508D10746081D
:100AD000D23D4708D33D4808D43D0830CC35CD0D34
:100AE000CE0DCF0D890B6E2D50084B07C500C601EA
:100AF000C60D4508823ED500FF30463DD600D31BCB
:100B0000962D0130D135D20DD30DD40D890B822D08
:100B1000CF1B51140130CC35CD0DCE0DCF0D890B2F
:100B20008B2DFF30D507FF30D63D7F2DCB01CF1F5A
:100B3000AF2DFF304C05C500FF304D05C600FF301E
:100B40004E05C7007F304F05C800480847044604DB
:100B5000450403195118AD2DAF2DCB01CB0A4B081D
:100B60000319D82D0130D1070030D23D0030D33DDC
:100B70000030D43D541CD82D5108C5005208C60081
:100B80005308C7005408C8000130C900C837C70C53
:100B9000C60CC50CC90BC62D4808D4004708D300A5
:100BA0004608D2004508D1000130D5070030D63DB7
:100BB0005608803AC50080304502031DE12DFF3004
:100BC0005502031CED2D7F304001D4008030D3004E
:100BD0000030D2000030D100172E40015608803A74
:100BE000C50080304502031DF72D01305502031862
:100BF000042E00304001D4000030D3000030D20079
:100C00000030D100CA01172E40015508C500450823
:100C1000D000FF30D105FF30D2057F30D305003042
:100C2000D4055018D3175036C5004508D4004A08DB
:100C3000C5004508D4045408C0005308BF0052083A
:100C4000BE005108BD000800400135088039B600DB
:100C50003608BF003535B6003608C600B41B46144A
:100C600046080319412E460A031D3E2E0030B500EA
:100C70000030B4000030B3000030B200B417B5014A
:100C8000492E0030B5000030B4000030B300003011
:100C9000B20031088039B6003608BF063135B600DB
:100CA0003608C700B01B471447080319652E470ACA
:100CB000031D622E0030B1000030B0000030AF00E4
:100CC0000030AE00B017B1016D2E0030B100003021
:100CD000B0000030AF000030AE00310830042F0407
:100CE0002E04031D8C2E0030B5000030B4000030FF
:100CF000B3000030B2008030B4047F30B5043F0848
:100D0000B6003608B5043508B1003408B000330821
:100D1000AF003208AE0008004608031D982E0030D0
:100D2000B1000030B0000030AF000030AE0008006D
:100D30004608B600B7013708B90047083602B800C0
:100D4000031CB90338087F3EC0000030393DC100A4
:100D50003508BE003408BD003308BC003208BB00B3
:100D60000030B5000030B4000030B3000030B200F5
:100D70000030C5000030C4000030C3000030C200A5
:100D8000C7011A3047020318FD2E47080319DF2E4A
:100D90000130BB35BC0DBD0DBE0D890BC92E013018
:100DA000B235B30DB40DB50D890BD02EC51B321461
:100DB0000130C235C30DC40DC50D890BD92E3108C4
:100DC0003E02031DED2E30083D02031DED2E2F08BF
:100DD0003C02031DED2E2E083B02031CF82E451786
:100DE0002E08BB022F08BC3B3008BD3B3108BE3B80
:100DF0000130B6003608C707C12E3E083D043C044A
:100E00003B04031D4214B41B1A2F0130B235B30D3D
:100E1000B40DB50D890B062FC51B32140130C23538
:100E2000C30DC40DC50D890B0F2FFF30C007FF3058
:100E3000C13D032FC701C51F332FFF304205B60048
:100E4000FF304305B700FF304405B8007F3045054B
:100E5000B900390838043704360403193218312F21
:100E6000332FC701C70A470803195C2F0130B207A7
:100E70000030B33D0030B43D0030B53D351C5C2F33
:100E80003208B6003308B7003408B8003508B90096
:100E90000130BA00B937B80CB70CB60CBA0B4A2FF0
:100EA0003908B5003808B4003708B3003608B20076
:100EB0000130C0070030C13D4108803AB6008030A3
:100EC0003602031D652FFF304002031C742FFF30D4
:100ED0004001C0000030C1000030B5000030B40057
:100EE0000030B3000030B20040014108803AB60043
:100EF00080303602031D7E2F0130400203188C2FF4
:100F00004001C001C1010030B5000030B400003024
:100F1000B3000030B200BF0140014008B6003608FF
:100F2000C600461C952FB417992F7F30B60036089F
:100F3000B4054636B6003608B5007F2E4001A30042
:100F400042012218E02F02304001A2002108860051
:100F50008701220881002008A2004201200A8600A1
:100F6000013087004001220881002308A2004201CD
:100F700020088600013087004001220881002108F6
:100F8000A20042012008023E860001308700400195
:100F9000220881000330A20022084201A007200895
:100FA000603A031DD92F5D304001A20022084201A2
:100FB000A000A21021082006031DE62F2214E62F10
:100FC00040012108860087018101810A4001210832
:100FD0008600870102300106031D08009E311C2691
:100FE0004E010F1408004E018C1242016D086E0470
:100FF000031908006E088A006D080A00873108008E
:10100000080008009E315C268831003A03190B283D
:101010004201C901C90A420149080319080088317F
:10102000122008009E314A268831400121084101E2
:10103000DD00400120084101DC004201350841018A
:101040005C02DA004201360841015D3BDB00003002
:101050005B020A3003195A02031C08005D084201B2
:10106000B60041015C084201B500683043015006FA
:10107000031D40285103031D4028D001D1014428FD
:101080000130D0070030D13DFF304201E207FF3090
:10109000E33D62086304031D52281430E20000306F
:1010A000E300C901D030860001308700AF308400F2
:1010B000003085000A304101DA0016001A00DA0B10
:1010C0005D2880319A200800420128084001A300D1
:1010D000420127084001A200420126084001A10068
:1010E000420125084001A000C230A7002030A60020
:1010F0000030A5000030A400933170238831031C18
:10110000A828683042012D06031D8C282E03031DDC
:101110008C28AD01AE0190282430AD070030AE3DE3
:101120002E084301C70042012D084301C6003F308D
:10113000CF008030CE000030CD000030CC004330F6
:101140004201A8004830A7000030A60000301D2949
:1011500000304001DA000030D9000030D800003003
:10116000D700420128084001DE0042012708400163
:10117000DD00420126084001DC0042012508400153
:10118000DB0095312D2588310318F22843304001CA
:10119000B100C830B0000030AF000030AE004201F6
:1011A00028084001B500420127084001B40042016F
:1011B00026084001B300420125084001B2008631F3
:1011C00024268831400131084301CF004001300816
:1011D0004301CE0040012F084301CD0040012E08FD
:1011E0004301CC003F304001DA008030D9000030AC
:1011F000D8000030D700420128084001DE0042013B
:1012000027084001DD00420126084001DC004201C0
:1012100025084001DB0090312120883140015A0827
:101220004201A800400159084201A70040015808A6
:101230004201A600400157084201A500C6308600C1
:1012400001308700AF308400003085000A30400153
:10125000EF0016001A00EF0B292980319A200800B0
:101260009E314A26893140012108A7002008A600A6
:101270004201430840012602A20042014408400105
:10128000273BA30000302302323003192202031C43
:10129000080027084201C400400126084201C3009B
:1012A0004001A5012508A2000230A235FF3E031D22
:1012B00055292235203EA3002308A80028088600CF
:1012C00002308700403FA200413FA3002208860071
:1012D000230887000130A4002808023E8400023061
:1012E0008500000A7429A435890B73292408010597
:1012F000031D82292808033E8600023087008101F1
:10130000810A88292808033E86000230870081016F
:101310002808033E8600023087000103031DA92927
:101320002808043E8600023087000108031DA92911
:101330002808053E8600023087008101810A2808BE
:10134000063E8600023087002608C03F2708C13FBE
:10135000EB292808033E8600023087000103031DA5
:10136000D5292808043E8600023087000103031DAA
:10137000D5292808063E860002308700403F260215
:10138000A200413F273BA30001302302F53003199F
:101390002202031CEB290230A2002808053E860029
:1013A0000230870022088100EB292808033E8600CE
:1013B000023087000108031DEB292808043E86003F
:1013C000023087000103031DEB292808053E860033
:1013D0000230870081012808033E86000230870022
:1013E0000108A2002808043E860002308700220877
:1013F00081000130A2002208A5070430250203184D
:10140000080052299E310E268A31003A031D080039
:101410009E314A268A3142013D0840012002A8003F
:1014200042013E084001213BA900420165084001FC
:101430002902031D1F2A4201640840012802031CDF
:1014400008009E314A268A31400121084201BE002F
:10145000400120084201BD0041016903031D362AF5
:1014600001304201BB070030BC3D3D2A4201BB01B7
:10147000BC011430E4000030E50041016903031DA4
:10148000842A42014D08031D842ACE01CE0A64300D
:10149000E4000030E5009E314A268A3142014108CD
:1014A00040012002AA00420142084001213BAB005A
:1014B0009E314A268A31400121084201C200400182
:1014C00020084201C100003040012B029630031970
:1014D0002A020318712A90304201BF000130C00077
:1014E000842A2B08A1002A08A0006030A200EA305C
:1014F000A300923117228A31400121084201C00025
:10150000400120084201BF00410169084001A800D4
:1015100028084201CD004101E90142013C08803A1E
:101520004001A80080302802031D992A043042019E
:101530003B02031CB82A01304201E6070030E73DB8
:1015400067084001A100420166084001A0009E31E9
:1015500038268A314201BB01BC019E314A26400136
:1015600021084201C200400120084201C1000800D8
:101570009E314A268A314201410840012002A800DA
:10158000420142084001213BA90003302902E93011
:1015900003192802031C080001304201E602003052
:1015A000E73B67084001A100420166084001A00036
:1015B0009E31382608004E010F104301901F0D2C5C
:1015C00090134101EC016A08023E86000130870059
:1015D0000108860087018101810AEA0108004201B1
:1015E000A21808002108F80078084101EA00420129
:1015F00021088600013087000108F8007808D7002C
:1016000021088600013087000130413F4101EB0095
:101610000330F80078084201A1072108603A031D51
:10162000152B5D30F8007808A10022102108200653
:101630000319A214430111140230F8007808410183
:10164000EC000800B52B4301111F2F2B0130F800CF
:1016500078084201A40704309F31752708007508F7
:10166000F9007408F800F936F80C78088C00741C3E
:101670003F2B0B30F80078084101EC0008000330E4
:10168000F80078084101EC0008004301111F512BBC
:101690000130F80078084201A40704309F31752713
:1016A000080091147508F9007408F8007908F8002A
:1016B000F90106307805FA0000307905FB00F030BA
:1016C0007A04F40000307B04F50074144201D40164
:1016D000D40A1C2B420154030319882B41016B08C7
:1016E000860001308700403FF400413FF5006B0861
:1016F0008600013087000130433F4201D60041019E
:101700006B088600013087000130423F4201D5005E
:10171000740843018C00741C3F2B0530F8007808D6
:101720004101EC0008004301111FA12B0130F8001A
:1017300078084201A4074301111305309F31752732
:10174000080001304201D502550A031DB82B0430B0
:10175000F80078084101EB0701304201D702031D70
:10176000B52B00309F3175270800430191141C2BC5
:10177000560886008701010843018C000130F800FB
:1017800078084201D60708004301111FD22B01300F
:10179000F80078084201A40704309F3175274301FF
:1017A0001113080091150830F80078084101EC0089
:1017B00008000830F8007808EC0043019115080093
:1017C00043010C08F800420156088600870178089A
:1017D00081000130F8007808D6070130D5020319DE
:1017E000F92B430191120630F80078084101EC0012
:1017F000FD2B430191169E31E0264301111608008E
:1018000000309F31752708000130F8007808420148
:10181000A40706309F317527080041016C08F800C5
:10182000F9017908003A0319162C042C7808003ABB
:101830000319EF2A013A0319222B033A03196A2BE1
:10184000013A0319932B073A0319002C013A0319A3
:10185000C42B033A0319D92B013A0319002C0F3A70
:101860000319E02B023A0319232B013A0319452BE4
:10187000042C080040012C088039B1003108B9005F
:101880002C35B1003108BB00AB1B3B143B080319DE
:10189000572C3B0A031D542C0030AC000030AB0029
:1018A0000030AA000030A900AB17AC015F2C00305B
:1018B000AC000030AB000030AA000030A9003008B6
:1018C0008039B1003108BA003A083906031D3917CA
:1018D0003035B1003108BA00AF1B3A143A08031989
:1018E0007F2C3A0A031D7C2C0030B0000030AF0082
:1018F0000030AE000030AD00AF17B001872C0030D3
:10190000B0000030AF000030AE000030AD003B084A
:101910003A020318CD2C391F912C8030B1003108C8
:10192000B9063B08B1003108BC003A08B1003108E3
:10193000BB003C08B1003108BA002908B1003108E9
:10194000BC002D08B1003108A9003C08B1003108E5
:10195000AD002A08B1003108BC002E08B1003108E2
:10196000AA003C08B1003108AE002B08B1003108D4
:10197000BC002F08B1003108AB003C08B1003108B1
:10198000AF002C08B1003108BC003008B1003108AC
:10199000AC003C08B1003108B000BC013A08B1000D
:1019A000B2013208B4003B083102B300031CB40397
:1019B0003408803AB50080303502031DE12C1A301E
:1019C0003302031C152D40012C082B042A04290482
:1019D0000319EC2C0130ED2C0030B1003108BC00B3
:1019E0000030AC000030AB000030AA000030A9008D
:1019F0003A08B1003108BB001A2D3C1C052D3C36BD
:101A00000138B1003108BC00072D0310BC0C2918A7
:101A1000BC170130B100AC37AB0CAA0CA90CB10B50
:101A20000B2D0130B1003108BB0740013A083B02E1
:101A3000031CFD2C391B4B2D3B08031D282D0030AA
:101A4000AC000030AB000030AA000030A900080054
:101A50002D08A9072E08AA3D2F08AB3D3008AC3D44
:101A60002C1CC52D3C1C3A2D3C360138B1003108E8
:101A7000BC003C2D0310BC0C2918BC170130B10070
:101A8000AC37AB0CAA0CA90CB10B402D0130B10046
:101A90003108BB07C52D2C08803AB1003008803AC8
:101AA0003102031D5D2D2F082B02031D5D2D2E0815
:101AB0002A02031D5D2D2D0829020318952DFF30E4
:101AC000B100FF30B200FF30B300FF30B40029088E
:101AD0002D02B5002A082E3BB6002B082F3BB7007D
:101AE0002C08303BB8003508B1073608B23D37083E
:101AF000B33D3808B43D3408AC003308AB003208BD
:101B0000AA003108A9008030B1003108B906BC092B
:101B1000BC0A3C08031D9D2D0130A9070030AA3DD9
:101B20000030AB3D0030AC3D9D2D2D08A9022E08A4
:101B3000AA3B2F08AB3B3008AC3B2C082B042A04F3
:101B40002904031DC32D3C08031DC32D0030AC0028
:101B50000030AB000030AA000030A90008000130BE
:101B6000A935AA0DAB0DAC0D890BB02DBC1B2914EA
:101B70003C1CBC2D0314BD2D0310BC0D3B080319E8
:101B8000C32D0130BB02AB1FAF2DBA01BC1FD02D3E
:101B90003C087F3903192918CE2DD02DBA01BA0A75
:101BA0003A080319FC2D0130A9070030AA3D003086
:101BB000AB3D0030AC3D2C1CFC2D2908B1002A089F
:101BC000B2002B08B3002C08B4000130B500B437C4
:101BD000B30CB20CB10CB50BE72D3408AC003308D4
:101BE000AB003208AA003108A9003B0A0319FC2DFA
:101BF0000130B1003108BB073B0A031D3B08031D40
:101C00000C2E0030AC000030AB000030AA000030D9
:101C1000A9003B080319B9013B1C102EAB17142E69
:101C20007F30B1003108AB053B36B1003108AC0064
:101C3000B91F0800AC17080040016E08DA006D08F3
:101C4000D9006C08D8006B08D7000030DE000030E7
:101C5000DD000030DC000030DB0095312D258E31B9
:101C600003184F2E3F304001AC008030AB000030F5
:101C7000AA000030A9006E08B0006D08AF006C0823
:101C8000AE006B08AD008C313A248E3140012C0837
:101C9000EE002B08ED002A08EC002908EB003F308D
:101CA0004001DA008030D9000030D8000030D70081
:101CB0006E08DE006D08DD006C08DC006B08DB00E0
:101CC00095312D258E310318822E3F304001DA00E8
:101CD0008030D9000030D8000030D7006E08DE0018
:101CE0006D08DD006C08DC006B08DB009031212002
:101CF0008E3140015A08EE005908ED005808EC00FA
:101D00005708EB0040304001C000C030BF00003039
:101D1000BE000030BD006E08C4006D08C3006C0832
:101D2000C2006B08C1008331F8238E3140014008A6
:101D3000DA003F08D9003E08D8003D08D7003F3000
:101D4000DE008030DD000030DC000030DB0095314B
:101D50002D258E3103181D2F40304001C000C030AA
:101D6000BF000030BE000030BD006608DA00650824
:101D7000D9006408D8006308D7006A08DE00690843
:101D8000DD006808DC006708DB00903121208E311F
:101D900040015A08C4005908C3005808C200570837
:101DA000C1008331F8238E31400140084101A30076
:101DB00040013F084101A20040013E084101A1004D
:101DC00040013D084101A00040016608AC006508E3
:101DD000AB006408AA006308A9006E08C0006D0883
:101DE000BF006C08BE006B08BD0041012308400124
:101DF000C400410122084001C30041012108400103
:101E0000C200410120084001C1008331F8238E3116
:101E100040014008B0003F08AF003E08AE003D085A
:101E2000AD008C313A2440012C08E6002B08E50077
:101E30002A08E4002908E300080040304001C000FF
:101E40000030BF000030BE000030BD006E08C4008E
:101E50006D08C3006C08C2006B08C1008331F82311
:101E60008E3140014008DA003F08D9003E08D80012
:101E70003D08D7003F30DE008030DD000030DC0060
:101E80000030DB0095312D258E310318512F400194
:101E90006A08E6006908E5006808E4006708E300EE
:101EA000080040304001C0004030BF000030BE009C
:101EB0000030BD006E08C4006D08C3006C08C2008D
:101EC0006B08C1008331F8238E3140014008DA00ED
:101ED0003F08D9003E08D8003D08D7004030DE005A
:101EE0000030DD000030DC000030DB0095312D25B6
:101EF0008E310318080040016E08DA006D08D90021
:101F00006C08D8006B08D7003F30DE002A30DD00B7
:101F1000AA30DC00AB30DB00903121208E31400153
:101F20005A08C0005908BF005808BE005708BD0035
:101F30006608DA006508D9006408D8006308D7008D
:101F40006A08DE006908DD006808DC006708DB005D
:101F5000903121208E3140015A08C4005908C30035
:101F60005808C2005708C1008331F8238E31400160
:101F700040084101A30040013F084101A200400187
:101F80003E084101A10040013D084101A00040017F
:101F90006608AC006508AB006408AA006308A900E5
:101FA0004030C000C030BF000030BE000030BD0077
:101FB000410123084001C400410122084001C3003F
:101FC000410121084001C200410120084001C10037
:101FD0008331F8238E3140014008B0003F08AF0044
:101FE0003E08AE003D08AD008C313A2440012C087B
:101FF000E6002B08E5002A08E4002908E3000800B1
:1020000001309F311C27080042014F089031802089
:102010009031400120082104031908009E31A526B3
:1020200090314201E801E80A023060066104031DB4
:102030001C28E001E10108000130E0070030E13D2B
:10204000080080304001DA065E08AC005D08AB0095
:102050005C08AA005B08A9005A08B0005908AF0044
:102060005808AE005708AD008C313A2440012C08C6
:10207000DA002B08D9002A08D8002908D700080060
:102080004001A40024088600023087002008C03FD9
:102090002108C13F2208A3002408023E8600023026
:1020A0008700230881002408033E86000230870051
:1020B00081012408053E8600023087008101080066
:1020C0004001A800A401A5012008A200A301220844
:1020D000A6002308A700281C71282608A4072708A3
:1020E000A53D0130A635A70D890B72280310A80C59
:1020F0002808031D6B282508A1002408A00008005B
:102100004001A3002308053E86000230870001033A
:10211000031D95282308053E8600023087008101B3
:102120000130A0000030A10008002308053E860011
:10213000023087000230010603199028A001A10196
:1021400008004001A6002308A5002208A400A43529
:10215000A50D26088600013087002408C03F250809
:10216000C13F2108A4002608023E860001308700F6
:10217000240881002008A4002608033E86000130C0
:102180008700240881000800400119171913420133
:102190001D1DCF28B901BA01CC01CC0AD3280130CA
:1021A000B9070030BA3DEF30F6002530F7003908A6
:1021B0007607F8003A08773DF90078088600790834
:1021C0008700190881009D1C08001D121D160800BB
:1021D00041018C018D018E018F01920193019801C3
:1021E0009A019F0142018C018D018E018F019001A6
:1021F0009201543093005630940095019601970156
:102200009801D43091004E018D1097140730400191
:10221000A0001E30A1009E312F260800400194131B
:102220001413141294110130450190008E174601C9
:102230008E170E08F0390C388E0092171208F039FC
:102240000C38920096171608F0390C3896009A1739
:102250001A08F0390C389A0009307E01A7000A30BC
:10226000A6000B30A4000C30A30008004001AD0014
:1022700042012218592940012D08AB002B08A0006B
:102280002708AC002C08A1002908A3002808A200F8
:1022900059309031A120913159304001AB002B08C9
:1022A000A0002A08AC002C08A100013087319E272D
:1022B000080040012A08860087018101810A080080
:1022C00040012008210403198829A501A50AA11BA2
:1022D00073290130A035A10D890B6A290130A400B2
:1022E0002408A507672921082302031D792920084E
:1022F0002202031C7F292008A2022108A33B0130EF
:10230000A136A00C890B80290130A502031D732979
:102310002308A1002208A0000800400198019901AB
:102320009A013F309200F0309300FF309400F83073
:102330007E01CE00E030C3000330B800C401043099
:10234000B9000730CF00BA01C501D0013730BB005A
:10235000F030C600FF30D10005307D01C5001430DB
:102360007E0194001330950004307D01C6000C30CE
:10237000CB00080040014208860043088700403F28
:10238000C800413FC90045084906031DC929440842
:102390004806031DD42942088600430887004608E2
:1023A000C03F4708C13FDD29420886004308870037
:1023B0000130810741310318810A42088600430831
:1023C0008700403FBB00413FBC009431B32408006C
:1023D00040014208860043088700403FC800413F53
:1023E000C90047084906031DF72946084806031D8A
:1023F000022A42088600430887004408C03F450877
:10240000C13F0C2A4208860043088700FF3081073D
:102410004131FF30813D7F3142088600430887000B
:10242000403FBB00413FBC009431B3240800400151
:10243000A601A701200821040319472AA501A50A1E
:10244000A11B2C2A0130A035A10D890B232A0130B4
:10245000A4002408A507202A0130A635A70D890B62
:102460002D2A21082302031D372A20082202031CDB
:102470003E2A2008A2022108A33B26140130A136DF
:10248000A00C890B3F2A0130A502031D2C2A270826
:10249000A1002608A00008009F31312792319E310B
:1024A00027269231400113131913C430A0001030B5
:1024B000A1009E31802692318B170B1715304301F6
:1024C000E5004B30E400BE30890B642AE40B642A3B
:1024D000E50B642A000090310020923194310224EF
:1024E000923191310E2192319F31462792319731AD
:1024F0004C2792319231B722923189313021923179
:10250000772A7108AA3E86000130870081014201C6
:102510001D1D962A7108AA3E86000130870081148D
:1025200043015F088A005E080A00923142019D1C47
:10253000A52A7108AA3E86000130870001154301D3
:102540005D088A005C080A0092317108AA3E860084
:102550000130870001080319B42A43015B088A008F
:102560005A080A00923108009F315D2708009E3109
:102570004A26923140012108A5002008A40042010A
:10258000370840012402A200420138084001253BDF
:10259000A30003302302E83003192202031C0800C1
:1025A00025084201B800400124084201B7004C0848
:1025B0000319E12A4A08031DE12ACA01CA0ACC010B
:1025C00008004C080319EC2A4A080319EC2ACB012D
:1025D000CB0ACA01CC010800CB0108004001B500BC
:1025E0000310B50C0310A00C0310A20C0310A10CD7
:1025F0003508A300A4012308A7002408A800200888
:10260000A300A4012308AB002408AC002208A30007
:10261000A4012308AF002408B0002108A300A401EE
:102620002308B3002408B40046018D0140012708A7
:1026300046018C00910140012B0846019000950154
:1026400040012F08460194009901400133084601DA
:10265000980008004E01991281304001A00012300C
:10266000A1009E31802693314E0119128F30400116
:10267000A0001F30A1009E3189269331083042010D
:102680009F0090309D0004309E001F309B009C01F5
:1026900000304001A0000830A1009E316E26933129
:1026A00018304001A0001E30A1009E3177269331E2
:1026B00008304001A0001E30A1009E316526420175
:1026C000D801F301F20108304001A20022084201C2
:1026D000EF00F101F0014101ED014E0199160800F2
:1026E000003040012005A80000302105A9008030FD
:1026F0002205AA007F302305AB002B082A042904F9
:102700002804031D8B2B0030A3000030A2000030F2
:10271000A1000030A00000302405A80000302505ED
:10272000A90080302605AA007F302705AB002B08C2
:102730002A0429042804031DA52B0030A70000301B
:10274000A6000030A5000030A40027082306031DC2
:10275000B32B26082206031DB32B25082106031DD3
:10276000B32B240820060319B72B03100800031409
:102770000800F1304001B6002530B70041016E0875
:1027800040013607860041016F084001373D870050
:102790000108B8003808A000F230B9002530BA00AE
:1027A00041016E0840013907860041016F08400170
:1027B0003A3D87000108BB003B08A100F330BC0094
:1027C0002530BD0041016E0840013C0786004101F3
:1027D0006F0840013D3D87000108BE003E08A20091
:1027E000F030BF002530C00041016E0840013F07B6
:1027F000860041016F084001403D87000108923189
:10280000EE22080020304001A50025084201CF003B
:1028100028304001A50025084201D2003030400197
:10282000A50025084201D10038304001A500250847
:102830004201D0000E304001A0000030A100023063
:10284000A5002508A20042014F0890314020943194
:102850000C304001A0000030A1000230A500250886
:10286000A200420150089031402094310E304001C6
:10287000A0000030A100A201420151089031402087
:1028800094310E304001A0000030A100A201A20A44
:102890004201520890314020080003104101260DEA
:1028A000270DA8002808AE002E08031D602C00305C
:1028B000A7000030A6000030A5000030A4000800EA
:1028C0002408A8002508A9002608AA002708AB00AC
:1028D0001F30AB36AA0CA90CA80C890B692C280850
:1028E000AC002C08AD00A617FF30A405FF30A505ED
:1028F000FF30A6050030A7059630AE02AE1F932C20
:102900002E08803A973E031C572C0130A736A60CA0
:10291000A50CA40C890B862C0130A8002808AE0752
:102920000319A42C852C20302E020318572C2E08B6
:102930000319A42C0130A435A50DA60DA70D890BF4
:102940009B2C0130AE02972C2D0803190800A40916
:10295000A509A609A709A40A0319A50A0319A60A25
:102960000319A70A0800273040013C021030031960
:102970003B02031CEA2C4530BD003D08B40000308A
:10298000B500B60000309F31AB279431453040018F
:10299000BD003D08B4000030B500B60001309F31E5
:1029A000AB27943145304001BD003D08B4000030F4
:1029B000B500B60002309F31AB279431453040015D
:1029C000BD003D08B4000030B500B60003309F31B3
:1029D000AB270800C001C101C001C1010A3040019C
:1029E000A0000030A1003C08A3003B08A2009131E8
:1029F0006021943140012108BF002008BE003E083C
:102A0000303EBD003D08B4000030B500B6004008BF
:102A1000033C9F31AB2794310A304001A0000030C5
:102A2000A1003C08A3003B08A20092311722943178
:102A300040012108BC002008BB000130C007003065
:102A4000C13D4108803ABD0080303D02031D2A2D62
:102A50000430400203180800EE2C003040015705F6
:102A6000DF0000305805E00080305905E1007F307C
:102A70005A05E2006208610460045F04031D482DEA
:102A80000030DA000030D9000030D8000030D70024
:102A900000305B05DF0000305C05E00080305D0544
:102AA000E1007F305E05E2006208610460045F04BB
:102AB000031D622D0030DE000030DD000030DC0040
:102AC0000030DB00DA1F7C2D0030DF000030E0003A
:102AD0000030E1008030E2005708DF025808E03B98
:102AE0005908E13B5A08E23B6208DA006108D90064
:102AF0006008D8005F08D700DE1F962D0030DF0089
:102B00000030E0000030E1008030E2005B08DF02CE
:102B10005C08E03B5D08E13B5E08E23B6208DE00EA
:102B20006108DD006008DC005F08DB008030DA0649
:102B30008030DE065E085A02031D08005D08590257
:102B4000031D08005C085802031D08005B085702BB
:102B500008009E314A269531400121084101DD00DF
:102B6000400120084101DC004201330841015C02C0
:102B7000DA004201340841015D3BDB0042016A0892
:102B800041015B02031DC82D4201690841015A023F
:102B9000031C08005D084201B40041015C084201C9
:102BA000B30069304001CA000130CB006430CC0072
:102BB0000030CD000130CE000030CF009631282605
:102BC0009531683042013106031DEC2D3203031D9F
:102BD000EC2DB101B201F02D0130B1070030B23D52
:102BE000A030860001308700DE3084000030850090
:102BF0000A304101DA0016001A00DA0BFB2D4201FF
:102C000032084101DF00420131084101DE003F305E
:102C1000E3008030E2000030E1000030E0003F30AF
:102C2000E7000030E6000030E5000030E400DE3070
:102C3000860000308700AF308400003085000A3005
:102C4000DA0016001A00DA0B212E80319A200800D3
:102C50009E314A26963140012108D3002008D20037
:102C600042012B0840015202D00042012C084001D1
:102C7000533BD10000305102233003195002031C92
:102C8000080053084201AC00400152084201AB0069
:102C90005208903180209631400120082104031908
:102CA0006C2E4B08C3004A08C2004D08C5004C08F2
:102CB000C4004F08C7004E08C6009131BA219631B2
:102CC000400153084201AA00400152084201A900F4
:102CD00001309F311C2708004201510890318020AB
:102CE00096314001200821040319912E4B08C3009E
:102CF0004A08C2004D08C5004C08C4004F08C70070
:102D00004E08C6009131E821963140015308420136
:102D1000AA00400152084201A90001309F311C273E
:102D200008009E314A2696314201290840012002BE
:102D3000D00042012A084001213BD100133051024A
:102D4000883003195002031C080000309F311C27F3
:102D500096319E314A2640012008773E4201A90063
:102D6000EC304001213D4201AA0008004001A800CA
:102D70002808031DA31FCC2E2009AA002109AB009F
:102D80002209AC002309AD00AA0A0319AB0A0319F2
:102D9000AC0A0319AD0AD42E2308AD002208AC00FA
:102DA0002108AB002008AA002308220421042004E3
:102DB000031DE32E0030A3000030A2000030A1006C
:102DC0000030A00008009630A4002408A900FE30BE
:102DD0002D0503190A2F0130A4002408A90701308A
:102DE000AD36AC0CAB0CAA0C890BF02EE72E0130E3
:102DF000A4002408A9070130AA070030AB3D003029
:102E0000AC3D0030AD3D0130AD36AC0CAB0CAA0C86
:102E1000890B042FFF302D0503191C2FF72E0230CC
:102E20002902031C1E2F0130A9020130AA35AB0D67
:102E3000AC0DAD0D890B162FAC1F0F2F2918282FA5
:102E4000FF30AA05FF30AB057F30AC05FF30AD0584
:102E50000310A90C2908A400A501A601A701183098
:102E6000A435A50DA60DA70D890B302F2408AA04A3
:102E70002508AB042608AC042708AD042808031D68
:102E8000A31F432FAD172D08A3002C08A2002B0869
:102E9000A1002A08A00008009E3111269731003AAF
:102EA0000319652F9331B9239731EE304001CA00E1
:102EB0000030CB000030CC000230CD000130CE001D
:102EC0000030CF0096312826080090310420973139
:102ED000420160086104031D772F00309F311C27D9
:102EE00097318831022097318A310222080060032D
:102EF0006104031DBB2F68080319B82F01309F31EF
:102F00001C27973150304101E80068084001B400A7
:102F10000030B500B60000309F31AB2797314C3000
:102F20004101E80068084001B4000030B500B60077
:102F300001309F31AB27973153304101E8006808D9
:102F40004001B4000030B500B60002309F31AB271D
:102F5000973145304101E80068084001B400003075
:102F6000B500B60003309F31AB2797314201E8012D
:102F7000883164200800023060066104031D0800E7
:102F800068080319FD2F01309F311C27973143300A
:102F90004101E80068084001B4000030B500B60007
:102FA00000309F31AB27973159304101E800680864
:102FB0004001B4000030B500B60001309F31AB27AE
:102FC000973143304101E80068084001B400003007
:102FD000B500B60002309F31AB2797314C3041012C
:102FE000E80068084001B4000030B500B6000330C6
:102FF0009F31AB2797314201E8019531A92508009F
:10300000003482342134003400340034003402347B
:1030100039340F3400340034003440348034003408
:103020003F3406345B344F3466346D347D340734BA
:103030007F346F3400340034003448340034533467
:10304000003477347C3439345E34793471346F34FD
:10305000763406341E3400343834003454343F346B
:103060007334673450346D3478343E340034003473
:1030700000346E340034393400340F3400340834F2
:1030800063345F347C3458345E347B3471346F3451
:10309000743402341E3400340634003454345C3446
:1030A0007334673450346D3478341C340034003455
:1030B00000346E340034393430340F34003400348A
:103C0E0008009F315D2708004E018F100800420109
:103C1E005308080042014B0808004101E901E90A76
:103C2E00080042011D121D16080041016C080319FF
:103C3E0008001C2E01304201C7070030C83D0800A5
:103C4E0021304001A0001E30A1009E3153260800F5
:103C5E00400121084201EC00400120084201EB0026
:103C6E0008004001210841018F0040012008410158
:103C7E008E0008004001A000200841019F00420173
:103C8E00911711140800420148084001A100420199
:103C9E0047084001A0000800400121084201EE0043
:103CAE00400120084201ED00080042014E080319B0
:103CBE00632ECE01013008000030080040012108BB
:103CCE004301DB00400120084301DA0008004001F7
:103CDE0021084301DF00400120084301DE000800F7
:103CEE00400121084301DD00400120084301DC00B2
:103CFE000800400121084301E10040012008430172
:103D0E00E0000800400121084301E30040012008C3
:103D1E004301E2000800603051018D008F019101D6
:103D2E0006309300920108004F0196019701980109
:103D3E0099019A019B019C019D0108009E314A2622
:103D4E00400121084201AA00400120084201A900B9
:103D5E00080002340034143400340A340034903431
:103D6E000634013414340034640080010131013012
:103D7E00FE020030FF3B7F087E0403190034BC2E88
:103D8E00FE0012001E000130FE020030FF3B7F08D5
:103D9E007E0403190034C82E4E018D1042016B08AB
:103DAE006C04031908006C088A006B080A009E3127
:103DBE0008000430F60076084101EB07013042019D
:103DCE00D702031DF02E0430F60076084101EC00F8
:103DDE0008004101EC01EC0A080045304B019F0040
:103DEE00F9309D009C014E018C1296160130400157
:103DFE00A0000830A1009E31532680304B019E005A
:103E0E000800003400340034003480343F34003471
:103E1E00003400343F340034003400340034803435
:103E2E003F340034003400343F344001B4003408D1
:103E3E0003192A2FAE01AE0A24309F31E327420127
:103E4E00D301D30A0800AE0124309F31E32742018B
:103E5E00D30108009E319B269F3191318D219F31D8
:103E6E009E3192269F319F31C7279F319031E82096
:103E7E009F319E31F4269F3193312A23080042014F
:103E8E0067084001A100420166084001A0009E3172
:103E9E0038269F3114304001A0001E30A1009E3103
:103EAE002F269F310F309E314126080042011908FE
:103EBE00F6007108B23E8600013087007608810058
:103ECE000130F6007608F107083071020318F1018F
:103EDE000130F60076084101ED070800F7004301B6
:103EEE00111541016A08023E860001308700010863
:103EFE0003198D2F7708F6006A08023E86000130FE
:103F0E00870001088600870176088100EC01080011
:103F1E00083042016F020318A82F7208BA3E8600BD
:103F2E000130870001089A000130F6007608F2078A
:103F3E00083072020318F2010130F6007608EF071E
:103F4E0008004E01191208004001BA003408E03E84
:103F5E00840097300318013E85000008B70035082D
:103F6E00B8000630B835FF3E031DB92F383537047B
:103F7E00B9003908AE003A08343E9F31E3270800F5
:103F8E005D304001A00020084201A1005D304001DB
:103F9E00A00020084201A000A2142210A401430197
:103FAE008F0128309000920150308D004E010F107D
:103FBE008F101914991408004001B2000230AF009E
:103FCE002F08B300A701A70A3208AF00B0012F08CF
:103FDE00A8003008A9003330B1003108AA002E30F5
:103FEE00913136219F31023040013306031D080006
:023FFE00FA2F98
:020000040001F9
:0A000E00EC3FFF3F9F3FFF3FFF3F25
:00000001FF
