:020000040000FA
:0400000080313328F0
:100008007E1480314E01961A8C1E0E2887313827AF
:10001800803131280B1F312899188F1C17288731F8
:10002800C0278031312819180F1C1E2880316720FD
:1000380080313128191A0F1E282840016C088A00BF
:100048006B080A0080313128991A8F1E3128410126
:1000580063088A0062080A0080317E100900803136
:1000680035288731C6278031EE008731C727803190
:10007800EF00EF308400253085000130FE000230AB
:10008800FF00873145278031F001F101F201F301CA
:10009800F401F50145308400003085002430FE006D
:1000A8000030FF00873145278031A03084000030C0
:1000B80085003C30FE000030FF00873145277E1068
:1000C80040018531A62D4E010F104301901F832951
:1000D80090134001DF015C08023E86008701010899
:1000E800860087018101810ADC010800C718080021
:1000F8004608F8007808DC004608860087010108F1
:10010800F8007808DE00460886008701413FDD00D8
:100118000330F8007808C6074608693A031D98288E
:100128006630F8007808C6004710460845060319E7
:10013800C714430111140230F80078084001DF00A9
:1001480008002C294301111FB2280130F800780853
:100158004001C907043086317F2608007508F90078
:100168007408F800F936F80C78088C00741CC2285A
:100178000B30F80078084001DF0008000330F80071
:1001880078084001DF0008004301111FD42801301E
:10019800F80078084001C907043086317F26080036
:1001A80091147508F9007408F8007908F800F90145
:1001B80006307805FA0000307905FB00F0307A0443
:1001C800F40000307B04F50074144001D901D90A09
:1001D8009F285903031901295D0886008701403FBC
:1001E800F400413FF5005D0886008701433FDB00CE
:1001F8005D0886008701423FDA00740843018C00DD
:10020800741CC2280530F80078084001DF00080097
:100218004301111F1A290130F80078084001C90765
:1002280043011113053086317F2608000130400153
:10023800DA025A0A031D2F290430F8007808DD076E
:100248000130DE02031D2C29003086317F2608008C
:10025800430191149F285B08860087010108430128
:100268008C000130F80078084001DB0708004301E2
:10027800111F49290130F80078084001C9070430E6
:1002880086317F2643011113080091150830F800C4
:1002980078084001DF0008000830F8007808DF001F
:1002A80043019115080043010C08F80040015B0860
:1002B80086008701780881000130F8007808DB079C
:1002C8000130DA0203197029430191120630F8004F
:1002D80078084001DF0074294301911687312727E8
:1002E800430111160800003086317F2608000130CE
:1002F800F8007808C907063086317F2608004001D3
:100308005F08F800F9017908003A03198C297B295C
:100318007808003A03197A28013A0319A528033AFC
:100328000319ED28013A03190C29073A031977290B
:10033800013A03193B29033A03195029013A0319D1
:1003480077290F3A03195729023A0319A628013ABF
:100358000319C8287B2908008731AB278131400160
:100368002108A7002008A6004A082602A2004B0878
:10037800273BA30000302302323003192202031C5A
:1003880008002708CB002608CA00A5012508A200F6
:100398000230A235FF3E031DCD292235B83EA30009
:1003A8002308A800280886008701403FA200413F93
:1003B800A30022088600230887000130A40028082B
:1003C800023E84008501000AEA29A435890BE9293F
:1003D80024080105031DF7292808033E8600870124
:1003E8008101810AFC292808033E860087018101D2
:1003F8002808033E860087010108031D112A2808E2
:10040800043E860087010103031D112A2808053EC2
:10041800860087018101810A4F2A2808033E860049
:1004280087010103031D392A2808043E8600870135
:100438000103031D392A2808063E86008701403F2C
:100448002602A200413F273BA30001302302F530DA
:1004580003192202031C4F2A0230A2002808053E75
:1004680086008701220881004F2A2808033E86005B
:1004780087010103031D4F2A2808043E86008701CF
:100488000108031D4F2A2808063E86008701260812
:10049800C03F2708C13F2808033E8600870101089E
:1004A800A2002808043E8600870122088100013046
:1004B800A2002208A5070430250203180800CA294B
:1004C800273040013D02103003193C02031C9B2ACF
:1004D8004530BE003E08B4000030B500B60000301C
:1004E80085315825823145304001BE003E08B400B0
:1004F8000030B500B60001308531582582314530CD
:100508004001BE003E08B4000030B500B60002301D
:1005180085315825823145304001BE003E08B4007F
:100528000030B500B6000330853158250800C101F8
:10053800C201C101C2010A304001A0000030A1007F
:100548003D08A3003C08A200853103258231400103
:100558002108C0002008BF003F08303EBE003E080A
:10056800B4000030B500B6004108033C8531582579
:1005780082310A304001A0000030A1003D08A300EC
:100588003C08A20084316F24823140012108BD005B
:100598002008BC000130C1070030C23D4208803A43
:1005A800BE0080303E02031DDB2A043041020318DE
:1005B80008009F2A8731AB27823140012108410179
:1005C800E500400120084101E40040015708863158
:1005D800C42682314001200821040319F62A8631F5
:1005E800AE26080056088631C4268231400120080C
:1005F80021040319022B8631DA26080057088731AF
:10060800152782314001200821040319252B4A08A7
:10061800410164024001C3004B084101653B4001B0
:10062800C40000304402323003194302031C08009E
:10063800410165084001CB00410164084001CA003E
:10064800F32A5608873115278231400120082104F2
:10065800031908004A08410164024001C3004B081D
:100668004101653B4001C4000030440232300319A7
:100678004302031C0800410165084001CB00410109
:1006880064084001CA00FF2A00348234213400344F
:10069800003400340034023439340F340034003468
:1006A80000344034803400343F3406345B344F34F3
:1006B80066346D347D3407347F346F34003400344D
:1006C8000034483400345334003477347C343934BB
:1006D8005E34793471346F34763406341E34003421
:1006E8003834003454343F347334673450346D3400
:1006F80078343E340034003400346E3400343934F5
:1007080000340F340034083463345F347C34583494
:100718005E347B3471346F34743402341E340034E4
:100728000634003454345C347334673450346D34D4
:1007380078341C340034003400346E3400343934D6
:1007480030340F34003400344001A3004718DC2B48
:100758000230A200210886008701220881002008B3
:10076800A200450A86008701220881002308A2000A
:10077800450886008701220881002108A200450853
:10078800023E86008701220881000330A200220869
:10079800C5074508693A031DD52B6630A200220813
:1007A800C500C71046084506031DE12B4714E12B79
:1007B8002108860087018101810A210886008701B6
:1007C80002300106031D08008731B7274E010F14B8
:1007D80008004E019912A4304001A0000430A10085
:1007E8008731642783314E0119122D304001A00052
:1007F8000630A10087319F278331083042019F00CE
:1008080090309D0004309E001F309B009C01C93031
:100818004001A0000730A100873176278331BC3022
:100828004001A0000730A10087316D278331C33014
:100838004001A0000730A10087317F274001E00177
:10084800F301F2010830A2002208ED00F101F001E5
:10085800E1014E0199160800B8304001A5002508AD
:10086800D400C030A5002508D700C830A500250849
:10087800D600D030A5002508D5000E30A0000030E5
:10088800A1000230A5002508A200540886314A2696
:1008980084310C304001A0000030A1000230A500D6
:1008A8002508A200550886314A2684310E304001B9
:1008B800A0000030A100A201560886314A268431E2
:1008C8000E304001A0000030A100A201A20A570882
:1008D80086314A2608004001A601A7012008210404
:1008E80003199F2CA501A50AA11B842C0130A03552
:1008F800A10D890B7B2C0130A4002408A507782CB6
:100908000130A635A70D890B852C21082302031D6C
:100918008F2C20082202031C962C2008A2022108F2
:10092800A33B26140130A136A00C890B972C01306B
:10093800A502031D842C2708A1002608A000080092
:100948007108A03E86008701810142011D1DB72C58
:100958007108A03E860087018114410161088A0060
:1009680060080A00843142019D1CC52C7108A03E14
:1009780086008701011541015F088A005E080A00A8
:1009880084317108A03E8600870101080319D32C21
:1009980041015D088A005C080A008431080086313C
:1009A800972608004001980199019A013F3092006A
:1009B800F0309300FF309400F8307E01CE00E03034
:1009C800C3000330B800C4010430B9000730CF00B9
:1009D800BA01C501D0013730BB00F030C600FF3086
:1009E800D10005307D01C50014307E01940013301C
:1009F800950004307D01C6000C30CB000800400192
:100A08002008210403192B2DA501A50AA11B162DC9
:100A18000130A035A10D890B0D2D0130A40024084B
:100A2800A5070A2D21082302031D1C2D20082202D8
:100A3800031C222D2008A2022108A33B0130A13665
:100A4800A00C890B232D0130A502031D162D2308A8
:100A5800A1002208A00008004001941314131412E6
:100A680094110130450190008E1746018E170E082B
:100A7800F0390C388E0092171208F0390C389200B1
:100A880096171608F0390C3896009A171A08F03994
:100A98000C389A0009307E01A7000A30A6000B30F6
:100AA800A4000C30A30008004001BA003408283E16
:100AB800840083300318013E85000008B70037081A
:100AC800BB003408283E840083300318013E8500AB
:100AD8000008B7003508B8000630B835FF3E031DDA
:100AE800712D38353704B9003908AE003A08343E5C
:100AF8008631102608004001AD004718A02D2D08AA
:100B0800AB002B08A0002708AC002C08A10029087E
:100B1800A3002808A20062308531F02585316230B3
:100B28004001AB002B08A0002A08AC002C08A1004B
:100B380001308331A82308002A0886008701810133
:100B4800810A0800873103278531853130258531B1
:100B5800873190278531400113131913CB30A0003A
:100B68000530A1008731642785318B170B17873132
:100B7800982785318431302485318731882785311C
:100B88008131B02185318231DE228531C42D400189
:100B98001917191342011D1DD52D4001D201D3018A
:100BA800DA2D01304001D2070030D33DEF30F60096
:100BB8002530F70052087607F8005308773DF9000A
:100BC80078088600790887004201190881009D1C71
:100BD80008001D121D1608004001A6002308A500E4
:100BE8002208A400A435A50D26088600870124083C
:100BF800C03F2508C13F2108A4002608023E860000
:100C08008701240881002008A4002608033E8600E6
:100C180087012408810008004001B2000230AF00BB
:100C28002F08B300A701A70A3208AF00B0012F08A8
:100C3800A8003008A9003330B1003108AA002E30CE
:100C480085317F258631023040013306031D0800B7
:100C5800272E083040016D020318472E7208B03E57
:100C680086008701010842019A000130F6007608E3
:100C7800F207083072020318F2010130F600760814
:100C88004001ED0708004E01191208004001A400B8
:100C98002408860087012008C03F2108C13F220898
:100CA800A3002408023E8600870123088100240847
:100CB800033E8600870181012408053E86008701DE
:100CC8008101080066304001A0002008C600663097
:100CD800A0002008C500C7144710C90143018F01AF
:100CE80028309000920150308D004E010F108F1067
:100CF800191499140800F7004301111540015C0804
:100D0800023E8600870101080319952E7708F60030
:100D18005C08023E86008701010886008701760884
:100D28008100DF01080042011908F6007108A83E99
:100D380086008701760881000130F6007608F10701
:100D4800083071020318F1010130F60076084001FD
:100D5800E1070800023040016F066E04031DB92E3A
:100D68000130EE000030EF00BD2E0130EE070030FC
:100D7800EF3D6F08BD006E08BC0082316422080098
:100D88004001A3002308053E860087010103031DD7
:100D9800D72E2308053E8600870181010130A00077
:100DA8000030A1000800A001A101080040016E0365
:100DB8006F04031DE42E0030EE000230EF00E82E31
:100DC8000130EE020030EF3B6F08BD006E08BC003A
:100DD80082316422080045304B019F00F9309D00A4
:100DE8009C014E018C129616C8304001A0000730B5
:100DF800A1008731A52780304B019E00080087316C
:100E0800512787318431D624873187315B27873151
:100E18008631662687318631EF2687318331ED2387
:100E280008004001A3002308053E86008701023020
:100E38000106031D242F0130A0000030A100080086
:100E4800A001A10108000430F60076084001DD0782
:100E58000130DE02031D352F0430F6007608DF006E
:100E68000800DF01DF0A08004E018C124001690802
:100E78006A04031908006A088A0069080A008731A9
:100E880008006400800101310130FE020030FF3BA0
:100E98007F087E0403190034462F4F0196019701FD
:100EA800980199019A019B019C019D0108006030FD
:100EB80051018D008F0191010630930092010800C5
:100EC800400121084101E300400120084101E200FE
:100ED8000800400121084101DF00400120084101CC
:100EE800DE000800400121084101E100400120081E
:100EF8004101E0000800400121084101DD004001F6
:100F080020084101DC00080040016F08BD006E08A0
:100F1800BC00823164220800B1304001A0000730D3
:100F2800A1008731A52708004001AE01AE0A243090
:100F380086311026080040012108EC002008EB004B
:100F4800080040012108EA002008E90008004001E3
:100F58004F08A1004E08A000080001304001CE074C
:100F68000030CF3D080040015F0803190800B72F83
:100F780042011D121D1608004E018F10080086310F
:0C0F88009726080001340034080008001F
:020000040001F9
:0A000E00EC3FFF3F9F3FFF3FFF3F25
:00000001FF
