:020000040000FA
:0400000080313328F0
:100008007E1480314E01961A8C1E0E2885314B25A0
:10001800803131280B1F312899188F1C17288531FA
:10002800CE258031312819180F1C1E2880316720F1
:1000380080313128191A0F1E2828410149088A00E1
:1000480048080A0080313128991A8F1E3128410149
:1000580047088A0046080A0080317E10090080316E
:1000680035288531D4258031ED008531D52580317D
:10007800EE00EF308400253085000130FE000230AC
:10008800FF00853158258031F001F101F201F301BB
:10009800F401F50120308400003085003830FE007E
:1000A8000030FF00853158258031A03084000030B1
:1000B80085002030FE000030FF00853158257E1075
:1000C80040018431622C4E010F104301901F832997
:1000D80090134001CA014708023E860087010108C3
:1000E800860087018101810AC7010800B21808004B
:1000F8003108F8007808C700310886008701010830
:10010800F8007808C900310886008701413FC80017
:100118000330F8007808B1073108583A031D9828C9
:100128005530F8007808B10032103108300603194C
:10013800B214430111140230F80078084001CA00D3
:1001480008002C294301111FB2280130F800780853
:100158004001B40704308431D32408007508F9003D
:100168007408F800F936F80C78088C00741CC2285A
:100178000B30F80078084001CA0008000330F80086
:1001880078084001CA0008004301111FD428013033
:10019800F80078084001B40704308431D3240800FB
:1001A80091147508F9007408F8007908F800F90145
:1001B80006307805FA0000307905FB00F0307A0443
:1001C800F40000307B04F50074144001C401C40A33
:1001D8009F28440303190129480886008701403FE6
:1001E800F400413FF500480886008701433FC600F8
:1001F800480886008701423FC500740843018C0007
:10020800741CC2280530F80078084001CA000800AC
:100218004301111F1A290130F80078084001B4077A
:100228004301111305308431D32408000130400103
:10023800C502450A031D2F290430F8007808C807AD
:100248000130C902031D2C2900308431D324080051
:10025800430191149F28460886008701010843013D
:100268008C000130F80078084001C60708004301F7
:10027800111F49290130F80078084001B4070430FB
:100288008431D32443011113080091150830F80074
:1002980078084001CA0008000830F8007808CA0049
:1002A80043019115080043010C08F8004001460875
:1002B80086008701780881000130F8007808C607B1
:1002C8000130C50203197029430191120630F80064
:1002D80078084001CA0074294301911685313A25EE
:1002E80043011116080000308431D324080001307E
:1002F800F8007808B40706308431D3240800400198
:100308004A08F800F9017908003A03198C297B2971
:100318007808003A03197A28013A0319A528033AFC
:100328000319ED28013A03190C29073A031977290B
:10033800013A03193B29033A03195029013A0319D1
:1003480077290F3A03195729023A0319A628013ABF
:100358000319C8287B2908008531B9258131400156
:100368005908E0005808DF0035085F02DC0036084D
:10037800603BDD0000305D02323003195C02031C73
:1003880008006008B6005F08B500E1010630DC002F
:100398005C08D8006108853128258131A83E4001D4
:1003A800DD005D08E200620886008701403FDC004E
:1003B800413FDD005C0886005D0887000130DE00F3
:1003C8006208023E84008501000AEB29DE35890BAC
:1003D800EA295E080105031DF8296208033E860024
:1003E80087018101810AFD296208033E8600870191
:1003F80081016208033E860087010108031D112A56
:100408006208043E860087010103031D112A620861
:10041800053E860087018101810A6208033E860045
:1004280087010108DC006208043E860087015C0839
:1004380081000130DC005C08E10704306102031828
:100448000800CA29003482342134003400340034CE
:100458000034023439340F3400340034003440346A
:10046800803400343F3406345B344F3466346D34A2
:100478007D3407347F346F3400340034003448341A
:1004880000345334003477347C3439345E3479346E
:1004980071346F34763406341E3400343834003402
:1004A80054343F347334673450346D3478343E34C4
:1004B8000034003400346E340034393400340F34DE
:1004C8000034083463345F347C3458345E347B340D
:1004D80071346F34743402341E34003406340034FA
:1004E80054345C347334673450346D3478341C3489
:1004F8000034003400346E340034393430340F346E
:10050800003400344001DB003218BA2A0230DA0025
:100518005908860087015A0881005808DA00300A0D
:10052800860087015A0881005B08DA0030088600D7
:1005380087015A0881005908DA003008023E86000F
:1005480087015A0881000330DA005A08B0073008DA
:10055800583A031DB32A5530DA005A08B000B210D1
:1005680031083006031DBF2A3214BF2A59088600F5
:1005780087018101810A5908860087010230010636
:10058800031D08008531C5254E010F1408004E01D2
:1005980099124D304001D8000330D90085318025AB
:1005A80082314E01191281304001D8000430D9003F
:1005B800853177258231083042019F0090309D00B7
:1005C80004309E001F309B009C01D7304001D800AA
:1005D8000530D900853192258231CA304001D800D2
:1005E8000530D900853189258231D1304001D800C4
:1005F8000530D90085319B254001CB01F301F2017B
:100608000830DA005A08EC00F101F001CC014E0183
:1006180099160800A8304001DD005D08BF00AE3023
:10062800DD005D08C200B430DD005D08C100BA30ED
:10063800DD005D08C0000E30D8000030D90002305F
:10064800DD005D08DA003F0884319E2483310C30D8
:100658004001D8000030D9000230DD005D08DA0022
:10066800400884319E2483310E304001D800003088
:10067800D900DA01410884319E2483310E304001CB
:10068800D8000030D900DA01DA0A420884319E2401
:1006980008007108203E86008701810142011D1D66
:1006A800602B7108203E86008701811441014508AE
:1006B8008A0044080A00833142019D1C6E2B710890
:1006C800203E860087010115410143088A0042083F
:1006D8000A0083317108203E86008701010803194A
:1006E8007C2B410141088A0040080A008331080038
:1006F8008431EB2408004001980199019A013F30A8
:100708009200F0309300FF309400F8307E01CE0064
:10071800E030C3000330B800C4010430B90007302A
:10072800CF00BA01C501D0013730BB00F030C60098
:10073800FF30D10005307D01C50014307E019400E2
:100748001330950004307D01C6000C30CB00080042
:1007580040019413141314129411013045019000B0
:100768008E1746018E170E08F0390C388E00921736
:100778001208F0390C38920096171608F0390C3820
:1007880096009A171A08F0390C389A0009307E0139
:10079800A7000A30A6000B30A4000C30A300080004
:1007A8004001E5003218F52B6508E3006308D8001E
:1007B8005F08E4006408D9006108DB006008DA001B
:1007C800513084314224833151304001E3006308C1
:1007D800D8006208E4006408D9000130823186221A
:1007E80008006208860087018101810A080040012B
:1007F8001917191342011D1D052C4001BD01BE0129
:100808000A2C01304001BD070030BE3DEF30F60034
:100818002530F7003D087607F8003E08773DF900D7
:1008280078088600790887004201190881009D1C14
:1008380008001D121D1608004101CA0002304001BF
:10084800E70067084101CB004001DF01DF0A4101F1
:100858004A084001E700E8016708E0006808E1008D
:10086800CB30E9006908E20066308331D423843153
:10087800023041014B06031D08003C2C4001DE00FC
:100888005B08DD005A08DC00DC35DD0D5E088600FB
:1008980087015C08C03F5D08C13F5908DC005E085D
:1008A800023E860087015C0881005808DC005E086B
:1008B800033E860087015C08810008008531162503
:1008C80084318331AC2384318531A42584314001BE
:1008D80013131913FB30D8000330D9008531802554
:1008E80084318B170B178531AC25843183310E2366
:1008F80084318131B02184317D2C083040016C0273
:1009080003189B2C7208283E8600870101084201C3
:100918009A000130F6007608F207083072020318D0
:10092800F2010130F60076084001EC0708004E019C
:10093800191208004001DC005C088600870158088D
:10094800C03F5908C13F5A08DB005C08023E8600D8
:1009580087015B0881005C08033E860087018101EE
:100968005C08053E8600870181010800553040017A
:10097800D8005808B1005530D8005808B000B21453
:100988003210B40143018F01283090009201503099
:100998008D004E010F108F10191499140800F700DC
:1009A8004301111540014708023E860087010108EE
:1009B8000319E92C7708F6004708023E86008701EC
:1009C80001088600870176088100CA0108004201F3
:1009D8001908F6007108A03E860087017608810094
:1009E8000130F6007608F107083071020318F101AA
:1009F8000130F60076084001CC07080045304B016D
:100A08009F00F9309D009C014E018C129616D6303D
:100A18004001D8000530D9008531B32580304B011D
:100A28009E00080085316425853183317F23853117
:100A380085316E2585318431BA2485318531022589
:100A480085318231CB2208004001DB00DA015B1CD2
:100A5800312D5808D9005908DA070310D80D0310AA
:100A6800DB0C5B08031D2B2D5A0808000430F60028
:100A780076084001C8070130C902031D482D04301B
:100A8800F6007608CA000800CA01CA0A08004E0122
:100A98008C1240016A086B04031908006B088A006D
:100AA8006A080A00853108006400800101310130BC
:100AB800FE020030FF3B7F087E0403190034592DE5
:100AC8004F0196019701980199019A019B019C0198
:100AD8009D010800603051018D008F0191010630A1
:100AE800930092010800400159084101C9004001E2
:100AF80058084101C8000800400159084101C700D1
:100B0800400158084101C600080040015908410148
:100B1800C300400158084101C200080040015908BB
:100B28004101C500400158084101C40008004001C6
:100B380059084101C100400158084101C00008009E
:100B4800BF304001D8000530D9008531B3250800F1
:100B58004001E601E60A24308431202408004001DF
:100B68005908EB005808EA00080040013A08D90083
:100B78003908D800080001304001B9070030BA3DF3
:100B8800080040014A0803190800C52D42011D123A
:100B98001D1608004E018F1008008431EB24080050
:080BA8000134003408000800CC
:020000040001F9
:0A000E00EC3FFF3F9F3FFF3FFF3F25
:00000001FF
