:020000040000FA
:1000000080313928013400347E1480314E01961A33
:100010008C1E0E288731F327803137280B1F372895
:1000200099188F1C17289D313825803137281918C9
:100030000F1C1E288A31DB2280313728191A0F1E27
:10004000282842016E088A006D080A00803137288E
:10005000991A8F1E3228430165088A0064080A0035
:100060008031372897188D1C3728903100207E105A
:10007000090080313B284101803102208031EE00AF
:10008000803103208031EF00E13084009D30850015
:100090005E308600013087000030FF000B309D315C
:1000A000F82580313C3084009E308500CA308600BF
:1000B000013087000030FF0014309D31F825803179
:1000C000EF308400253085000130FE000230FF0053
:1000D0009D31EC258031F001F101F201F301F401D1
:1000E000F501E901EA01EB01EC01ED0120308400AA
:1000F000013085003E30FE000030FF009D31EC25D0
:100100008031A0308400013085002A30FE000030AC
:10011000FF009D31EC2580312030840002308500C5
:100120002030FE000030FF009D31EC257E104001A4
:1001300091317E290230AF3E86008701403F400169
:10014000B700413FB800423FB900433FBA0000301A
:10015000BE000030BD000030BC000030BB0092315A
:10016000A2228031031CF2280130D73E860087018D
:100170000230D73E84008501410138084001C400A7
:10018000410137084001C300410136084001C20067
:10019000410135084001C1004330C0007F30BF003D
:1001A0000030BE000030BD008331F82380314001B3
:1001B00040084101A70040013F084101A60040015D
:1001C0003E084101A50040013D084101A4009431D1
:1001D0002324803141012408803FC03FB900390801
:1001E000D700E72B43304001BA00B430B9000030EB
:1001F000B8000030B70041012F084001A9004101BB
:1002000030084001AA00890D893B8909AB00AC0088
:10021000013096310226803140012C08BE002B08A7
:10022000BD002A08BC002908BB0086312426803185
:1002300040013A084101D200400139084101D10092
:10024000400138084101D000400137084101CF008A
:100250000630AF3E86008701403F4001D700413F56
:10026000D800423FD900433FDA003F30DE00003083
:10027000DD000030DC000030DB00953103258031EB
:10028000031CB5290230AF3E86008701403F400184
:10029000A900413FAA00423FAB00433FAC000630FB
:1002A000AF3E86008701403FAD00413FAE00423F78
:1002B000AF00433FB0008C313A24803140012C081C
:1002C0004101BE0040012B084101BD0040012A0848
:1002D0004101BC00400129084101BB000230AF3E92
:1002E00086008701403F4001BD00413FBE00423FC4
:1002F000BF00433FC0000630AF3E86008701403F4D
:10030000C100413FC200423FC300433FC4008331AC
:10031000F823803140014008DA003F08D9003E0848
:10032000D8003D08D70041013E084001DE004101F0
:100330003D084001DD0041013C084001DC00410175
:100340003B084001DB009F313927803140015A08CA
:100350004101D600400159084101D500400158082B
:100360004101D40040015708F3290630AF3E860012
:100370008701403F4001BD00413FBE00423FBF00FA
:10038000433FC0003F30AC008030AB000030AA00DB
:100390000030A9000230AF3E86008701403FAD002B
:1003A000413FAE00423FAF00433FB0008C313A24A2
:1003B000803140012C08C4002B08C3002A08C20069
:1003C0002908C1008331F8238031400140084101F0
:1003D000D60040013F084101D50040013E084101DF
:1003E000D40040013D084101D30056084001DA0025
:1003F000410155084001D900410154084001D8008D
:10040000410153084001D7004030C0000030BF0018
:100410000030BE000030BD000630AF3E86008701D0
:10042000403FC100413FC200423FC300433FC400C0
:100430008331F823803140014008DE003F08DD00B1
:100440003E08DC003D08DB009F3139278031400148
:100450005A084101CE00400159084101CD00400138
:1004600058084101CC00400157084101CB00520817
:100470004001B000410151084001AF004101500866
:100480004001AE0041014F084001AD003E30AC00DC
:10049000AA30AB00AA30AA00AB30A9008C313A24B4
:1004A000803140012C084101C60040012B08410168
:1004B000C50040012A084101C4004001290841014A
:1004C000C30046084001EE00410145084001ED002F
:1004D000410144084001EC00410143084001EB00A8
:1004E000410156084001EA00410155084001E90078
:1004F000410154084001E800410153084001E70070
:1005000041014E084001E60041014D084001E5006F
:1005100041014C084001E40041014B084001E30067
:100520008E311C268031400166084101CA0040011D
:1005300065084101C900400164084101C80040014B
:1005400063084101C7004A084001C400410149084D
:100550004001C300410148084001C2004101470871
:100560004001C1004330C0007F30BF000030BE00FA
:100570000030BD008331F823803140014008410143
:10058000A70040013F084101A60040013E0841018B
:10059000A50040013D084101A4009431232480318D
:1005A00041012408B9003908D70052084001EE0083
:1005B000410151084001ED00410150084001EC00AB
:1005C00041014F084001EB00410156084001EA009B
:1005D000410155084001E900410154084001E8008B
:1005E000410153084001E70041014E084001E60087
:1005F00041014D084001E50041014C084001E40083
:1006000041014B084001E3008E311C26803140013E
:1006100066084101C200400165084101C100400176
:1006200064084101C000400163084101BF00420865
:100630004001C400410141084001C300410140089C
:100640004001C20041013F084001C1004330C000E9
:100650007F30BF000030BE000030BD008331F82382
:100660008031400140084101A70040013F0841019D
:10067000A60040013E084101A50040013D0841019E
:10068000A40094312324803141012408B9003908A1
:10069000D80052084001B000410151084001AF00AC
:1006A000410150084001AE0041014F084001AD003A
:1006B000BE30AC00AA30AB00AA30AA00AB30A90013
:1006C0008C313A24803140012C084101C6004001A0
:1006D0002B084101C50040012A084101C400400126
:1006E00029084101C30046084001EE0041014508C8
:1006F0004001ED00410144084001EC004101430884
:100700004001EB00410156084001EA004101550853
:100710004001E900410154084001E800410153084B
:100720004001E70041014E084001E60041014D084B
:100730004001E50041014C084001E40041014B0843
:100740004001E3008E311C268031400166084101E2
:10075000CA00400165084101C90040016408410127
:10076000C800400163084101C7004A084001C400B5
:10077000410149084001C300410148084001C2004D
:10078000410147084001C1004330C0007F30BF0035
:100790000030BE000030BD008331F82380314001BD
:1007A00040084101A70040013F084101A600400167
:1007B0003E084101A50040013D084101A4009431DB
:1007C0002324803141012408B9003908D900580890
:1007D000B90039084001A00041015908BA003A089F
:1007E0004001A100A20141015708923120220800D6
:1007F000400140088039C5004508CA004035C500A1
:100800004508D000BF1B501450080319142C500A7F
:10081000031D122C0030C0000030BF000030BE00AD
:100820000030BD00BF171C2C0030C0000030BF00DE
:100830000030BE000030BD0044088039C5004508C6
:10084000CA064435C5004508CB00C31B4B144B08F2
:100850000319372C4B0A031D352C0030C40000301F
:10086000C3000030C2000030C100C3173F2C00306D
:10087000C4000030C3000030C2000030C1004B088B
:10088000031D5008031D4D2C0030C0000030BF0078
:100890000030BE000030BD0008003D08C50045081E
:1008A000A00043089F317827833140012108D600FA
:1008B0002008D5005508C500C601C701C801480871
:1008C000CF004708CE004608CD004508CC005608AA
:1008D000C500C601C701C8014808D4004708D300B5
:1008E0004608D2004508D1003E08C5004508A000D2
:1008F00042089F317827833140012108D600200823
:10090000D5005508C500C601C701C8014508CC0778
:100910004608CD3D4708CE3D4808CF3D5608C500A6
:10092000C601C701C8014508D1074608D23D47089E
:10093000D33D4808D43D3F08C5004508A000410804
:100940009F317827833140012108D6002008D50047
:100950005508C500C601C701C8014508CC074608AF
:10096000CD3D4708CE3D4808CF3D5608C500C601DD
:10097000C701C8014508D1074608D23D4708D33D05
:100980004808D43D0830CC35CD0DCE0DCF0D890BA8
:10099000C32C3E08C5004508A00041089F317827B8
:1009A000833140012108D6002008D5005508CC0726
:1009B0005608CD3D0030CE3DCF3D3D08C500450831
:1009C000A00042089F317827833140012108D600DA
:1009D0002008D5005508CC075608CD3D0030CE3D47
:1009E000CF3D0830CC35CD0DCE0DCF0D890BF22C7F
:1009F0003D08C5004508A00041089F317827833194
:100A000040012108D6002008D5005508CC0756081B
:100A1000CD3D0030CE3DCF3D3E08C5004508A0008D
:100A200043089F317827833140012108D6002008F0
:100A3000D5005508D1075608D23D0030D33DD43DEE
:100A40003F08C5004508A00042089F317827833140
:100A500040012108D6002008D5005508D1075608C6
:100A6000D23D0030D33DD43D3F08C5004508A0002D
:100A700043089F317827833140012108D6002008A0
:100A8000D5005508C5005608C600C701C801083082
:100A9000C535C60DC70DC80D890B482D4508D107B2
:100AA0004608D23D4708D33D4808D43D4C08C50010
:100AB0004D08C6004E08C7004F08C8001830C83699
:100AC000C70CC60CC50C890B5F2D4508D10746081D
:100AD000D23D4708D33D4808D43D0830CC35CD0D34
:100AE000CE0DCF0D890B6E2D50084B07C500C601EA
:100AF000C60D4508823ED500FF30463DD600D31BCB
:100B0000962D0130D135D20DD30DD40D890B822D08
:100B1000CF1B51140130CC35CD0DCE0DCF0D890B2F
:100B20008B2DFF30D507FF30D63D7F2DCB01CF1F5A
:100B3000AF2DFF304C05C500FF304D05C600FF301E
:100B40004E05C7007F304F05C800480847044604DB
:100B5000450403195118AD2DAF2DCB01CB0A4B081D
:100B60000319D82D0130D1070030D23D0030D33DDC
:100B70000030D43D541CD82D5108C5005208C60081
:100B80005308C7005408C8000130C900C837C70C53
:100B9000C60CC50CC90BC62D4808D4004708D300A5
:100BA0004608D2004508D1000130D5070030D63DB7
:100BB0005608803AC50080304502031DE12DFF3004
:100BC0005502031CED2D7F304001D4008030D3004E
:100BD0000030D2000030D100172E40015608803A74
:100BE000C50080304502031DF72D01305502031862
:100BF000042E00304001D4000030D3000030D20079
:100C00000030D100CA01172E40015508C500450823
:100C1000D000FF30D105FF30D2057F30D305003042
:100C2000D4055018D3175036C5004508D4004A08DB
:100C3000C5004508D4045408C0005308BF0052083A
:100C4000BE005108BD00080040013E088039BF00C9
:100C50003F08C8003E35BF003F08CF00BD1B4F1402
:100C60004F080319412E4F0A031D3E2E0030BE00CF
:100C70000030BD000030BC000030BB00BD17BE011D
:100C8000492E0030BE000030BD000030BC000030F6
:100C9000BB003A088039BF003F08C8063A35BF009C
:100CA0003F08D000B91B501450080319652E500A94
:100CB000031D622E0030BA000030B9000030B800C9
:100CC0000030B700B917BA016D2E0030BA000030FD
:100CD000B9000030B8000030B7003A0839043804D1
:100CE0003704031D8C2E0030BE000030BD000030E4
:100CF000BC000030BB008030BD047F30BE0448081B
:100D0000BF003F08BE043E08BA003D08B9003C08D9
:100D1000B8003B08B70008004F08031D982E0030AC
:100D2000BA000030B9000030B8000030B700080049
:100D30004F08BF00C0014008C20050083F02C10078
:100D4000031CC20341087F3EC9000030423DCA0077
:100D50003E08C7003D08C6003C08C5003B08C4006B
:100D60000030BE000030BD000030BC000030BB00D1
:100D70000030CE000030CD000030CC000030CB0081
:100D8000D0011A3050020318FD2E50080319DF2E2F
:100D90000130C435C50DC60DC70D890BC92E0130F4
:100DA000BB35BC0DBD0DBE0D890BD02ECE1B3B142B
:100DB0000130CB35CC0DCD0DCE0D890BD92E3A0897
:100DC0004702031DED2E39084602031DED2E38089B
:100DD0004502031DED2E37084402031CF82E4E1762
:100DE0003708C4023808C53B3908C63B3A08C73B38
:100DF0000130BF003F08D007C12E47084604450414
:100E00004404031D4B14BD1B1A2F0130BB35BC0D10
:100E1000BD0DBE0D890B062FCE1B3B140130CB350B
:100E2000CC0DCD0DCE0D890B0F2FFF30C907FF3034
:100E3000CA3D032FD001CE1F332FFF304B05BF001B
:100E4000FF304C05C000FF304D05C1007F304E051E
:100E5000C2004208410440043F0403193B18312FEB
:100E6000332FD001D00A500803195C2F0130BB0783
:100E70000030BC3D0030BD3D0030BE3D3E1C5C2F0F
:100E80003B08BF003C08C0003D08C1003E08C2004E
:100E90000130C300C237C10CC00CBF0CC30B4A2FBA
:100EA0004208BE004108BD004008BC003F08BB002E
:100EB0000130C9070030CA3D4A08803ABF0080307F
:100EC0003F02031D652FFF304902031C742FFF30C2
:100ED0004001C9000030CA000030BE000030BD0033
:100EE0000030BC000030BB0040014A08803ABF001F
:100EF00080303F02031D7E2F0130490203188C2FE2
:100F00004001C901CA010030BE000030BD00003000
:100F1000BC000030BB00C80140014908BF003F08C9
:100F2000CF004F1C952FBD17992F7F30BF003F0872
:100F3000BD054F36BF003F08BE007F2E4001A30015
:100F400042012218E02F02304001A2002108860051
:100F50008701220881002008A2004201200A8600A1
:100F6000013087004001220881002308A2004201CD
:100F700020088600013087004001220881002108F6
:100F8000A20042012008023E860001308700400195
:100F9000220881000330A20022084201A007200895
:100FA0005E3A031DD92F5B304001A20022084201A6
:100FB000A000A21021082006031DE62F2214E62F10
:100FC00040012108860087018101810A4001210832
:100FD0008600870102300106031D08009D314D2562
:100FE0004E010F1408004E018C1242016B086C0474
:100FF000031908006C088A006B080A008731080092
:1010000042011908F6007108B23E860001308700DF
:10101000760881000130F6007608F1070830710289
:101020000318F1010130F60076084101ED070800D0
:101030009D313E258831003A031935289231EB2243
:101040008831EE304001CD000030CE000030CF00BE
:101050000230D0000130D1000030D2000130D30086
:101060000030D4009631982608009F311C27883123
:101070000230420135063604031D482800309E31F7
:10108000502688319E31042688318831D0200800CE
:1010900035033604031D8C286408031989280130A0
:1010A0009E315026883150304101E80068084001E7
:1010B000B4000030B500B60000309E31C72688313C
:1010C0004C304101E80068084001B4000030B50030
:1010D000B60001309E31C726883153304101E80007
:1010E00068084001B4000030B500B60002309E31FF
:1010F000C726883145304101E80068084001B40046
:101100000030B500B60003309E31C7268831420159
:10111000E4018931A921080035083604031D0800BF
:1011200064080319CD2801309E31502688314330A0
:101130004101E80068084001B4000030B500B60085
:1011400000309E31C726883159304101E8006808D7
:101150004001B4000030B500B60001309E31C72612
:10116000883143304101E80068084001B400003094
:10117000B500B60002309E31C72688314C3041019F
:10118000E80068084001B4000030B500B600033044
:101190009E31C72688314201E40195317F25080040
:1011A0009D313B258831003A031D08009D317B2588
:1011B000883142013F0840012002A8004201400856
:1011C0004001213BA9004201610840012902031DA1
:1011D000ED284201600840012802031C08009D31EF
:1011E0007B258831400121084201C00040012008D0
:1011F0004201BF0041016903031D0429013042017E
:10120000BD070030BE3D0B294201BD01BE011430B7
:10121000E0000030E10041016903031D5229420151
:101220004F08031D5229D001D00A6430E00000307D
:10123000E1009D317B2588314201430840012002B5
:10124000AA00420144084001213BAB009D317B25AF
:101250008831400121084201C400400120084201B8
:10126000C300003040012B02963003192A020318F4
:101270003F2990304201C1000130C20052292B08A1
:10128000A1002A08A0006030A200EA30A30090313B
:10129000DF208831400121084201C20040012008BE
:1012A0004201C100410169084001A800280842012B
:1012B000CF004101E90142013E08803A4001A80007
:1012C00080302802031D6729043042013D02031CBF
:1012D000862901304201E2070030E33D6308400106
:1012E000A100420162084001A0009D3169258831BA
:1012F0004201BD01BE019D317B2540012108420113
:10130000C400400120084201C30008009D317B2534
:1013100088314201430840012002A80042014408EC
:101320004001213BA90003302902E93003192802BA
:10133000031C080001304201E2020030E33B630875
:101340004001A100420162084001A0009D316925D1
:10135000080065304001CD000130CE005830CF008C
:101360000230D0006430D1000030D2000A30D30007
:101370000030D40096319826893142016608400138
:10138000A300420165084001A200F630A000FF3032
:10139000A1009331D123893140012008A9002108FF
:1013A000AA00890D893B8909AB00AC000130963158
:1013B0000226893140012C08BA002B08B9002A08FE
:1013C000B8002908B700420128084001BE004201C8
:1013D00027084001BD00420126084001BC0042012F
:1013E00025084001BB009231A2228931031C422A08
:1013F000683042012D06031D032A2E03031D032A14
:10140000AD01AE01072A2430AD070030AE3D2E08F5
:101410004301CB0042012D084301CA003F30D300F5
:101420008030D2000030D1000030D0004201660888
:101430004001A300420165084001A2000230A00063
:101440000030A1009331D123893140012008A90047
:101450002108AA00890D893B8909AB00AC00013045
:1014600096310226893140012C084201A800400132
:101470002B084201A70040012A084201A6004001B2
:101480002908C72A00304001DA000030D9000030B6
:10149000D8000030D700420128084001DE00420198
:1014A00027084001DD00420126084001DC0042011E
:1014B00025084001DB0095310325893103189D2A59
:1014C000420165084001A900420166084001AA00E6
:1014D000890D893B8909AB00AC00013096310226A9
:1014E000893140012C08BA002B08B9002A08B8003D
:1014F0002908B700420128084001BE004201270820
:101500004001BD00420126084001BC0042012508FF
:101510004001BB0086312426893140013A0843014D
:10152000D300400139084301D2004001380843018B
:10153000D100400137084301D0003F304001DA00BC
:101540008030D9000030D8000030D7004201280890
:101550004001DE00420127084001DD00420126086B
:101560004001DC00420125084001DB009F313927A2
:10157000893140015A084201A8004001590842013E
:10158000A700400158084201A60040015708420147
:10159000A500CA30860001308700AF3084000030DB
:1015A00085000A304001EF0016001A00EF0BD42A24
:1015B00080319A2008004E010F104301901F0D2C1E
:1015C00090134101EC016A08023E86000130870059
:1015D0000108860087018101810AEA0108004201B1
:1015E000A21808002108F80078084101EA00420129
:1015F00021088600013087000108F8007808D9002A
:1016000021088600013087000130413F4101EB0095
:101610000330F80078084201A10721085E3A031D53
:10162000152B5B30F8007808A10022102108200655
:101630000319A214430111140230F8007808410183
:10164000EC000800B52B4301111F2F2B0130F800CF
:1016500078084201A40704309E31912608007508DD
:10166000F9007408F800F936F80C78088C00741C3E
:101670003F2B0B30F80078084101EC0008000330E4
:10168000F80078084101EC0008004301111F512BBC
:101690000130F80078084201A40704309E319126F9
:1016A000080091147508F9007408F8007908F8002A
:1016B000F90106307805FA0000307905FB00F030BA
:1016C0007A04F40000307B04F50074144201D60162
:1016D000D60A1C2B420156030319882B41016B08C3
:1016E000860001308700403FF400413FF5006B0861
:1016F0008600013087000130433F4201D80041019C
:101700006B088600013087000130423F4201D7005C
:10171000740843018C00741C3F2B0530F8007808D6
:101720004101EC0008004301111FA12B0130F8001A
:1017300078084201A4074301111305309E31912618
:10174000080001304201D702570A031DB82B0430AC
:10175000F80078084101EB0701304201D902031D6E
:10176000B52B00309E3191260800430191141C2BAB
:10177000580886008701010843018C000130F800F9
:1017800078084201D80708004301111FD22B01300D
:10179000F80078084201A40704309E3191264301E5
:1017A0001113080091150830F80078084101EC0089
:1017B00008000830F8007808EC0043019115080093
:1017C00043010C08F8004201580886008701780898
:1017D00081000130F8007808D8070130D7020319DA
:1017E000F92B430191120630F80078084101EC0012
:1017F000FD2B430191169E3114264301111608005A
:1018000000309E31912608000130F800780842012E
:10181000A40706309E319126080041016C08F800AB
:10182000F9017908003A0319162C042C7808003ABB
:101830000319EF2A013A0319222B033A03196A2BE1
:10184000013A0319932B073A0319002C013A0319A3
:10185000C42B033A0319D92B013A0319002C0F3A70
:101860000319E02B023A0319232B013A0319452BE4
:10187000042C080040012C088039B1003108B9005F
:101880002C35B1003108BB00AB1B3B143B080319DE
:10189000572C3B0A031D542C0030AC000030AB0029
:1018A0000030AA000030A900AB17AC015F2C00305B
:1018B000AC000030AB000030AA000030A9003008B6
:1018C0008039B1003108BA003A083906031D3917CA
:1018D0003035B1003108BA00AF1B3A143A08031989
:1018E0007F2C3A0A031D7C2C0030B0000030AF0082
:1018F0000030AE000030AD00AF17B001872C0030D3
:10190000B0000030AF000030AE000030AD003B084A
:101910003A020318CD2C391F912C8030B1003108C8
:10192000B9063B08B1003108BC003A08B1003108E3
:10193000BB003C08B1003108BA002908B1003108E9
:10194000BC002D08B1003108A9003C08B1003108E5
:10195000AD002A08B1003108BC002E08B1003108E2
:10196000AA003C08B1003108AE002B08B1003108D4
:10197000BC002F08B1003108AB003C08B1003108B1
:10198000AF002C08B1003108BC003008B1003108AC
:10199000AC003C08B1003108B000BC013A08B1000D
:1019A000B2013208B4003B083102B300031CB40397
:1019B0003408803AB50080303502031DE12C1A301E
:1019C0003302031C152D40012C082B042A04290482
:1019D0000319EC2C0130ED2C0030B1003108BC00B3
:1019E0000030AC000030AB000030AA000030A9008D
:1019F0003A08B1003108BB001A2D3C1C052D3C36BD
:101A00000138B1003108BC00072D0310BC0C2918A7
:101A1000BC170130B100AC37AB0CAA0CA90CB10B50
:101A20000B2D0130B1003108BB0740013A083B02E1
:101A3000031CFD2C391B4B2D3B08031D282D0030AA
:101A4000AC000030AB000030AA000030A900080054
:101A50002D08A9072E08AA3D2F08AB3D3008AC3D44
:101A60002C1CC52D3C1C3A2D3C360138B1003108E8
:101A7000BC003C2D0310BC0C2918BC170130B10070
:101A8000AC37AB0CAA0CA90CB10B402D0130B10046
:101A90003108BB07C52D2C08803AB1003008803AC8
:101AA0003102031D5D2D2F082B02031D5D2D2E0815
:101AB0002A02031D5D2D2D0829020318952DFF30E4
:101AC000B100FF30B200FF30B300FF30B40029088E
:101AD0002D02B5002A082E3BB6002B082F3BB7007D
:101AE0002C08303BB8003508B1073608B23D37083E
:101AF000B33D3808B43D3408AC003308AB003208BD
:101B0000AA003108A9008030B1003108B906BC092B
:101B1000BC0A3C08031D9D2D0130A9070030AA3DD9
:101B20000030AB3D0030AC3D9D2D2D08A9022E08A4
:101B3000AA3B2F08AB3B3008AC3B2C082B042A04F3
:101B40002904031DC32D3C08031DC32D0030AC0028
:101B50000030AB000030AA000030A90008000130BE
:101B6000A935AA0DAB0DAC0D890BB02DBC1B2914EA
:101B70003C1CBC2D0314BD2D0310BC0D3B080319E8
:101B8000C32D0130BB02AB1FAF2DBA01BC1FD02D3E
:101B90003C087F3903192918CE2DD02DBA01BA0A75
:101BA0003A080319FC2D0130A9070030AA3D003086
:101BB000AB3D0030AC3D2C1CFC2D2908B1002A089F
:101BC000B2002B08B3002C08B4000130B500B437C4
:101BD000B30CB20CB10CB50BE72D3408AC003308D4
:101BE000AB003208AA003108A9003B0A0319FC2DFA
:101BF0000130B1003108BB073B0A031D3B08031D40
:101C00000C2E0030AC000030AB000030AA000030D9
:101C1000A9003B080319B9013B1C102EAB17142E69
:101C20007F30B1003108AB053B36B1003108AC0064
:101C3000B91F0800AC17080040016E08DA006D08F3
:101C4000D9006C08D8006B08D7000030DE000030E7
:101C5000DD000030DC000030DB00953103258E31E3
:101C600003184F2E3F304001AC008030AB000030F5
:101C7000AA000030A9006E08B0006D08AF006C0823
:101C8000AE006B08AD008C313A248E3140012C0837
:101C9000EE002B08ED002A08EC002908EB003F308D
:101CA0004001DA008030D9000030D8000030D70081
:101CB0006E08DE006D08DD006C08DC006B08DB00E0
:101CC000953103258E310318822E3F304001DA0012
:101CD0008030D9000030D8000030D7006E08DE0018
:101CE0006D08DD006C08DC006B08DB009F313927D4
:101CF0008E3140015A08EE005908ED005808EC00FA
:101D00005708EB0040304001C000C030BF00003039
:101D1000BE000030BD006E08C4006D08C3006C0832
:101D2000C2006B08C1008331F8238E3140014008A6
:101D3000DA003F08D9003E08D8003D08D7003F3000
:101D4000DE008030DD000030DC000030DB0095314B
:101D500003258E3103181D2F40304001C000C030D4
:101D6000BF000030BE000030BD006608DA00650824
:101D7000D9006408D8006308D7006A08DE00690843
:101D8000DD006808DC006708DB009F3139278E31F1
:101D900040015A08C4005908C3005808C200570837
:101DA000C1008331F8238E31400140084101A30076
:101DB00040013F084101A20040013E084101A1004D
:101DC00040013D084101A00040016608AC006508E3
:101DD000AB006408AA006308A9006E08C0006D0883
:101DE000BF006C08BE006B08BD0041012308400124
:101DF000C400410122084001C30041012108400103
:101E0000C200410120084001C1008331F8238E3116
:101E100040014008B0003F08AF003E08AE003D085A
:101E2000AD008C313A2440012C08E6002B08E50077
:101E30002A08E4002908E300080040304001C000FF
:101E40000030BF000030BE000030BD006E08C4008E
:101E50006D08C3006C08C2006B08C1008331F82311
:101E60008E3140014008DA003F08D9003E08D80012
:101E70003D08D7003F30DE008030DD000030DC0060
:101E80000030DB00953103258E310318512F4001BE
:101E90006A08E6006908E5006808E4006708E300EE
:101EA000080040304001C0004030BF000030BE009C
:101EB0000030BD006E08C4006D08C3006C08C2008D
:101EC0006B08C1008331F8238E3140014008DA00ED
:101ED0003F08D9003E08D8003D08D7004030DE005A
:101EE0000030DD000030DC000030DB0095310325E0
:101EF0008E310318080040016E08DA006D08D90021
:101F00006C08D8006B08D7003F30DE002A30DD00B7
:101F1000AA30DC00AB30DB009F3139278E31400125
:101F20005A08C0005908BF005808BE005708BD0035
:101F30006608DA006508D9006408D8006308D7008D
:101F40006A08DE006908DD006808DC006708DB005D
:101F50009F3139278E3140015A08C4005908C30007
:101F60005808C2005708C1008331F8238E31400160
:101F700040084101A30040013F084101A200400187
:101F80003E084101A10040013D084101A00040017F
:101F90006608AC006508AB006408AA006308A900E5
:101FA0004030C000C030BF000030BE000030BD0077
:101FB000410123084001C400410122084001C3003F
:101FC000410121084001C200410120084001C10037
:101FD0008331F8238E3140014008B0003F08AF0044
:101FE0003E08AE003D08AD008C313A2440012C087B
:101FF000E6002B08E5002A08E4002908E3000800B1
:102000004E018D10420169086A04031908006A082C
:102010008A0069080A009031080041018C018D0195
:102020008E018F019201930198019A019F01420153
:102030008C018D018E018F0190019201543093002B
:10204000563094009501960197019801D430910083
:102050004E018D10971432304001A0001D30A100B8
:102060009D3160250800400194131413141294113B
:102070000130450190008E1746018E170E08F03989
:102080000C388E0092171208F0390C38920096170F
:102090001608F0390C3896009A171A08F0390C38DF
:1020A0009A0009307E01A7000A30A6000B30A40078
:1020B0000C30A30008004001AD00420122187E2828
:1020C00040012D08AB002B08A0002708AC002C080D
:1020D000A1002908A3002808A200C6309F31B92713
:1020E0009031C6304001AB002B08A0002A08AC009C
:1020F0002C08A100013087319E27080040012A08E2
:10210000860087018101810A08004001200821041E
:102110000319AD28A501A50AA11B98280130A035F7
:10212000A10D890B8F280130A4002408A5078C2855
:1021300021082302031D9E2820082202031CA42834
:102140002008A2022108A33B0130A136A00C890B74
:10215000A5280130A502031D98282308A100220804
:10216000A00008004001980199019A013F309200B7
:10217000F0309300FF309400F8307E01CE00E03064
:10218000C3000330B800C4010430B9000730CF00E9
:10219000BA01C501D0013730BB00F030C600FF30B6
:1021A000D10005307D01C50014307E01940013304C
:1021B000950004307D01C6000C30CB0008004001C2
:1021C000A601A7012008210403190F29A501A50ACA
:1021D000A11BF4280130A035A10D890BEB2801309B
:1021E000A4002408A507E8280130A635A70D890B0F
:1021F000F52821082302031DFF2820082202031CC2
:1022000006292008A2022108A33B26140130A1368A
:10221000A00C890B07290130A502031DF42827080B
:10222000A1002608A00008004001420886004308DB
:102230008700403FCA00413FCB004708803ACC00AE
:102240004B08803A4C02031D27294A084602031C0A
:102250003329400142088600430887004408C03FF4
:102260004508C13F3E2940014208860043088700D7
:102270004808810241314908813B7F31420886008C
:1022800043088700403FBB00413FBC009431892494
:10229000080040014208860043088700403FCA000A
:1022A000413FCB004B08803ACC004508803A4C02B5
:1022B000031D5C2944084A02031C682940014208A6
:1022C0008600430887004608C03F4708C13F73297E
:1022D00040014208860043088700480881074131D1
:1022E0004908813D7F314208860043088700403F0E
:1022F000BB00413FBC009431892408009E31652613
:1023000091319D3158259131400113131913DC305F
:10231000A0001F30A1009D31B12591318B170B1703
:1023200015304301E7004B30E600BE30890B96299B
:10233000E60B9629E70B962900009D31492591313E
:102340009331342391319031332091319E317A266B
:1023500091318831182091319131E92191319731B2
:102360002E279131A9297108AA3E860001308700E5
:10237000810142011D1DC8297108AA3E8600013055
:1023800087008114430163088A0062080A009131C2
:1023900042019D1CD7297108AA3E860001308700A2
:1023A0000115430161088A0060080A009131710833
:1023B000AA3E86000130870001080319E62943017F
:1023C0005F088A005E080A00913108008831002009
:1023D00008009D317B25913140012108A50020088E
:1023E000A4004201390840012402A20042013A0837
:1023F0004001253BA30003302302E83003192202E9
:10240000031C080025084201BA00400124084201CB
:10241000B9004E080319132A4C08031D132ACC01D6
:10242000CC0ACE0108004E0803191E2A4C080319D5
:102430001E2ACD01CD0ACC01CE010800CD01080035
:102440004001B5000310B50C0310A00C0310A20C42
:102450000310A10C3508A300A4012308A700240839
:10246000A8002008A300A4012308AB002408AC00A6
:102470002208A300A4012308AF002408B00021080B
:10248000A300A4012308B3002408B40046018D0171
:102490004001270846018C00910140012B084601AC
:1024A0009000950140012F084601940099014001D8
:1024B00033084601980008004E019912B3304001DC
:1024C000A0001130A1009D31B12592314E011912A9
:1024D000AB304001A0001E30A1009D31BA259231E1
:1024E000083042019F0090309D0004309E001F3054
:1024F0009B009C0133304001A0001D30A1009D31A4
:102500009F25923145304001A0001D30A1009D3132
:10251000A825923135304001A0001D30A1009D3129
:1025200096254201DA01F301F20108304001A200D0
:1025300022084201EF00F101F0014101ED014E01DD
:1025400099160800003040013705BF0000303805FB
:10255000C00080303905C1007F303A05C200420812
:10256000410440043F04031DBD2A0030BA0000307E
:10257000B9000030B8000030B70000303B05BF00A4
:1025800000303C05C00080303D05C1007F303E0575
:10259000C2004208410440043F04031DD72A003012
:1025A000BE000030BD000030BC000030BB003E0863
:1025B0003A06031DE52A3D083906031DE52A3C08B5
:1025C0003806031DE52A3B0837060319E92A0310DC
:1025D000080003140800F1304001B6002530B700B0
:1025E00041016E0840013607860041016F08400135
:1025F000373D87000108B8003808A000F230B90064
:102600002530BA0041016E084001390786004101BA
:102610006F0840013A3D87000108BB003B08A1005C
:10262000F330BC002530BD0041016E0840013C077D
:10263000860041016F0840013D3D87000108BE0052
:102640003E08A200F030BF002530C00041016E08F6
:1026500040013F07860041016F084001403D87006F
:10266000010892312022080020304001A5002508F1
:102670004201D10028304001A50025084201D400C4
:1026800030304001A50025084201D3003830400118
:10269000A50025084201D2000E304001A000003004
:1026A000A1000230A5002508A200420151089F3177
:1026B000582793310C304001A0000030A1000230B7
:1026C000A5002508A200420152089F3158279331E6
:1026D0000E304001A0000030A100A20142015308C9
:1026E0009F31582793310E304001A0000030A100E7
:1026F000A201A20A420154089F31582708009D31C7
:102700007B259331400121084101DD004001200873
:102710004101DC004201370841015C02DA0042015C
:10272000380841015D3BDB0000305B020A300319D1
:102730005A02031C08005D084201B80041015C0810
:102740004201B700683043015406031DAD2B550309
:10275000031DAD2BD401D501B12B0130D4070030BE
:10276000D53DFF304201DE07FF30DF3D5E085F04EC
:10277000031DBF2B1430DE000030DF00CB01D4304E
:10278000860001308700AF308400003085000A30B9
:102790004101DA0016001A00DA0BCA2B80319A20A8
:1027A00008004001A601A11FDC2BA009A109A00A75
:1027B0000319A10AA601A60AA31FE72BA209A309D0
:1027C000A20A0319A30A0130A4002408A606A7013F
:1027D000A801200821040319162CA501A50AA11B94
:1027E000FB2B0130A035A10D890BF22B0130A40089
:1027F0002408A507EF2B0130A735A80D890BFC2B6A
:1028000021082302031D062C20082202031C0D2C84
:102810002008A2022108A33B27140130A136A00CF6
:10282000890B0E2C0130A502031DFB2B2608031972
:102830001E2CA709A809A70A0319A80A2808A1009D
:102840002708A000080003104101260D270DA8004D
:102850002808AE002E08031D362C0030A7000030DB
:10286000A6000030A5000030A40008002408A8003D
:102870002508A9002608AA002708AB001F30AB36A0
:10288000AA0CA90CA80C890B3F2C2808AC002C081A
:10289000AD00A617FF30A405FF30A505FF30A60543
:1028A0000030A7059630AE02AE1F692C2E08803A84
:1028B000973E031C2D2C0130A736A60CA50CA40CAA
:1028C000890B5C2C0130A8002808AE0703197A2C6C
:1028D0005B2C20302E0203182D2C2E0803197A2C85
:1028E0000130A435A50DA60DA70D890B712C013063
:1028F000AE026D2C2D0803190800A409A509A6092C
:10290000A709A40A0319A50A0319A60A0319A70A05
:102910000800273040013C02103003193B02031C21
:10292000C02C4530BD003D08B4000030B500B600F5
:1029300000309E31C726943145304001BD003D082E
:10294000B4000030B500B60001309E31C726943186
:1029500045304001BD003D08B4000030B500B60070
:1029600002309E31C726943145304001BD003D08FC
:10297000B4000030B500B60003309E31C726080011
:10298000C001C101C001C1010A304001A0000030F6
:10299000A1003C08A3003B08A2009031852094319F
:1029A00040012108BF002008BE003E08303EBD00A7
:1029B0003D08B4000030B500B6004008033C9E312D
:1029C000C72694310A304001A0000030A1003C0825
:1029D000A3003B08A2009031DF2094314001210880
:1029E000BC002008BB000130C0070030C13D4108D9
:1029F000803ABD0080303D02031D002D04304002AE
:102A000003180800C42C003040015705DF000030D7
:102A10005805E00080305905E1007F305A05E2009A
:102A20006208610460045F04031D1E2D0030DA009B
:102A30000030D9000030D8000030D70000305B05EE
:102A4000DF0000305C05E00080305D05E1007F3094
:102A50005E05E2006208610460045F04031D382D16
:102A60000030DE000030DD000030DC000030DB0034
:102A7000DA1F522D0030DF000030E0000030E100AE
:102A80008030E2005708DF025808E03B5908E13B7C
:102A90005A08E23B6208DA006108D9006008D800F1
:102AA0005F08D700DE1F6C2D0030DF000030E00033
:102AB0000030E1008030E2005B08DF025C08E03BB0
:102AC0005D08E13B5E08E23B6208DE006108DD0074
:102AD0006008DC005F08DB008030DA068030DE064C
:102AE0005E085A02031D08005D085902031D080014
:102AF0005C085802031D08005B08570208009D315E
:102B00007B259531400121084101DD00400120086D
:102B10004101DC004201330841015C02DA0042015C
:102B2000340841015D3BDB004201680841015B0262
:102B3000031D9E2D4201670841015A02031C080033
:102B40005D084201B40041015C084201B3006730F6
:102B50004001CD000130CE006430CF000030D00005
:102B60000130D1000030D2000130D3000030D40059
:102B7000963198269531683042013106031DC62DE5
:102B80003203031DC62DB101B201CA2D0130B107B8
:102B90000030B23DA030860001308700DE30840076
:102BA000003085000A304101DA0016001A00DA0B05
:102BB000D52D420132084101DF00420131084101B7
:102BC000DE003F30E3008030E2000030E100003002
:102BD000E0003F30E7000030E6000030E500003064
:102BE000E400DE30860000308700AF308400003023
:102BF00085000A30DA0016001A00DA0BFB2D80314E
:102C00009A2008004001B1003108031DAC1F182EA6
:102C10002909B3002A09B4002B09B5002C09B60014
:102C2000B30A0319B40A0319B50A0319B60A202E08
:102C30002C08B6002B08B5002A08B4002908B300F8
:102C40002C082B042A042904031D2F2E0030AC006D
:102C50000030AB000030AA000030A9000800963018
:102C6000AD002D08B200FE3036050319562E013096
:102C7000AD002D08B2070130B636B50CB40CB30C5C
:102C8000890B3C2E332E0130AD002D08B2070130E8
:102C9000B3070030B43D0030B53D0030B63D0130E3
:102CA000B636B50CB40CB30C890B502EFF3036057C
:102CB0000319682E432E02303202031C6A2E0130A3
:102CC000B2020130B335B40DB50DB60D890B622ECD
:102CD000B51F5B2E3218742EFF30B305FF30B405DC
:102CE0007F30B505FF30B6050310B20C3208AD00D9
:102CF000AE01AF01B0011830AD35AE0DAF0DB00D66
:102D0000890B7C2E2D08B3042E08B4042F08B504BB
:102D10003008B6043108031DAC1F8F2EB6173608D5
:102D2000AC003508AB003408AA003308A90008003D
:102D30009D317B25963140012108D8002008D7001D
:102D400042012B0840015702D50042012C084001E6
:102D5000583BD60000305602233003195502031C9D
:102D6000080058084201AC00400157084201AB007E
:102D700054089F31982796314001200821040319F7
:102D8000E02E4E08C3004D08C2005008C5004F0891
:102D9000C4005208C7005108C6005408C9005308AF
:102DA000C800913149219631400158084201AA00DA
:102DB000400157084201A90001309E315026080009
:102DC000420153089F319827963140012008210481
:102DD0000319092F4E08C3004D08C2005008C50052
:102DE0004F08C4005208C7005108C6005408C90063
:102DF0005308C8009131142196314001580842010E
:102E0000AA00400157084201A90001309E31502616
:102E100008009D317B25963142012908400120029E
:102E2000D50042012A084001213BD600133056024A
:102E3000883003195502031C080000309E315026CB
:102E400096319D317B2540012008773E4201A90043
:102E5000EC304001213D4201AA0008009D317B2554
:102E6000973140012108A7002008A600420145082B
:102E700040012602A200420146084001273BA30070
:102E800000302302323003192202031C08002708F5
:102E90004201C600400126084201C5004001A501CB
:102EA0002508A2000230A235FF3E031D532F223514
:102EB000203EA3002308A8002808860002308700CF
:102EC000403FA200413FA30022088600230887005C
:102ED0000130A4002808023E840002308500000A68
:102EE000722FA435890B712F24080105031D802F33
:102EF0002808033E8600023087008101810A862F60
:102F00002808033E86000230870081012808033E1E
:102F10008600023087000103031DA72F2808043E06
:102F20008600023087000108031DA72F2808053EF0
:102F30008600023087008101810A2808063E86004B
:102F4000023087002608C03F2708C13FE92F280824
:102F5000033E8600023087000103031DD32F28089B
:102F6000043E8600023087000103031DD32F28088A
:102F7000063E860002308700403F2602A200413F05
:102F8000273BA30001302302F53003192202031C62
:102F9000E92F0230A2002808053E86000230870093
:102FA00022088100E92F2808033E860002308700AE
:102FB0000108031DE92F2808043E8600023087001F
:102FC0000103031DE92F2808053E86000230870013
:102FD00081012808033E8600023087000108A20014
:102FE0002808043E86000230870022088100013054
:102FF000A2002208A5070430250203180800502F5C
:10300000003482342134003400340034003402347B
:1030100039340F3400340034003440348034003408
:103020003F3406345B344F3466346D347D340734BA
:103030007F346F3400340034003448340034533467
:10304000003477347C3439345E34793471346F34FD
:10305000763406341E3400343834003454343F346B
:103060007334673450346D3478343E340034003473
:1030700000346E340034393400340F3400340834F2
:1030800063345F347C3458345E347B3471346F3451
:10309000743402341E3400340634003454345C3446
:1030A0007334673450346D3478341C340034003455
:1030B00000346E340034393430340F34003400348A
:103A64000800080008008831002008004E018F106B
:103A7400080042015508080042014D0808004101B0
:103A8400E901E90A080042011D121D16080001306F
:103A94009E315026080041016C08031908004D2D81
:103AA40001304201C9070030CA3D080052304001CC
:103AB400A0001D30A1009D3184250800400121088B
:103AC4004201EA00400120084201E90008004001E7
:103AD400210841018F004001200841018E000800A7
:103AE4004001A000200841019F00420191171114D8
:103AF400080042014A084001A1004201490840016E
:103B0400A0000800400121084201EC004001200807
:103B14004201EB000800420150080319942DD00122
:103B24000130080000300800400121084301DF0093
:103B3400400120084301DE00080040012108430140
:103B4400E300400120084301E2000800400121088D
:103B54004301E100400120084301E0000800400166
:103B640021084301E500400120084301E400080066
:103B7400400121084201EE00400120084201ED000D
:103B84000800603051018D008F01910106309300CF
:103B9400920108004F0196019701980199019A0139
:103BA4009B019C019D0108009D317B25400121085A
:103BB4004201AA00400120084201A900080014346F
:103BC40000340A340034903406340134903401341F
:103BD400143400346400800101310130FE020030ED
:103BE400FF3B7F087E0403190034ED2DFE00120014
:103BF4001E000130FE020030FF3B7F087E040319E3
:103C04000034F92D9D318D259E31003A03190D2E76
:103C14004201CB01CB0A42014B080319080093313E
:103C24007F2308000430F60076084101EB070130D9
:103C34004201D902031D242E0430F6007608410106
:103C4400EC0008004101EC01EC0A080045304B018E
:103C54009F00F9309D009C014E018C129616343061
:103C64004001A0001D30A1009D31842580304B010E
:103C74009E000800003400340034003480343F34A3
:103C84000034003400343F34003400340034003451
:103C940080343F340034003400343F344001B400F5
:103CA400340803195E2EAE01AE0A24309E31FF267D
:103CB4004201D501D50A0800AE0124309E31FF2609
:103CC4004201D50108009D31CC259E319031B220AE
:103CD4009E319D31C3259E319E31E3269E31903124
:103CE4000D209E319E3128269E3192315C2208009F
:103CF400420163084001A100420162084001A000A2
:103D04009D3169259E3141304001A0001D30A10044
:103D14009D3160259E310F309D3172250800F700DA
:103D24004301111541016A08023E860001308700F3
:103D340001080319A92E7708F6006A08023E8600D6
:103D44000130870001088600870176088100EC01B4
:103D54000800083042016F020318C42E7208BA3EEC
:103D640086000130870001089A000130F6007608C9
:103D7400F207083072020318F2010130F6007608E7
:103D8400EF0708004E01191208004001BA00340878
:103D9400E03E840097300318013E85000008B70018
:103DA4003508B8000630B835FF3E031DD52E38352A
:103DB4003704B9003908AE003A08343E9E31FF2674
:103DC40008005B304001A00020084201A1005B30E4
:103DD4004001A00020084201A000A2142210A40166
:103DE40043018F0128309000920150308D004E0124
:103DF4000F108F101914991408004001B2000230FA
:103E0400AF002F08B300A701A70A3208AF00B00122
:103E14002F08A8003008A9003330B1003108AA00E7
:103E24002E3090315B209E31023040013306031D59
:103E34000800162F420151089F3198279F314001F5
:103E440020082104031908009D31D6259F31420121
:103E5400E401E40A023035063604031D342FB501AB
:103E6400B60108000130B5070030B63D08008030C7
:103E74004001DA065E08AC005D08AB005C08AA00ED
:103E84005B08A9005A08B0005908AF005808AE00F2
:103E94005708AD008C313A2440012C08DA002B0875
:103EA400D9002A08D8002908D70008004001A40036
:103EB40024088600023087002008C03F2108C13F43
:103EC4002208A3002408023E86000230870023084B
:103ED40081002408033E8600023087008101240803
:103EE400053E860002308700810108004001A800D9
:103EF400A401A5012008A200A3012208A60023080A
:103F0400A700281C892F2608A4072708A53D0130EF
:103F1400A635A70D890B8A2F0310A80C2808031DAA
:103F2400832F2508A1002408A00008004001A30055
:103F34002308053E8600023087000103031DAD2FD0
:103F44002308053E86000230870081010130A0006D
:103F54000030A10008002308053E860002308700D7
:103F6400023001060319A82FA001A1010800400195
:103F7400A6002308A5002208A400A435A50D260840
:103F84008600013087002408C03F2508C13F21086E
:103F9400A4002608023E8600013087002408810020
:103FA4002008A4002608033E860001308700240868
:103FB4008100080040011917191342011D1DE72F44
:103FC400BB01BC01CE01CE0AEB2F0130BB07003090
:103FD400BC3DEF30F6002530F7003B087607F800CB
:103FE4003C08773DF90078088600790887001908AD
:0C3FF40081009D1C08001D121D16080015
:020000040001F9
:0A000E00EC3FFF3F9F3FFF3FFF3F25
:00000001FF
