:020000040000FA
:0400000080313328F0
:100008007E1480314E01961A8C1E0E288631B22637
:10001800803131280B1F312899188F1C17288731F8
:100028003A278031312819180F1C1E288031672083
:1000380080313128191A0F1E282840016A088A00C1
:1000480069080A0080313128991A8F1E3128410128
:1000580057088A0056080A0080317E10090080314E
:100068003528873140278031EC008731412780319E
:10007800ED00EF308400253085000130FE000230AD
:10008800FF008631BF268031F001F101F201F30152
:10009800F401F50120308400003085002830FE008E
:1000A8000030FF008631BF268031A0308400003048
:1000B80085003030FE000030FF008631BF267E10FC
:1000C80040018531072D4E010F104301901F8329F0
:1000D80090134001C2013F08023E860087010108D3
:1000E800860087018101810ABF010800AA1808005B
:1000F8002908F8007808BF00290886008701010848
:10010800F8007808C100290886008701413FC0002F
:100118000330F8007808A9072908483A031D9828E9
:100128004530F8007808A9002A102908280603197C
:10013800AA14430111140230F80078084001C200E3
:1001480008002C294301111FB2280130F800780853
:100158004001AC0704308531F92508007508F9001D
:100168007408F800F936F80C78088C00741CC2285A
:100178000B30F80078084001C20008000330F8008E
:1001880078084001C20008004301111FD42801303B
:10019800F80078084001AC0704308531F9250800DB
:1001A80091147508F9007408F8007908F800F90145
:1001B80006307805FA0000307905FB00F0307A0443
:1001C800F40000307B04F50074144001BC01BC0A43
:1001D8009F283C0303190129400886008701403FF6
:1001E800F400413FF500400886008701433FBE0008
:1001F800400886008701423FBD00740843018C0017
:10020800741CC2280530F80078084001C2000800B4
:100218004301111F1A290130F80078084001AC0782
:100228004301111305308531F925080001304001DB
:10023800BD023D0A031D2F290430F8007808C007C5
:100248000130C102031D2C2900308531F925080031
:10025800430191149F283E08860087010108430145
:100268008C000130F80078084001BE0708004301FF
:10027800111F49290130F80078084001AC07043003
:100288008531F92543011113080091150830F8004C
:1002980078084001C20008000830F8007808C20059
:1002A80043019115080043010C08F80040013E087D
:1002B80086008701780881000130F8007808BE07B9
:1002C8000130BD0203197029430191120630F8006C
:1002D80078084001C2007429430191168631A1268D
:1002E80043011116080000308531F9250800013056
:1002F800F8007808AC0706308531F9250800400178
:100308004208F800F9017908003A03198C297B2979
:100318007808003A03197A28013A0319A528033AFC
:100328000319ED28013A03190C29073A031977290B
:10033800013A03193B29033A03195029013A0319D1
:1003480077290F3A03195729023A0319A628013ABF
:100358000319C8287B29080027304001650210309E
:1003680003196402031CE7296530E6006608DC000F
:100378000030DD00DE0000308431B9248131653081
:100388004001E6006608DC000030DD00DE000130D8
:100398008431B924813165304001E6006608DC000B
:1003A8000030DD00DE0002308431B924813165304F
:1003B8004001E6006608DC000030DD00DE000330A6
:1003C8008431B92408004101DA01DB01DA01DB01DB
:1003D8000A304001C8000030C9006508CB00640835
:1003E800CA00843164248131400149084101D9009F
:1003F800400148084101D8005808303E4001E60055
:100408006608DC000030DD00DE0041015A08033CCC
:100418008431B92481310A304001C8000030C90054
:100428006508CB006408CA008331D02381314001BC
:100438004908E5004808E40001304101DA070030C6
:10044800DB3D5B08803A4001E60080306602031D10
:10045800302A043041015A0203180800EC29873178
:100468002527823140014908D0004808CF002D08CF
:100478004F02CC002E08503BCD0000304D023230E8
:1004880003194C02031C08005008AE004F08AD00C9
:10049800D1010630CC004C08C800510886318F269F
:1004A8008231B03E4001CD004D08D200520886008E
:1004B8008701403FCC00413FCD004C0886004D08E5
:1004C80087000130CE005208023E84008501000AF0
:1004D8006E2ACE35890B6D2A4E080105031D7B2A2D
:1004E8005208033E860087018101810A802A52084A
:1004F800033E8600870181015208033E860087017A
:100508000108031D942A5208043E8600870101034E
:10051800031D942A5208053E860087018101810A3D
:100528005208033E860087010108CC005208043EA9
:10053800860087014C0881000130CC004C08D107A7
:1005480004305102031808004D2A00348234213443
:100558000034003400340034023439340F340034A9
:10056800003400344034803400343F3406345B3483
:100578004F3466346D347D3407347F346F3400343F
:1005880000340034483400345334003477347C3435
:1005980039345E34793471346F34763406341E3429
:1005A80000343834003454343F34733467345034AE
:1005B8006D3478343E340034003400346E34003402
:1005C800393400340F340034083463345F347C34F5
:1005D80058345E347B3471346F34743402341E34CE
:1005E80000340634003454345C3473346734503483
:1005F8006D3478341C340034003400346E340034E4
:10060800393430340F34003400344001CB002A1818
:100618003D2B0230CA004908860087014A0881003C
:100628004808CA00280A860087014A0881004B0842
:10063800CA002808860087014A0881004908CA00BC
:100648002808023E860087014A0881000330CA0054
:100658004A08A8072808483A031D362B4530CA001F
:100668004A08A800AA1029082806031D422B2A14A4
:10067800422B4908860087018101810A49088600C2
:10068800870102300106031D0800873131274E011A
:100698000F1408004E01991205304001C8000430BB
:1006A800C9008631DE2683314E0119128E30400191
:1006B800C8000530C9008731192783310830420145
:1006C8009F0090309D0004309E001F309B009C01CD
:1006D80043304001C8000730C9008631F026833115
:1006E80036304001C8000730C9008631E72683311B
:1006F8003D304001C8000730C9008631F926400165
:10070800C301F301F2010830CA004A08EB00F10105
:10071800F001C4014E0199160800B0304001CD0027
:100728004D08B700B630CD004D08BA00BC30CD003A
:100738004D08B900C230CD004D08B8000E30C800D1
:100748000030C9000230CD004D08CA003708853195
:10075800AB2583310C304001C8000030C90002309D
:10076800CD004D08CA0038088531AB2583310E30DD
:100778004001C8000030C900CA0139088531AB25DD
:1007880083310E304001C8000030C900CA01CA0ACE
:100798003A088531AB2508004001CE01CF01480851
:1007A80049040319002CCD01CD0AC91BE52B0130E2
:1007B800C835C90D890BDC2B0130CC004C08CD079E
:1007C800D92B0130CE35CF0D890BE62B49084B02CA
:1007D800031DF02B48084A02031CF72B4808CA02DD
:1007E8004908CB3B4E140130C936C80C890BF82B8D
:1007F8000130CD02031DE52B4F08C9004E08C80083
:1008080008007108203E86008701810142011D1DF4
:10081800182C7108203E8600870181144101550873
:100828008A0054080A00843142019D1C262C710854
:10083800203E860087010115410153088A005208AD
:100848000A0084317108203E8600870101080319D7
:10085800342C410151088A0050080A0084310800EC
:100868008631112608004001980199019A013F300C
:100878009200F0309300FF309400F8307E01CE00F3
:10088800E030C3000330B800C4010430B9000730B9
:10089800CF00BA01C501D0013730BB00F030C60027
:1008A800FF30D10005307D01C50014307E01940071
:1008B8001330950004307D01C6000C30CB000800D1
:1008C80040014808490403198C2CCD01CD0AC91BE5
:1008D800772C0130C835C90D890B6E2C0130CC003E
:1008E8004C08CD076B2C49084B02031D7D2C48088A
:1008F8004A02031C832C4808CA024908CB3B013032
:10090800C936C80C890B842C0130CD02031D772C05
:100918004B08C9004A08C800080040019413141382
:10092800141294110130450190008E1746018E175C
:100938000E08F0390C388E0092171208F0390C386E
:10094800920096171608F0390C3896009A171A086C
:10095800F0390C389A0009307E01A7000A30A60049
:100968000B30A4000C30A30008004001E2005C0832
:10097800893E840082300318013E85000008DF00AC
:100988005F08E3005C08893E840082300318013E5A
:1009980085000008DF005D08E0000630E035FF3E16
:1009A800031DD22C60355F04E1006108D60062089F
:1009B800343E8531712508004001D5002A18012DE3
:1009C8005508D3005308C8004F08D4005408C9007C
:1009D8005108CB005008CA00CC30853151258431EC
:1009E800CC304001D3005308C8005208D400540842
:1009F800C9000130833109230800520886008701A5
:100A08008101810A080086317D268531843191244F
:100A1800853187310A2785314001131319132C308A
:100A2800C8000530C9008631DE2685318B170B17C3
:100A38008731122785318331912385318731022708
:100A480085318231332285318531E0258531252D67
:100A580040011917191342011D1D362D4001B5011A
:100A6800B6013B2D01304001B5070030B63DEF30EF
:100A7800F6002530F70035087607F8003608773D88
:100A8800F900780886007908870042011908810072
:100A98009D1C08001D121D1608004001CE004B08C1
:100AA800CD004A08CC00CC35CD0D4E088600870114
:100AB8004C08C03F4D08C13F4908CC004E08023ED3
:100AC800860087014C0881004808CC004E08033E88
:100AD800860087014C08810008004001DA000230D6
:100AE800D7005708DB00CF01CF0A5A08D700D80132
:100AF8005708D0005808D1005B30D9005908D200F7
:100B080056308431E0248531023040015B06031DF4
:100B18000800882D083040016B020318A82D7208C0
:100B2800A83E86008701010842019A000130F600BC
:100B38007608F207083072020318F2010130F60055
:100B480076084001EB0708004E0119120800400121
:100B5800CC004C08860087014808C03F4908C13FBF
:100B68004A08CB004C08023E860087014B088100EA
:100B78004C08033E8600870181014C08053E86002B
:100B880087018101080045304001C8004808A900D4
:100B98004530C8004808A800AA142A10AC0143012F
:100BA8008F0128309000920150308D004E010F10B7
:100BB8008F1019149914080040013A0886313E260E
:100BC80085314001480849040319ED2D863128264E
:100BD8000800390886313E26853140014808490415
:100BE80003190800863154260800F700430111153F
:100BF80040013F08023E86008701010803190F2EB5
:100C08007708F6003F08023E860087010108860043
:100C1800870176088100C201080042011908F60020
:100C28007108A03E86008701760881000130F60031
:100C38007608F107083071020318F1010130F60057
:100C480076084001C4070800023040016D066C04B4
:100C5800031D332E0130EC000030ED00372E01303B
:100C6800EC070030ED3D6D08E5006C08E4008131CB
:100C7800B02108004001CB004B08053E86008701E3
:100C88000103031D512E4B08053E86008701810193
:100C98000130C8000030C9000800C801C9010800B7
:100CA80040016C036D04031D5E2E0030EC00023021
:100CB800ED00622E0130EC020030ED3B6D08E500DE
:100CC8006C08E4008131B021080045304B019F00D9
:100CD800F9309D009C014E018C129616423040015D
:100CE800C8000730C90087311F2780304B019E009C
:100CF80008008631CB268631843137248631863107
:100D0800D52686318531C7258631863169268631D3
:100D180083314E2308004001CB00CA014B1C982E9A
:100D28004808C9004908CA070310C80D0310CB0CAE
:100D38004B08031D922E4A0808000430F600760876
:100D48004001C0070130C102031DAF2E0430F60078
:100D58007608C2000800C201C20A08004E018C12BF
:100D68004001670868040319080068088A006708D2
:100D78000A00863108006400800101310130FE025A
:100D88000030FF3B7F087E0403190034C02E4F015A
:100D980096019701980199019A019B019C019D0177
:100DA8000800603051018D008F01910106309300D9
:100DB80092010800400149084101D7004001480854
:100DC8004101D6000800400149084101D300400113
:100DD80048084101D2000800400149084101D500F6
:100DE800400148084101D400080040014908410178
:100DF800D100400148084101D000080040016D08B9
:100E0800E5006C08E4008131B02108002B30400176
:100E1800C8000730C90087311F2708004001D601E4
:100E2800D60A243085317125080040014908EA00B6
:100E38004808E900080040014908E8004808E700B8
:100E4800080040013208C9003108C8000800013014
:100E58004001B1070030B23D0800400142080319C3
:100E68000800312F42011D121D1608004E018F1077
:100E780008008631112608000134003408000800F3
:020000040001F9
:0A000E00EC3FFF3F9F3FFF3FFF3F25
:00000001FF
