:020000040000FA
:0400000080313328F0
:100008007E1480314E01961A8C1E0E28873168277F
:10001800803131280B1F312899188F1C17288731F8
:10002800F0278031312819180F1C1E2880316520CF
:1000380080313128191A0F1E282840016D088A00BE
:100048006C080A0080313128991A8F1E3128410125
:1000580067088A0066080A0080317E10090080312E
:1000680035288731F6278031FA008731F727803124
:10007800FB00EF308400253085000130FE0002309F
:10008800FF00873175278031F601F701F801F90182
:1000980046308400003085002430FE000030FF0028
:1000A800873175278031A0308400003085004030CA
:1000B800FE000030FF00873175277E104001823135
:1000C800E12A4E010F104301901F8129901340012E
:1000D800E2015F08023E8600870101088600870169
:1000E8008101810ADF010800C81808004708F200EA
:1000F8007208DF004708860087010108F2007208CD
:10010800E100470886008701413FE0000330F20024
:100118007208C70747086A3A031D96286730F20035
:100128007208C7004810470846060319C814430157
:1001380011140230F20072084001E20008002A2976
:100148004301111FB0280130F20072084001CA07AC
:1001580004308631D72608007908F3007808F200C1
:10016800F336F20C72088C00781CC0280B30F200B1
:1001780072084001E20008000330F20072084001F2
:10018800E20008004301111FD2280130F200720872
:100198004001CA0704308631D7260800911479082F
:1001A800F3007808F2007308F200F30106307205D4
:1001B800F40000307305F500F0307404F8000030E6
:1001C8007504F90078144001DC01DC0A9D285C0301
:1001D8000319FF28600886008701403FF800413F67
:1001E800F900600886008701433FDE00600886004A
:1001F8008701423FDD00780843018C00781CC02845
:100208000530F20072084001E20008004301111FA6
:1002180018290130F20072084001CA07430111137E
:1002280005308631D726080001304001DD025D0A1D
:10023800031D2D290430F2007208E0070130E102A5
:10024800031D2A2900308631D7260800430191145E
:100258009D285E0886008701010843018C00013053
:10026800F20072084001DE0708004301111F472908
:100278000130F20072084001CA0704308631D726DF
:1002880043011113080091150830F200720840016B
:10029800E20008000830F2007208E20043019115FC
:1002A800080043010C08F20040015E08860087013F
:1002B800720881000130F2007208DE070130DD02A9
:1002C80003196E29430191120630F20072084001A9
:1002D800E20072294301911687315727430111160D
:1002E800080000308631D72608000130F200720875
:1002F800CA0706308631D726080040016208F20096
:10030800F3017308003A03198A2979297208003A17
:1003180003197828013A0319A328033A0319EB288B
:10032800013A03190A29073A03197529013A0319E9
:100338003929033A03194E29013A031975290F3A45
:1003480003195529023A0319A428013A0319C628A2
:10035800792908008731DB27813140012108A7006E
:100368002008A6004D082602A2004E08273BA3003D
:1003780000302302323003192202031C0800270828
:10038800CE002608CD00A5012508A2000230A2351E
:10039800FF3E031DCB292235B83EA3002308A80041
:1003A800280886008701403FA200413FA300220899
:1003B8008600230887000130A4002808023E840034
:1003C8008501000AE829A435890BE72924080105D5
:1003D800031DF5292808033E860087018101810A4B
:1003E800FA292808033E8600870181012808033E70
:1003F800860087010103031D172A2808043E86008A
:1004080087010108031D172A2808053E8600870171
:100418008101810A2808063E860087012608C03F18
:100428002708C13F522A2808033E86008701010396
:10043800031D3F2A2808043E860087010103031D87
:100448003F2A2808063E86008701403F2602A20070
:10045800413F273BA30001302302F5300319220254
:10046800031C522A0230A2002808053E8600870194
:1004780022088100522A2808033E860087010108C5
:10048800031D522A2808043E860087010103031D24
:10049800522A2808053E8600870181012808033E64
:1004A800860087010108A2002808043E860087010B
:1004B800220881000130A2002208A5070430250285
:1004C80003180800C829273040013C0210300319DE
:1004D8003B02031C9E2A4530BD003D08B400003095
:1004E800B500B6000030863186268231453040019D
:1004F800BD003D08B4000030B500B60001308631BB
:100508008626823145304001BD003D08B4000030E8
:10051800B500B6000230863186268231453040016A
:10052800BD003D08B4000030B500B6000330863188
:1005380086260800C001C101C001C1010A3040017E
:10054800A0000030A1003C08A3003B08A2008531B0
:100558006D25823140012108BF002008BE003E08F9
:10056800303EBD003D08B4000030B500B60040087C
:10057800033C8631862682310A304001A0000030D3
:10058800A1003C08A3003B08A2008431A8248231C2
:1005980040012108BC002008BB000130C007003022
:1005A800C13D4108803ABD0080303D02031DDE2A6E
:1005B8000430400203180800A22A873145278231F7
:1005C8008731C0278231400113131913E930A00085
:1005D8000530A1008731942782318B170B1787319B
:1005E800C827823184312D2482318731B82782315E
:1005F80085319A258231F1304201A0002530A100D1
:100608007A08200786007B08213D87000108A200A0
:1006180022084001A000F2304201A3002530A400C6
:100628007A08230786007B08243D87000108A50077
:1006380025084001A100F3304201A6002530A7009B
:100648007A08260786007B08273D87000108A8004E
:1006580028084001A200F0304201A9002530AA0074
:100668007A08290786007B082A3D8700010884311B
:100678006C2482318131AE21823185310F2582315E
:10068800FF2A00348234213400340034003400342A
:10069800023439340F3400340034003440348034A8
:1006A80000343F3406345B344F3466346D347D3463
:1006B80007347F346F340034003400344834003455
:1006C8005334003477347C3439345E3479347134BB
:1006D8006F34763406341E340034383400345434DD
:1006E8003F347334673450346D3478343E340034D6
:1006F800003400346E340034393400340F3400349C
:10070800083463345F347C3458345E347B34713459
:100718006F34743402341E340034063400345434D4
:100728005C347334673450346D3478341C3400349A
:10073800003400346E340034393430340F3400342B
:1007480000344001A3004818D92B0230A200210828
:1007580086008701220881002008A200460A860038
:100768008701220881002308A20046088600870125
:10077800220881002108A2004608023E860087015F
:10078800220881000330A2002208C60746086A3AF8
:10079800031DD22B6730A2002208C600C8104708E4
:1007A8004606031DDE2B4814DE2B21088600870130
:1007B8008101810A21088600870102300106031D94
:1007C80008008731E7274E010F1408004E019912DF
:1007D800DD304001A0000430A10087319427833127
:1007E8004E01191269304001A0000630A10087317E
:1007F800CF278331083042019F0090309D0004309C
:100808009E001F309B009C01F9304001A00007307A
:10081800A1008731A6278331EC304001A0000730C2
:10082800A10087319D278331F3304001A0000730B4
:10083800A1008731AF274001E301E601E501083057
:10084800A2002208EE00F701F601E4014E01991614
:100858000800B8304001A5002508D700C030A50021
:100868002508DA00C830A5002508D900D030A50031
:100878002508D8000E30A0000030A1000230A500E5
:100888002508A20057088631A22684310C30400181
:10089800A0000030A1000230A5002508A2005808D9
:1008A8008631A22684310E304001A0000030A1001C
:1008B800A20159088631A22684310E304001A000D9
:1008C8000030A100A201A20A5A088631A226080017
:1008D8004001B5000310B50C0310A00C0310A20CC6
:1008E8000310A10C3508A300A4012308A7002408BD
:1008F800A8002008A300A4012308AB002408AC002A
:100908002208A300A4012308AF002408B00021088E
:10091800A300A4012308B3002408B40046018D01F4
:100928004001270846018C00910140012B0846012F
:100938009000950140012F0846019400990140015B
:1009480033084601980008004001A601A7012008C5
:1009580021040319D82CA501A50AA11BBD2C01301F
:10096800A035A10D890BB42C0130A4002408A507DB
:10097800B12C0130A635A70D890BBE2C2108230206
:10098800031DC82C20082202031CCF2C2008A20219
:100998002108A33B26140130A136A00C890BD02CCA
:1009A8000130A502031DBD2C2708A1002608A000C0
:1009B80008007708A03E86008701810142011D1DBD
:1009C800F02C7708A03E8600870181144101650854
:1009D8008A0064080A00843142019D1CFE2C7708B5
:1009E800A03E860087010115410163088A0062085C
:1009F8000A0084317708A03E8600870101080319A0
:100A08000C2D410161088A0060080A008531080040
:100A18008631EF2608008731DB2785314001210820
:100A2800C5002008C4004B084402C2004C08453BDE
:100A3800C30000304302233003194202031C08009C
:100A48004508CC004408CB005A0886312E2685314B
:100A58004001200821040319342D87310627080096
:100A6800590886312E2685314001200821040319B2
:100A7800080087311C2708004001980199019A0154
:100A88003F309200F0309300FF309400F8307E0140
:100A9800CE00E030C3000330B800C4010430B90010
:100AA8000730CF00BA01C501D0013730BB00F030A4
:100AB800C600FF30D10005307D01C50014307E012D
:100AC80094001330950004307D01C6000C30CB0033
:100AD80008004001200821040319952DA501A50A45
:100AE800A11B802D0130A035A10D890B772D013078
:100AF800A4002408A507742D21082302031D862DB0
:100B080020082202031C8C2D2008A2022108A33BE6
:100B18000130A136A00C890B8D2D0130A502031DD3
:100B2800802D2308A1002208A0000800400194138A
:100B38001413141294110130450190008E174601C8
:100B48008E170E08F0390C388E0092171208F039FB
:100B58000C38920096171608F0390C3896009A1738
:100B68001A08F0390C389A0009307E01A7000A30BB
:100B7800A6000B30A4000C30A30008004001AD0013
:100B88004818E32D2D08AB002B08A0002708AC005F
:100B98002C08A1002908A3002808A200DC3086310F
:100BA8000E268531DC304001AB002B08A0002A0856
:100BB800AC002C08A10001308331A52308002A08C5
:100BC800860087018101810A08004001191719135D
:100BD80042011D1DF32D4001D501D601F82D01302C
:100BE8004001D5070030D63DEF30F0002530F10048
:100BF80055087007F2005608713DF3007208860028
:100C0800730887004201190881009D1C08001D1205
:100C18001D1608004001A6002308A5002208A4000C
:100C2800A435A50D2608860087012408C03F25089D
:100C3800C13F2108A4002608023E86008701240837
:100C480081002008A4002608033E860087012408A6
:100C5800810008004001A3002308053E86008701A3
:100C68000103031D412E2308053E860087018101EB
:100C78000130A0000030A10008002308053E8600CE
:100C880087010230010603193C2EA001A1010800CA
:100C98004001B2000230AF002F08B300A701A70A35
:100CA8003208AF00B0012F08A8003008A90033307F
:100CB800B1003108AA002E308531C22586310230B4
:100CC80040013306031D0800632E083040016E0200
:100CD8000318832E6508B03E86008701010842018B
:100CE8009A000130F00070084001E50708306502FD
:100CF8000318E5010130F0007008EE0708004E0106
:100D0800191208004001BA003408253E84008330D7
:100D18000318013E85000008B7003508B800063002
:100D2800B835FF3E031D942E38353704B90039080D
:100D3800AE003A08343E86314C2608004001A40033
:100D48002408860087012008C03F2108C13F2208E7
:100D5800A3002408023E8600870123088100240896
:100D6800033E8600870181012408053E860087012D
:100D78008101080067304001A0002008C7006730E3
:100D8800A0002008C600C8144810CA0143018F01FA
:100D980028309000920150308D004E010F108F10B6
:100DA800191499140800F1004301111540015F0856
:100DB800023E8600870101080319ED2E7108F00034
:100DC8005F08023E860087010108860087017008D7
:100DD8008100E201080042011908F0007708A83EE6
:100DE80086008701700881000130F0007008F7075D
:100DF800083077020318F7010130F000700840014D
:100E0800E407080002307B067A04031D102F013026
:100E1800FA000030FB00142F0130FA070030FB3DC8
:100E28007B084001BC007A08BB00823167220800B9
:100E38007A037B04031D252F0030FA000230FB00E3
:100E4800292F0130FA020030FB3B7B084001BC002F
:100E58007A08BB0082316722080045304B019F00A9
:100E6800F9309D009C014E018C129616F830400115
:100E7800A0000730A1008731D52780304B019E00A4
:100E880008008731812787318531402587318731AF
:100E98008B2787318631BE268731873131278731C5
:100EA8008331EA2308000430F00070084001E007AD
:100EB8000130E102031D652F0430F0007008E200E4
:100EC8000800E201E20A08004E018C1240016A089B
:100ED8006B04031908006B088A006A080A00873146
:100EE80008006400800101310130FE020030FF3B40
:100EF8007F087E0403190034762F4F01960197016D
:100F0800980199019A019B019C019D01080060309C
:100F180051018D008F019101063093009201080064
:100F2800400121084101E700400120084101E60095
:100F38000800400121084101E30040012008410167
:100F4800E2000800400121084101E50040012008B5
:100F58004101E4000800400121084101E10040018D
:100F680020084101E00008007B084001BC007A0825
:100F7800BB00823167220800E1304001A000073041
:100F8800A1008731D52708004001AE01AE0A243000
:100F980086314C26080040012108ED002008EC00AD
:100FA800080040012108EB002008EA000800400181
:100FB8005208A1005108A000080001304001D107E3
:100FC8000030D23D08004001620803190800E72FED
:100FD80042011D121D1608004E018F1008008631AF
:0C0FE800EF260800013400340800080067
:020000040001F9
:0A000E00EC3FFF3F9F3FFF3FFF3F25
:00000001FF
