:020000040000FA
:1000000080313928013400347E1480314E01961A33
:100010008C1E0E288731F327803137280B1F372895
:1000200099188F1C17289E31A2268031372819185D
:100030000F1C1E288A31DB2280313728191A0F1E27
:100040002828430163088A0062080A0080313728A3
:10005000991A8F1E3228430161088A0060080A003D
:100060008031372897188D1C3728903106207E1054
:10007000090080313B28803102208031FA00803134
:1000800003208031FB000030840090308500643014
:100090008600013087000030FF0006309F314C277A
:1000A0008031803084009F308500C630860001306A
:1000B00087000030FF0014309F314C278031EF3033
:1000C0008400253085000130FE000230FF009F31A2
:1000D00040278031F601F701F801F9014101E901FA
:1000E000EA01EB01EC01ED01EE01EF0120308400AB
:1000F000013085004430FE000030FF009F31402772
:100100008031A0308400013085002630FE000030B0
:10011000FF009F314027803120308400023085006D
:100120002030FE000030FF009F3140277E1040014C
:100130009231A02A0230AF3E86008701403F400145
:10014000A000413FA100423FA200433FA300003076
:10015000A7000030A6000030A5000030A4009331B5
:10016000FE238031031CF2280130D73E8600870130
:100170000230D73E84008501410138084001C400A7
:10018000410137084001C300410136084001C20067
:10019000410135084001C1004330C0007F30BF003D
:1001A0000030BE000030BD008331F82380314001B3
:1001B00040084101A70040013F084101A60040015D
:1001C0003E084101A50040013D084101A4009431D1
:1001D0009224803141012408803FC03FB900390892
:1001E000D700E72B43304001B100B430B0000030FD
:1001F000AF000030AE0041012F084001A0004101D6
:1002000030084001A100890D893B8909A200A300A3
:1002100001309631CD26803140012308B5002208F7
:10022000B4002108B3002008B200863124268031B2
:10023000400131084101D200400130084101D100A4
:1002400040012F084101D00040012E084101CF009C
:100250000630AF3E86008701403F4001D700413F56
:10026000D800423FD900433FDA003F30DE00003083
:10027000DD000030DC000030DB009631512680319B
:10028000031CB5290230AF3E86008701403F400184
:10029000A900413FAA00423FAB00433FAC000630FB
:1002A000AF3E86008701403FAD00413FAE00423F78
:1002B000AF00433FB0008C313A24803140012C081C
:1002C0004101BE0040012B084101BD0040012A0848
:1002D0004101BC00400129084101BB000230AF3E92
:1002E00086008701403F4001BD00413FBE00423FC4
:1002F000BF00433FC0000630AF3E86008701403F4D
:10030000C100413FC200423FC300433FC4008331AC
:10031000F823803140014008DA003F08D9003E0848
:10032000D8003D08D70041013E084001DE004101F0
:100330003D084001DD0041013C084001DC00410175
:100340003B084001DB009031B220803140015A0867
:100350004101D600400159084101D500400158082B
:100360004101D40040015708F3290630AF3E860012
:100370008701403F4001BD00413FBE00423FBF00FA
:10038000433FC0003F30AC008030AB000030AA00DB
:100390000030A9000230AF3E86008701403FAD002B
:1003A000413FAE00423FAF00433FB0008C313A24A2
:1003B000803140012C08C4002B08C3002A08C20069
:1003C0002908C1008331F8238031400140084101F0
:1003D000D60040013F084101D50040013E084101DF
:1003E000D40040013D084101D30056084001DA0025
:1003F000410155084001D900410154084001D8008D
:10040000410153084001D7004030C0000030BF0018
:100410000030BE000030BD000630AF3E86008701D0
:10042000403FC100413FC200423FC300433FC400C0
:100430008331F823803140014008DE003F08DD00B1
:100440003E08DC003D08DB009031B22080314001E5
:100450005A084101CE00400159084101CD00400138
:1004600058084101CC00400157084101CB00520817
:100470004001B000410151084001AF004101500866
:100480004001AE0041014F084001AD003E30AC00DC
:10049000AA30AB00AA30AA00AB30A9008C313A24B4
:1004A000803140012C084101C60040012B08410168
:1004B000C50040012A084101C4004001290841014A
:1004C000C30046084001EE00410145084001ED002F
:1004D000410144084001EC00410143084001EB00A8
:1004E000410156084001EA00410155084001E90078
:1004F000410154084001E800410153084001E70070
:1005000041014E084001E60041014D084001E5006F
:1005100041014C084001E40041014B084001E30067
:100520008E311C268031400166084101CA0040011D
:1005300065084101C900400164084101C80040014B
:1005400063084101C7004A084001C400410149084D
:100550004001C300410148084001C2004101470871
:100560004001C1004330C0007F30BF000030BE00FA
:100570000030BD008331F823803140014008410143
:10058000A70040013F084101A60040013E0841018B
:10059000A50040013D084101A4009431922480311E
:1005A00041012408B9003908D70052084001EE0083
:1005B000410151084001ED00410150084001EC00AB
:1005C00041014F084001EB00410156084001EA009B
:1005D000410155084001E900410154084001E8008B
:1005E000410153084001E70041014E084001E60087
:1005F00041014D084001E50041014C084001E40083
:1006000041014B084001E3008E311C26803140013E
:1006100066084101C200400165084101C100400176
:1006200064084101C000400163084101BF00420865
:100630004001C400410141084001C300410140089C
:100640004001C20041013F084001C1004330C000E9
:100650007F30BF000030BE000030BD008331F82382
:100660008031400140084101A70040013F0841019D
:10067000A60040013E084101A50040013D0841019E
:10068000A40094319224803141012408B900390832
:10069000D80052084001B000410151084001AF00AC
:1006A000410150084001AE0041014F084001AD003A
:1006B000BE30AC00AA30AB00AA30AA00AB30A90013
:1006C0008C313A24803140012C084101C6004001A0
:1006D0002B084101C50040012A084101C400400126
:1006E00029084101C30046084001EE0041014508C8
:1006F0004001ED00410144084001EC004101430884
:100700004001EB00410156084001EA004101550853
:100710004001E900410154084001E800410153084B
:100720004001E70041014E084001E60041014D084B
:100730004001E50041014C084001E40041014B0843
:100740004001E3008E311C268031400166084101E2
:10075000CA00400165084101C90040016408410127
:10076000C800400163084101C7004A084001C400B5
:10077000410149084001C300410148084001C2004D
:10078000410147084001C1004330C0007F30BF0035
:100790000030BE000030BD008331F82380314001BD
:1007A00040084101A70040013F084101A600400167
:1007B0003E084101A50040013D084101A4009431DB
:1007C0009224803141012408B9003908D900580821
:1007D000B90039084001A00041015908BA003A089F
:1007E0004001A100A2014101570893317B23080079
:1007F000400140088039C5004508CA004035C500A1
:100800004508D000BF1B501450080319142C500A7F
:10081000031D122C0030C0000030BF000030BE00AD
:100820000030BD00BF171C2C0030C0000030BF00DE
:100830000030BE000030BD0044088039C5004508C6
:10084000CA064435C5004508CB00C31B4B144B08F2
:100850000319372C4B0A031D352C0030C40000301F
:10086000C3000030C2000030C100C3173F2C00306D
:10087000C4000030C3000030C2000030C1004B088B
:10088000031D5008031D4D2C0030C0000030BF0078
:100890000030BE000030BD0008003D08C50045081E
:1008A000A000430891311121833140012108D60075
:1008B0002008D5005508C500C601C701C801480871
:1008C000CF004708CE004608CD004508CC005608AA
:1008D000C500C601C701C8014808D4004708D300B5
:1008E0004608D2004508D1003E08C5004508A000D2
:1008F000420891311121833140012108D60020089E
:10090000D5005508C500C601C701C8014508CC0778
:100910004608CD3D4708CE3D4808CF3D5608C500A6
:10092000C601C701C8014508D1074608D23D47089E
:10093000D33D4808D43D3F08C5004508A000410804
:1009400091311121833140012108D6002008D500C2
:100950005508C500C601C701C8014508CC074608AF
:10096000CD3D4708CE3D4808CF3D5608C500C601DD
:10097000C701C8014508D1074608D23D4708D33D05
:100980004808D43D0830CC35CD0DCE0DCF0D890BA8
:10099000C32C3E08C5004508A00041089131112133
:1009A000833140012108D6002008D5005508CC0726
:1009B0005608CD3D0030CE3DCF3D3D08C500450831
:1009C000A000420891311121833140012108D60055
:1009D0002008D5005508CC075608CD3D0030CE3D47
:1009E000CF3D0830CC35CD0DCE0DCF0D890BF22C7F
:1009F0003D08C5004508A00041089131112183310F
:100A000040012108D6002008D5005508CC0756081B
:100A1000CD3D0030CE3DCF3D3E08C5004508A0008D
:100A2000430891311121833140012108D60020086B
:100A3000D5005508D1075608D23D0030D33DD43DEE
:100A40003F08C5004508A0004208913111218331BB
:100A500040012108D6002008D5005508D1075608C6
:100A6000D23D0030D33DD43D3F08C5004508A0002D
:100A7000430891311121833140012108D60020081B
:100A8000D5005508C5005608C600C701C801083082
:100A9000C535C60DC70DC80D890B482D4508D107B2
:100AA0004608D23D4708D33D4808D43D4C08C50010
:100AB0004D08C6004E08C7004F08C8001830C83699
:100AC000C70CC60CC50C890B5F2D4508D10746081D
:100AD000D23D4708D33D4808D43D0830CC35CD0D34
:100AE000CE0DCF0D890B6E2D50084B07C500C601EA
:100AF000C60D4508823ED500FF30463DD600D31BCB
:100B0000962D0130D135D20DD30DD40D890B822D08
:100B1000CF1B51140130CC35CD0DCE0DCF0D890B2F
:100B20008B2DFF30D507FF30D63D7F2DCB01CF1F5A
:100B3000AF2DFF304C05C500FF304D05C600FF301E
:100B40004E05C7007F304F05C800480847044604DB
:100B5000450403195118AD2DAF2DCB01CB0A4B081D
:100B60000319D82D0130D1070030D23D0030D33DDC
:100B70000030D43D541CD82D5108C5005208C60081
:100B80005308C7005408C8000130C900C837C70C53
:100B9000C60CC50CC90BC62D4808D4004708D300A5
:100BA0004608D2004508D1000130D5070030D63DB7
:100BB0005608803AC50080304502031DE12DFF3004
:100BC0005502031CED2D7F304001D4008030D3004E
:100BD0000030D2000030D100172E40015608803A74
:100BE000C50080304502031DF72D01305502031862
:100BF000042E00304001D4000030D3000030D20079
:100C00000030D100CA01172E40015508C500450823
:100C1000D000FF30D105FF30D2057F30D305003042
:100C2000D4055018D3175036C5004508D4004A08DB
:100C3000C5004508D4045408C0005308BF0052083A
:100C4000BE005108BD000800400135088039B600DB
:100C50003608BF003535B6003608C600B41B46144A
:100C600046080319412E460A031D3E2E0030B500EA
:100C70000030B4000030B3000030B200B417B5014A
:100C8000492E0030B5000030B4000030B300003011
:100C9000B20031088039B6003608BF063135B600DB
:100CA0003608C700B01B471447080319652E470ACA
:100CB000031D622E0030B1000030B0000030AF00E4
:100CC0000030AE00B017B1016D2E0030B100003021
:100CD000B0000030AF000030AE00310830042F0407
:100CE0002E04031D8C2E0030B5000030B4000030FF
:100CF000B3000030B2008030B4047F30B5043F0848
:100D0000B6003608B5043508B1003408B000330821
:100D1000AF003208AE0008004608031D982E0030D0
:100D2000B1000030B0000030AF000030AE0008006D
:100D30004608B600B7013708B90047083602B800C0
:100D4000031CB90338087F3EC0000030393DC100A4
:100D50003508BE003408BD003308BC003208BB00B3
:100D60000030B5000030B4000030B3000030B200F5
:100D70000030C5000030C4000030C3000030C200A5
:100D8000C7011A3047020318FD2E47080319DF2E4A
:100D90000130BB35BC0DBD0DBE0D890BC92E013018
:100DA000B235B30DB40DB50D890BD02EC51B321461
:100DB0000130C235C30DC40DC50D890BD92E3108C4
:100DC0003E02031DED2E30083D02031DED2E2F08BF
:100DD0003C02031DED2E2E083B02031CF82E451786
:100DE0002E08BB022F08BC3B3008BD3B3108BE3B80
:100DF0000130B6003608C707C12E3E083D043C044A
:100E00003B04031D4214B41B1A2F0130B235B30D3D
:100E1000B40DB50D890B062FC51B32140130C23538
:100E2000C30DC40DC50D890B0F2FFF30C007FF3058
:100E3000C13D032FC701C51F332FFF304205B60048
:100E4000FF304305B700FF304405B8007F3045054B
:100E5000B900390838043704360403193218312F21
:100E6000332FC701C70A470803195C2F0130B207A7
:100E70000030B33D0030B43D0030B53D351C5C2F33
:100E80003208B6003308B7003408B8003508B90096
:100E90000130BA00B937B80CB70CB60CBA0B4A2FF0
:100EA0003908B5003808B4003708B3003608B20076
:100EB0000130C0070030C13D4108803AB6008030A3
:100EC0003602031D652FFF304002031C742FFF30D4
:100ED0004001C0000030C1000030B5000030B40057
:100EE0000030B3000030B20040014108803AB60043
:100EF00080303602031D7E2F0130400203188C2FF4
:100F00004001C001C1010030B5000030B400003024
:100F1000B3000030B200BF0140014008B6003608FF
:100F2000C600461C952FB417992F7F30B60036089F
:100F3000B4054636B6003608B5007F2E4001A30042
:100F400042012218E02F02304001A2002108860051
:100F50008701220881002008A2004201200A8600A1
:100F6000013087004001220881002308A2004201CD
:100F700020088600013087004001220881002108F6
:100F8000A20042012008023E860001308700400195
:100F9000220881000330A20022084201A007200895
:100FA000643A031DD92F61304001A200220842019A
:100FB000A000A21021082006031DE62F2214E62F10
:100FC00040012108860087018101810A4001210832
:100FD0008600870102300106031D08009E31B726F6
:100FE0004E010F1408004E018C1242016C086D0472
:100FF000031908006D088A006C080A008731080090
:10100000080008009E31F7268831003A03190B28A2
:101010004201CD01CD0A42014D0803190800883173
:10102000122008009E31E526883140012108410147
:10103000DD00400120084101DC0042013908410186
:101040005C02DA0042013A0841015D3BDB000030FE
:101050005B020A3003195A02031C08005D084201B2
:10106000BA0041015C084201B900683043015006F2
:10107000031D40285103031D4028D001D1014428FD
:101080000130D0070030D13DFF304201E407FF308E
:10109000E53D64086504031D52281430E400003067
:1010A000E500CD01D030860001308700AF308400EC
:1010B000003085000A304101DA0016001A00DA0B10
:1010C0005D2880319A200800420128084001A300D1
:1010D000420127084001A200420126084001A10068
:1010E000420125084001A000C230A7002030A60020
:1010F0000030A5000030A4009331FE238831031C8A
:10110000A828683042012F06031D8C283003031DD8
:101110008C28AF01B00190282430AF070030B03DDB
:1011200030084301C70042012F084301C6003F3089
:10113000CF008030CE000030CD000030CC004330F6
:101140004201A8004830A7000030A60000301D2949
:1011500000304001DA000030D9000030D800003003
:10116000D700420128084001DE0042012708400163
:10117000DD00420126084001DC0042012508400153
:10118000DB009631512688310318F22843304001A4
:10119000B100C830B0000030AF000030AE004201F6
:1011A00028084001B500420127084001B40042016F
:1011B00026084001B300420125084001B2008631F3
:1011C00024268831400131084301CF004001300816
:1011D0004301CE0040012F084301CD0040012E08FD
:1011E0004301CC003F304001DA008030D9000030AC
:1011F000D8000030D700420128084001DE0042013B
:1012000027084001DD00420126084001DC004201C0
:1012100025084001DB009031B220883140015A0896
:101220004201A800400159084201A70040015808A6
:101230004201A600400157084201A500C6308600C1
:1012400001308700AF308400003085000A30400153
:10125000EF0016001A00EF0B292980319A200800B0
:101260009E31E526893140012108A7002008A6000B
:101270004201470840012602A200420148084001FD
:10128000273BA30000302302323003192202031C43
:10129000080027084201C800400126084201C70093
:1012A0004001A5012508A2000230A235FF3E031D22
:1012B00055292235203EA3002308A80028088600CF
:1012C00002308700403FA200413FA3002208860071
:1012D000230887000130A4002808023E8400023061
:1012E0008500000A7429A435890B73292408010597
:1012F000031D82292808033E8600023087008101F1
:10130000810A88292808033E86000230870081016F
:101310002808033E8600023087000103031DA92927
:101320002808043E8600023087000108031DA92911
:101330002808053E8600023087008101810A2808BE
:10134000063E8600023087002608C03F2708C13FBE
:10135000EB292808033E8600023087000103031DA5
:10136000D5292808043E8600023087000103031DAA
:10137000D5292808063E860002308700403F260215
:10138000A200413F273BA30001302302F53003199F
:101390002202031CEB290230A2002808053E860029
:1013A0000230870022088100EB292808033E8600CE
:1013B000023087000108031DEB292808043E86003F
:1013C000023087000103031DEB292808053E860033
:1013D0000230870081012808033E86000230870022
:1013E0000108A2002808043E860002308700220877
:1013F00081000130A2002208A5070430250203184D
:10140000080052299E31A5268A31003A031D0800A2
:101410009E31E5268A314201410840012002A800A0
:10142000420142084001213BA900420167084001F6
:101430002902031D1F2A4201660840012802031CDD
:1014400008009E31E5268A31400121084201C20090
:10145000400120084201C10041016903031D362AF1
:1014600001304201BF070030C03D3D2A4201BF01AB
:10147000C0011430E6000030E70041016903031D9C
:10148000842A42015108031D842AD201D20A643001
:10149000E6000030E7009E31E5268A31420145082A
:1014A00040012002AA00420146084001213BAB0056
:1014B0009E31E5268A31400121084201C6004001E3
:1014C00020084201C500003040012B02963003196C
:1014D0002A020318712A90304201C3000130C4006F
:1014E000842A2B08A1002A08A0006030A200EA305C
:1014F000A30092316B228A31400121084201C400CD
:10150000400120084201C300410169084001A800D0
:1015100028084201D1004101E90142014008803A16
:101520004001A80080302802031D992A043042019E
:101530003F02031CB82A01304201E8070030E93DB0
:1015400069084001A100420168084001A0009E31E5
:10155000D3268A314201BF01C0019E31E5264001F8
:1015600021084201C600400120084201C5000800D0
:101570009E31E5268A314201450840012002A8003B
:10158000420146084001213BA90003302902E9300D
:1015900003192802031C080001304201E802003050
:1015A000E93B69084001A100420168084001A00030
:1015B0009E31D32608004E010F104301901F0D2CC1
:1015C00090134101EC016A08023E86000130870059
:1015D0000108860087018101810AEA0108004201B1
:1015E000A21808002108F20072084101EA00420135
:1015F00021088600013087000108F2007208DB0034
:1016000021088600013087000130413F4101EB0095
:101610000330F20072084201A1072108643A031D59
:10162000152B6130F2007208A1002210210820065B
:101630000319A214430111140230F200720841018F
:10164000EC000800B52B4301111F2F2B0130F200D5
:1016500072084201A4070430903143200800790841
:10166000F3007808F200F336F20C72088C00781C54
:101670003F2B0B30F20072084101EC0008000330F0
:10168000F20072084101EC0008004301111F512BC8
:101690000130F20072084201A40704309031432067
:1016A000080091147908F3007808F2007308F2003A
:1016B000F30106307205F40000307305F500F030D8
:1016C0007404F80000307504F90078144201D80160
:1016D000D80A1C2B420158030319882B41016B08BF
:1016E000860001308700403FF800413FF9006B0859
:1016F0008600013087000130433F4201DA0041019A
:101700006B088600013087000130423F4201D9005A
:10171000780843018C00781C3F2B0530F2007208DA
:101720004101EC0008004301111FA12B0130F20020
:1017300072084201A4074301111305309031432080
:10174000080001304201D902590A031DB82B0430A8
:10175000F20072084101EB0701304201DB02031D78
:10176000B52B0030903143200800430191141C2B0D
:101770005A0886008701010843018C000130F200FD
:1017800072084201DA0708004301111FD22B013011
:10179000F20072084201A407043090314320430153
:1017A0001113080091150830F20072084101EC0095
:1017B00008000830F2007208EC004301911508009F
:1017C00043010C08F20042015A08860087017208A2
:1017D00081000130F2007208DA070130D9020319E2
:1017E000F92B430191120630F20072084101EC001E
:1017F000FD2B430191169F31582743011116080014
:1018000000309031432008000130F200720842019C
:10181000A407063090314320080041016C08F20013
:10182000F3017308003A0319162C042C7208003ACD
:101830000319EF2A013A0319222B033A03196A2BE1
:10184000013A0319932B073A0319002C013A0319A3
:10185000C42B033A0319D92B013A0319002C0F3A70
:101860000319E02B023A0319232B013A0319452BE4
:10187000042C080040012C088039B1003108B9005F
:101880002C35B1003108BB00AB1B3B143B080319DE
:10189000572C3B0A031D542C0030AC000030AB0029
:1018A0000030AA000030A900AB17AC015F2C00305B
:1018B000AC000030AB000030AA000030A9003008B6
:1018C0008039B1003108BA003A083906031D3917CA
:1018D0003035B1003108BA00AF1B3A143A08031989
:1018E0007F2C3A0A031D7C2C0030B0000030AF0082
:1018F0000030AE000030AD00AF17B001872C0030D3
:10190000B0000030AF000030AE000030AD003B084A
:101910003A020318CD2C391F912C8030B1003108C8
:10192000B9063B08B1003108BC003A08B1003108E3
:10193000BB003C08B1003108BA002908B1003108E9
:10194000BC002D08B1003108A9003C08B1003108E5
:10195000AD002A08B1003108BC002E08B1003108E2
:10196000AA003C08B1003108AE002B08B1003108D4
:10197000BC002F08B1003108AB003C08B1003108B1
:10198000AF002C08B1003108BC003008B1003108AC
:10199000AC003C08B1003108B000BC013A08B1000D
:1019A000B2013208B4003B083102B300031CB40397
:1019B0003408803AB50080303502031DE12C1A301E
:1019C0003302031C152D40012C082B042A04290482
:1019D0000319EC2C0130ED2C0030B1003108BC00B3
:1019E0000030AC000030AB000030AA000030A9008D
:1019F0003A08B1003108BB001A2D3C1C052D3C36BD
:101A00000138B1003108BC00072D0310BC0C2918A7
:101A1000BC170130B100AC37AB0CAA0CA90CB10B50
:101A20000B2D0130B1003108BB0740013A083B02E1
:101A3000031CFD2C391B4B2D3B08031D282D0030AA
:101A4000AC000030AB000030AA000030A900080054
:101A50002D08A9072E08AA3D2F08AB3D3008AC3D44
:101A60002C1CC52D3C1C3A2D3C360138B1003108E8
:101A7000BC003C2D0310BC0C2918BC170130B10070
:101A8000AC37AB0CAA0CA90CB10B402D0130B10046
:101A90003108BB07C52D2C08803AB1003008803AC8
:101AA0003102031D5D2D2F082B02031D5D2D2E0815
:101AB0002A02031D5D2D2D0829020318952DFF30E4
:101AC000B100FF30B200FF30B300FF30B40029088E
:101AD0002D02B5002A082E3BB6002B082F3BB7007D
:101AE0002C08303BB8003508B1073608B23D37083E
:101AF000B33D3808B43D3408AC003308AB003208BD
:101B0000AA003108A9008030B1003108B906BC092B
:101B1000BC0A3C08031D9D2D0130A9070030AA3DD9
:101B20000030AB3D0030AC3D9D2D2D08A9022E08A4
:101B3000AA3B2F08AB3B3008AC3B2C082B042A04F3
:101B40002904031DC32D3C08031DC32D0030AC0028
:101B50000030AB000030AA000030A90008000130BE
:101B6000A935AA0DAB0DAC0D890BB02DBC1B2914EA
:101B70003C1CBC2D0314BD2D0310BC0D3B080319E8
:101B8000C32D0130BB02AB1FAF2DBA01BC1FD02D3E
:101B90003C087F3903192918CE2DD02DBA01BA0A75
:101BA0003A080319FC2D0130A9070030AA3D003086
:101BB000AB3D0030AC3D2C1CFC2D2908B1002A089F
:101BC000B2002B08B3002C08B4000130B500B437C4
:101BD000B30CB20CB10CB50BE72D3408AC003308D4
:101BE000AB003208AA003108A9003B0A0319FC2DFA
:101BF0000130B1003108BB073B0A031D3B08031D40
:101C00000C2E0030AC000030AB000030AA000030D9
:101C1000A9003B080319B9013B1C102EAB17142E69
:101C20007F30B1003108AB053B36B1003108AC0064
:101C3000B91F0800AC17080040016E08DA006D08F3
:101C4000D9006C08D8006B08D7000030DE000030E7
:101C5000DD000030DC000030DB00963151268E3193
:101C600003184F2E3F304001AC008030AB000030F5
:101C7000AA000030A9006E08B0006D08AF006C0823
:101C8000AE006B08AD008C313A248E3140012C0837
:101C9000EE002B08ED002A08EC002908EB003F308D
:101CA0004001DA008030D9000030D8000030D70081
:101CB0006E08DE006D08DD006C08DC006B08DB00E0
:101CC000963151268E310318822E3F304001DA00C2
:101CD0008030D9000030D8000030D7006E08DE0018
:101CE0006D08DD006C08DC006B08DB009031B22071
:101CF0008E3140015A08EE005908ED005808EC00FA
:101D00005708EB0040304001C000C030BF00003039
:101D1000BE000030BD006E08C4006D08C3006C0832
:101D2000C2006B08C1008331F8238E3140014008A6
:101D3000DA003F08D9003E08D8003D08D7003F3000
:101D4000DE008030DD000030DC000030DB0096314A
:101D500051268E3103181D2F40304001C000C03085
:101D6000BF000030BE000030BD006608DA00650824
:101D7000D9006408D8006308D7006A08DE00690843
:101D8000DD006808DC006708DB009031B2208E318E
:101D900040015A08C4005908C3005808C200570837
:101DA000C1008331F8238E31400140084101A30076
:101DB00040013F084101A20040013E084101A1004D
:101DC00040013D084101A00040016608AC006508E3
:101DD000AB006408AA006308A9006E08C0006D0883
:101DE000BF006C08BE006B08BD0041012308400124
:101DF000C400410122084001C30041012108400103
:101E0000C200410120084001C1008331F8238E3116
:101E100040014008B0003F08AF003E08AE003D085A
:101E2000AD008C313A2440012C08E6002B08E50077
:101E30002A08E4002908E300080040304001C000FF
:101E40000030BF000030BE000030BD006E08C4008E
:101E50006D08C3006C08C2006B08C1008331F82311
:101E60008E3140014008DA003F08D9003E08D80012
:101E70003D08D7003F30DE008030DD000030DC0060
:101E80000030DB00963151268E310318512F40016E
:101E90006A08E6006908E5006808E4006708E300EE
:101EA000080040304001C0004030BF000030BE009C
:101EB0000030BD006E08C4006D08C3006C08C2008D
:101EC0006B08C1008331F8238E3140014008DA00ED
:101ED0003F08D9003E08D8003D08D7004030DE005A
:101EE0000030DD000030DC000030DB009631512690
:101EF0008E310318080040016E08DA006D08D90021
:101F00006C08D8006B08D7003F30DE002A30DD00B7
:101F1000AA30DC00AB30DB009031B2208E314001C2
:101F20005A08C0005908BF005808BE005708BD0035
:101F30006608DA006508D9006408D8006308D7008D
:101F40006A08DE006908DD006808DC006708DB005D
:101F50009031B2208E3140015A08C4005908C300A4
:101F60005808C2005708C1008331F8238E31400160
:101F700040084101A30040013F084101A200400187
:101F80003E084101A10040013D084101A00040017F
:101F90006608AC006508AB006408AA006308A900E5
:101FA0004030C000C030BF000030BE000030BD0077
:101FB000410123084001C400410122084001C3003F
:101FC000410121084001C200410120084001C10037
:101FD0008331F8238E3140014008B0003F08AF0044
:101FE0003E08AE003D08AD008C313A2440012C087B
:101FF000E6002B08E5002A08E4002908E3000800B1
:10200000143400340A340034903406344E018D10F8
:1020100042016A086B04031908006B088A006A0809
:102020000A009031080042011908F0007708B23E1A
:10203000860001308700700881000130F0007008D0
:10204000F707083077020318F7010130F000700835
:102050004101ED07080042015308913131219031CF
:10206000400120082104031908000230420137060C
:102070003804031D3E28B701B80108000130B70736
:102080000030B83D0800F1004301111541016A0814
:10209000023E860001308700010803195B287108A1
:1020A000F0006A08023E86000130870001088600C1
:1020B000870170088100EC0108004001BA00340873
:1020C000E03E840097300318013E85000008B70009
:1020D0003508B8000630B835FF3E031D6B2838358B
:1020E0003704B9003908AE003A08343E90319520E3
:1020F000080061304001A00020084201A1006130C9
:102100004001A00020084201A000A2142210A40156
:1021100043018F0128309000920150308D004E0114
:102120000F108F101914991408004001B2000230EA
:10213000AF002F08B300A701A70A3208AF00B00113
:102140002F08A8003008A9003330B1003108AA00D8
:102150002E309131E7219031023040013306031DCA
:102160000800AC2880304001DA065E08AC005D084B
:10217000AB005C08AA005B08A9005A08B000590827
:10218000AF005808AE005708AD008C313A2440012A
:102190002C08DA002B08D9002A08D8002908D70013
:1021A0000800083042016E020318EE2841016E0853
:1021B000BA3E860001308700010842019A000130D2
:1021C000F00070084101EE0708306E020318EE01BE
:1021D0000130F00070084201EE0708004E011912AC
:1021E00008004001A400240886000230870020086F
:1021F000C03F2108C13F2208A3002408023E8600F8
:1022000002308700230881002408033E8600023044
:10221000870081012408053E860002308700810185
:1022200008004001A800A401A5012008A200A30104
:102230002208A6002308A700281C22292608A40794
:102240002708A53D0130A635A70D890B23290310CA
:10225000A80C2808031D1C292508A1002408A0009B
:1022600008004001A3002308053E860002308700D5
:102270000103031D46292308053E8600023087001E
:1022800081010130A0000030A10008002308053EB4
:102290008600023087000230010603194129A0019F
:1022A000A10108004001A6002308A5002208A400FF
:1022B000A435A50D26088600013087002408C03FFC
:1022C0002508C13F2108A4002608023E86000130EF
:1022D0008700240881002008A4002608033E860009
:1022E00001308700240881000800400119171913E4
:1022F00042011D1D8029BD01BE01D001D00A8429E3
:102300000130BD070030BE3DEF30F0002530F10058
:102310003D087007F2003E08713DF3007208860028
:1023200073088700190881009D1C08001D121D16E6
:10233000080041018C018D018E018F0192019301F2
:1023400098019A019F0142018C018D018E018F013C
:1023500090019201543093005630940095019601FB
:1023600097019801D43091004E018D1097149E3042
:102370004001A0001E30A1009E31CA260800400185
:1023800094131413141294110130450190008E1708
:1023900046018E170E08F0390C388E00921712087D
:1023A000F0390C38920096171608F0390C38960060
:1023B0009A171A08F0390C389A0009307E01A700E4
:1023C0000A30A6000B30A4000C30A3000800400126
:1023D000AD00420122180A2A40012D08AB002B084B
:1023E000A0002708AC002C08A1002908A300280899
:1023F000A2005D309131522191315D304001AB003E
:102400002B08A0002A08AC002C08A100013087315D
:102410009E27080040012A08860087018101810A61
:1024200008004001200821040319392AA501A50A42
:10243000A11B242A0130A035A10D890B1B2A0130D4
:10244000A4002408A507182A21082302031D2A2A0C
:1024500020082202031C302A2008A2022108A33BE4
:102460000130A136A00C890B312A0130A502031DD1
:10247000242A2308A1002208A00008004001980196
:1024800099019A013F309200F0309300FF309400A0
:10249000F8307E01CE00E030C3000330B800C40144
:1024A0000430B9000730CF00BA01C501D001373080
:1024B000BB00F030C600FF30D10005307D01C50003
:1024C00014307E0194001330950004307D01C60065
:1024D0000C30CB0008004001A601A7012008210410
:1024E00003199B2AA501A50AA11B802A0130A0354A
:1024F000A10D890B772A0130A4002408A507742AAE
:102500000130A635A70D890B812A21082302031D5E
:102510008B2A20082202031C922A2008A2022108EA
:10252000A33B26140130A136A00C890B932A01305D
:10253000A502031D802A2708A1002608A000080084
:102540009F31BE2792319E31C22692314001131332
:1025500019137530A0001130A1009F311B27923153
:102560008B170B1715304301E5004B30E400BE30EC
:10257000890BB82AE40BB82AE50BB82A00009E3173
:10258000B32692319431472492319131BF21923157
:102590009F31E927923197316327923193310B2391
:1025A0009231893130219231CB2A7708AA3E8600B8
:1025B00001308700810142011D1DEA2A7708AA3EE9
:1025C000860001308700811443015F088A005E089D
:1025D0000A00923142019D1CF92A7708AA3E860022
:1025E00001308700011543015D088A005C080A007C
:1025F00092317708AA3E860001308700010803194E
:10260000082B43015B088A005A080A00933108002E
:102610009031132008009E31E526933140012108B6
:10262000A5002008A40042013B0840012402A200AA
:1026300042013C084001253BA30003302302E8305F
:1026400003192202031C080025084201BC004001B6
:1026500024084201BB0050080319352B4E08031D06
:10266000352BCE01CE0AD001080050080319402BAB
:102670004E080319402BCF01CF0ACE01D00108002C
:10268000CF010800F1304001B6002530B7007A08CC
:10269000360786007B08373D87000108B8003808F8
:1026A000A000F230B9002530BA007A083907860058
:1026B0007B083A3D87000108BB003B08A100F330CE
:1026C000BC002530BD007A083C0786007B083D3DF4
:1026D00087000108BE003E08A200F030BF00253090
:1026E000C0007A083F0786007B08403D870001084C
:1026F00093317B2308004001B5000310B50C031093
:10270000A00C0310A20C0310A10C3508A300A40117
:102710002308A7002408A8002008A300A401230878
:10272000AB002408AC002208A300A4012308AF00DA
:102730002408B0002108A300A4012308B300240842
:10274000B40046018D014001270846018C0091012B
:1027500040012B0846019000950140012F084601D9
:1027600094009901400133084601980008004E0189
:102770009912D5304001A0001230A1009F311B27D3
:1027800093314E011912D1304001A0001030A10048
:102790009F3124279331083042019F0090309D00E3
:1027A00004309E001F309B009C0100304001A000BF
:1027B0000830A1009F3109279331AF304001A000BC
:1027C0001E30A1009F31122793319F304001A0009D
:1027D0001E30A1009F3100274201DC014101EF01C1
:1027E000EE0108304001A20022084201EE00F7018C
:1027F000F6014101ED014E0199160800003040013B
:102800002005A80000302105A90080302205AA007B
:102810007F302305AB002B082A0429042804031D5C
:10282000192C0030A3000030A2000030A1000030BD
:10283000A00000302405A80000302505A900803044
:102840002605AA007F302705AB002B082A0429049F
:102850002804031D332C0030A7000030A6000030F0
:10286000A5000030A40027082306031D412C2608DC
:102870002206031D412C25082106031D412C240896
:1028800020060319452C031008000314080020300B
:102890004001A50025084201D30028304001A500D1
:1028A00025084201D60030304001A500250842012C
:1028B000D50038304001A50025084201D4000E3073
:1028C0004001A0000030A1000230A5002508A200B0
:1028D000420153089031F12094310C304001A000A6
:1028E0000030A1000230A5002508A20042015408D2
:1028F0009031F12094310E304001A0000030A10051
:10290000A201420155089031F12094310E3040016E
:10291000A0000030A100A201A20A42015608903195
:10292000F120080003104101260D270DA8002808FA
:10293000AE002E08031DA52C0030A7000030A60015
:102940000030A5000030A40008002408A8002508D5
:10295000A9002608AA002708AB001F30AB36AA0C36
:10296000A90CA80C890BAE2C2808AC002C08AD00D3
:10297000A617FF30A405FF30A505FF30A6050030DF
:10298000A7059630AE02AE1FD82C2E08803A973E8F
:10299000031C9C2C0130A736A60CA50CA40C890B9B
:1029A000CB2C0130A8002808AE070319E92CCA2C4B
:1029B00020302E0203189C2C2E080319E92C01301C
:1029C000A435A50DA60DA70D890BE02C0130AE0294
:1029D000DC2C2D0803190800A409A509A609A709DC
:1029E000A40A0319A50A0319A60A0319A70A0800CD
:1029F0009E31E5269431400121084101DD0040016E
:102A000020084101DC004201350841015C02DA0086
:102A10004201360841015D3BDB0000305B021430AF
:102A200003195A02031C08005D084201B600410167
:102A30005C084201B50068303306031D252D3403C0
:102A4000031D252DB301B401292D0130B30700303A
:102A5000B43DA030860001308700DE3084000030B5
:102A600085000A304101DA0016001A00DA0B342D15
:102A7000420134084101DF00420133084101DE0018
:102A80003F30E3008030E2000030E1000030E00041
:102A90003F30E7000030E6000030E5000030E400A1
:102AA000DE30860000308700AF30840000308500C3
:102AB0000A30DA0016001A00DA0B5A2D80319A20FB
:102AC00008009E31E526953140012108C500200807
:102AD000C4004201290840014402C20042012A0800
:102AE0004001453BC300003043022330031942023A
:102AF000031C080045084201AA00400144084201A5
:102B0000A900560891313121953140012008210456
:102B10000319992D9F31D327953140014508420172
:102B2000AC00400144084201AB0001309F319427C2
:102B300008004201550891313121953140012008AA
:102B400021040319B22D9F31A92795314001450871
:102B50004201AC00400144084201AB0001309F310A
:102B6000942708009E31E526953142012B0840014B
:102B70002002C20042012C084001213BC300133057
:102B80004302883003194202031C080000309F31C1
:102B9000942795319E31E52640012008773E420179
:102BA000AB00EC304001213D4201AC000800273071
:102BB00040013C02103003193B02031C0E2E45302D
:102BC000BD003D08B4000030B500B60000309031C3
:102BD0005D20953145304001BD003D08B400003016
:102BE000B500B600013090315D209531453040018F
:102BF000BD003D08B4000030B500B6000230903191
:102C00005D20953145304001BD003D08B4000030E5
:102C1000B500B600033090315D200800C001C1014D
:102C2000C001C1010A304001A0000030A1003C08F1
:102C3000A3003B08A20092311122953140012108E6
:102C4000BF002008BE003E08303EBD003D08B40075
:102C50000030B500B6004008033C90315D2095314E
:102C60000A304001A0000030A1003C08A3003B084E
:102C7000A20092316B22953140012108BC0020084E
:102C8000BB000130C0070030C13D4108803ABD00A3
:102C900080303D02031D4E2E043040020318080010
:102CA000122E003040015705DF0000305805E000CB
:102CB00080305905E1007F305A05E2006208610466
:102CC00060045F04031D6C2E0030DA000030D90070
:102CD0000030D8000030D70000305B05DF00003046
:102CE0005C05E00080305D05E1007F305E05E200BC
:102CF0006208610460045F04031D862E0030DE005C
:102D00000030DD000030DC000030DB00DA1FA02ED8
:102D10000030DF000030E0000030E1008030E200F1
:102D20005708DF025808E03B5908E13B5A08E23BEC
:102D30006208DA006108D9006008D8005F08D7008F
:102D4000DE1FBA2E0030DF000030E0000030E1006E
:102D50008030E2005B08DF025C08E03B5D08E13B9D
:102D60005E08E23B6208DE006108DD006008DC000E
:102D70005F08DB008030DA068030DE065E085A022B
:102D8000031D08005D085902031D08005C08580275
:102D9000031D08005B08570208004001A80028082E
:102DA000031DA31FE32E2009AA002109AB0022095D
:102DB000AC002309AD00AA0A0319AB0A0319AC0A37
:102DC0000319AD0AEB2E2308AD002208AC00210840
:102DD000AB002008AA002308220421042004031DBC
:102DE000FA2E0030A3000030A2000030A100003015
:102DF000A00008009630A4002408A900FE302D058C
:102E00000319212F0130A4002408A9070130AD3691
:102E1000AC0CAB0CAA0C890B072FFE2E0130A400C2
:102E20002408A9070130AA070030AB3D0030AC3DB3
:102E30000030AD3D0130AD36AC0CAB0CAA0C890BAB
:102E40001B2FFF302D050319332F0E2F02302902BF
:102E5000031C352F0130A9020130AA35AB0DAC0D92
:102E6000AD0D890B2D2FAC1F262F29183F2FFF30BA
:102E7000AA05FF30AB057F30AC05FF30AD05031070
:102E8000A90C2908A400A501A601A7011830A435A2
:102E9000A50DA60DA70D890B472F2408AA04250808
:102EA000AB042608AC042708AD042808031DA31FA3
:102EB0005A2FAD172D08A3002C08A2002B08A10043
:102EC0002A08A00008009E31A8269731003A03196D
:102ED0006F2F93314223973195316125080090314E
:102EE0002B209731420137083804031D812F003011
:102EF0009F31942797318831022097318A310222FD
:102F0000080037033804031DC02F01309F31942778
:102F1000973150304101E80068084001B4000030AA
:102F2000B500B600003090315D2097314C30410142
:102F3000E80068084001B4000030B500B600013078
:102F400090315D20973153304101E800680840011D
:102F5000B4000030B500B600023090315D209731EA
:102F600045304101E80068084001B4000030B50078
:102F7000B600033090315D2097318831642008001D
:102F8000023037063804031D080001309F319427B2
:102F9000973143304101E80068084001B400003037
:102FA000B500B600003090315D20973159304101B5
:102FB000E80068084001B4000030B500B6000130F8
:102FC00090315D20973143304101E80068084001AD
:102FD000B4000030B500B600023090315D2097316A
:102FE0004C304101E80068084001B4000030B500F1
:102FF000B600033090315D2097319431F8240800F9
:10300000003482342134003400340034003402347B
:1030100039340F3400340034003440348034003408
:103020003F3406345B344F3466346D347D340734BA
:103030007F346F3400340034003448340034533467
:10304000003477347C3439345E34793471346F34FD
:10305000763406341E3400343834003454343F346B
:103060007334673450346D3478343E340034003473
:1030700000346E340034393400340F3400340834F2
:1030800063345F347C3458345E347B3471346F3451
:10309000743402341E3400340634003454345C3446
:1030A0007334673450346D3478341C340034003455
:1030B00000346E340034393430340F34003400348A
:103D3C0008009031132008004E018F10080042013A
:103D4C005708080042014F0808004101E901E90A3F
:103D5C00080042011D121D16080001309F319427E6
:103D6C00080041016C0803190800B72E013042010C
:103D7C00CB070030CC3D0800BC304001A0001E3009
:103D8C00A1009E31EE260800400121084201EB0003
:103D9C00400120084201EA000800400121084101CD
:103DAC008F004001200841018E0008004001A00056
:103DBC00200841019F004201911711140800420193
:103DCC004C084001A10042014B084001A000080032
:103DDC00400121084201ED00400120084201EC00A5
:103DEC000800420152080319FE2ED20101300800CE
:103DFC0000300800400121084301DB00400120088D
:103E0C004301DA000800400121084301DF004001B2
:103E1C0020084301DE000800400121084301DD00B9
:103E2C00400120084301DC00080040012108430147
:103E3C00E100400120084301E00008004001210896
:103E4C004301E300400120084301E2000800603018
:103E5C0051018D008F0191010630930092010800F1
:103E6C004F0196019701980199019A019B019C01C0
:103E7C009D0108006400800101310130FE02003018
:103E8C00FF3B7F087E0403190034412FFE00120013
:103E9C001E000130FE020030FF3B7F087E04031938
:103EAC0000344D2F0430F00070084101EB07013055
:103EBC004201DB02031D682F0430F0007008410141
:103ECC00EC0008004101EC01EC0A080045304B0104
:103EDC009F00F9309D009C014E018C12961601300A
:103EEC004001A0000830A1009E31EE2680304B012D
:103EFC009E000800003400340034003480343F3419
:103F0C000034003400343F340034003400340034C6
:103F1C0080343F340034003400343F344001B4006A
:103F2C0034080319A22FAE01AE0A2430903195202B
:103F3C004201D701D70A0800AE01243090319520F8
:103F4C004201D70108007A037B04031DB22F003015
:103F5C00FA000230FB00B62F0130FA020030FB3BB6
:103F6C007B084001BC007A08BB009531D7250800BE
:103F7C009F3136279F3192313E229F319F312D2721
:103F8C009F31903179209F31913199219F319F310F
:103F9C006C279F319331B723080002307B067A04DB
:103FAC00031DDD2F0130FA000030FB00E12F013042
:103FBC00FA070030FB3D7B084001BC007A08BB00CF
:103FCC009531D7250800420169084001A100420142
:103FDC0068084001A0009E31D3269F31AB304001D0
:103FEC00A0001E30A1009E31CA269F310F309E3199
:043FFC00DC260800B7
:020000040001F9
:0A000E00EC3FFF3F9F3FFF3FFF3F25
:00000001FF
