:020000040000FA
:10000000803139280A3400347E1480314E01961A2A
:100010008C1E0E288E31DE26803137280B1F3728A4
:1000200099188F1C17288E312126803137281918EE
:100030000F1C1E288031892080313728191A0F1E85
:100040002828410157088A0056080A0080313728BD
:10005000991A8F1E3228410155088A0054080A0057
:100060008031372897188D1C37288E31D1267E1085
:10007000090080313B288E3133268031EB008E31F0
:1000800034268031EC008E3135268031ED008E3102
:1000900036268031EE004101803102208031D800C7
:1000A000803103208031D900EF3084002530850075
:1000B0000130FE000230FF008E31C5268031F00194
:1000C000F101F201F301F401F50146308400003042
:1000D00085002530FE000030FF008E31C5268031BE
:1000E000A0308400003085002A30FE000030FF0080
:1000F0008E31C526803120308400013085002030CB
:10010000FE000030FF008E31C5267E104001853193
:10011000F22D4E010F104301901FA52990134001AD
:10012000E5016208023E860087010108860087011A
:100130008101810AE2010800C81808004708F80098
:100140007808E2004708860087010108F80078086F
:10015000E400470886008701413FE3000330F800D0
:100160007808C70747086B3A031DBA286830F800BB
:100170007808C7004810470846060319C814430109
:1001800011140230F80078084001E50008004E29FB
:100190004301111FD4280130F80078084001CA0734
:1001A00004308F31792708007508F9007408F800C9
:1001B000F936F80C78088C00741CE4280B30F80031
:1001C00078084001E50008000330F8007808400195
:1001D000E50008004301111FF6280130F8007808F7
:1001E0004001CA0704308F3179270800911475083F
:1001F000F9007408F8007908F800F901063078056C
:10020000FA0000307905FB00F0307A04F400003089
:100210007B04F50074144001DF01DF0AC1285F038D
:1002200003192329630886008701403FF400413FFA
:10023000F500630886008701433FE10063088600FC
:100240008701423FE000740843018C00741CE428DD
:100250000530F80078084001E50008004301111F4F
:100260003C290130F80078084001CA074301111306
:1002700005308F317927080001304001E002600A23
:10028000031D51290430F8007808E3070130E40227
:10029000031D4E2900308F31792708004301911446
:1002A000C128610886008701010843018C000130E4
:1002B000F80078084001E10708004301111F6B298D
:1002C0000130F80078084001CA0704308F317927DF
:1002D00043011113080091150830F8007808400117
:1002E000E50008000830F8007808E50043019115A2
:1002F000080043010C08F8004001610886008701EE
:10030000780881000130F8007808E1070130E00248
:1003100003199229430191120630F8007808400130
:10032000E5009629430191168E31EB264301111603
:10033000080000308F31792708000130F800780874
:10034000CA0706308F317927080040016508F80098
:10035000F9017908003A0319AE299D297808003A75
:1003600003199C28013A0319C728033A03190F29D6
:10037000013A03192E29073A03199929013A031959
:100380005D29033A03197229013A031999290F3A91
:1003900003197929023A0319C828013A0319EA28EE
:1003A0009D2908008E314226813140012108A70095
:1003B0002008A60053082602A2005408273BA300E9
:1003C00000302302323003192202031C08002708E0
:1003D000D4002608D300A5012508A2000230A235CA
:1003E000FF3E031DEF292235203EA3002308A8006D
:1003F0002808860001308700403FA200413FA3004B
:1004000022088600230887000130A4002808023E45
:10041000840001308500000A0E2AA435890B0D2ABC
:1004200024080105031D1C2A2808033E860001300C
:1004300087008101810A222A2808033E86000130B4
:10044000870081012808033E8600013087000103F0
:10045000031D432A2808043E860001308700010856
:10046000031D432A2808053E8600013087008101CC
:10047000810A2808063E8600013087002608C03F12
:100480002708C13F852A2808033E860001308700DF
:100490000103031D6F2A2808043E860001308700EF
:1004A0000103031D6F2A2808063E860001308700DD
:1004B000403F2602A200413F273BA3000130230218
:1004C000F53003192202031C852A0230A2002808F5
:1004D000053E86000130870022088100852A280811
:1004E000033E8600013087000108031D852A280885
:1004F000043E8600013087000103031D852A280879
:10050000053E86000130870081012808033E8600F1
:10051000013087000108A2002808043E860001304F
:100520008700220881000130A2002208A5070430BC
:10053000250203180800EC298E3124268231003A66
:10054000031D08008E314226823140014B082002F3
:10055000A8004C08213BA90041015908400129028B
:10056000031DB62A4101580840012802031C080057
:100570008E314226823140012108CC002008CB0078
:100580005803031DC92A01304101BC070030BD3D9D
:10059000D02A4101BC01BD011430D8000030D9007F
:1005A00040015803031D102B5708031D102BD901C0
:1005B000D90A64304101D8000030D9008E3142267A
:1005C000823140014D082002AA004E08213BAB00B9
:1005D0008E314226823140012108CE002008CD0014
:1005E00000302B02963003192A020318FD2A90309E
:1005F0004101BE000130BF00102B2B08A1002A08CA
:10060000A0006030A200EA30A30086312D2682319E
:10061000400121084101BF00400120084101BE0006
:1006200040015808A8002808D700D80141013D081A
:10063000803A4001A80080302802031D222B04309C
:1006400041013C02031C3B2B01304001EB07003011
:10065000EC3D6C08A1006B08A0008E316126823150
:100660004101BC01BD018E31422640012108CE006E
:100670002008CD0008008E314226823140014D080D
:100680002002A8004E08213BA90003302902E930CE
:1006900003192802031C08000130EB020030EC3B78
:1006A0006C08A1006B08A0008E316126080027307D
:1006B00040013C02103003193B02031C8E2B4530D5
:1006C000BD003D08B4000030B500B60000308F31E9
:1006D000AA27833145304001BD003D08B4000030F9
:1006E000B500B60001308F31AA2783314530400173
:1006F000BD003D08B4000030B500B60002308F31B7
:10070000AA27833145304001BD003D08B4000030C8
:10071000B500B60003308F31AA270800C001C1011F
:10072000C001C1010A304001A0000030A1003C0816
:10073000A3003B08A2008631C12683314001210875
:10074000BF002008BE003E08303EBD003D08B4009A
:100750000030B500B6004008033C8F31AA27833132
:100760000A304001A0000030A1003C08A3003B0873
:10077000A20086312D26833140012108BC002008CB
:10078000BB000130C0070030C13D4108803ABD00C8
:1007900080303D02031DCE2B0430400203180800B8
:1007A000922B8E314226833140012108C50020085A
:1007B000C40051084402C2005208453BC300003047
:1007C0004302233003194202031C08004508D200EB
:1007D0004408D1005D088731882783314001200813
:1007E00021040319FF2B8F31632783314001450812
:1007F000D0004408CF0001308F31242708005C0866
:100800008731882783314001200821040319142CE3
:100810008F313927833140014508D0004408CF008B
:1008200001308F31242708008E3142268331400168
:100830004F082002C2005008213BC300133043027E
:10084000883003194202031C080000308F3124272E
:1008500083318E31422640012008773ECF00EC30B4
:10086000213DD000080000348234213400340034AB
:1008700000340034023439340F340034003400348E
:100880004034803400343F3406345B344F346634B3
:100890006D347D3407347F346F34003400340034D9
:1008A000483400345334003477347C3439345E3483
:1008B000793471346F34763406341E34003438346D
:1008C000003454343F347334673450346D347834E6
:1008D0003E340034003400346E3400343934003493
:1008E0000F340034083463345F347C3458345E345D
:1008F0007B3471346F34743402341E340034063463
:10090000003454345C347334673450346D34783488
:100910001C340034003400346E3400343934303444
:100920000F34003400348E314226843140012108D6
:10093000C2002008C1004101380840014102B60050
:10094000410139084001423BB700003037026430B2
:1009500003193602031C080042084101B900400196
:1009600041084101B800F1304001B6002530B70020
:100970006D08360786006E08373D87000108B8000D
:100980003808A000F230B9002530BA006D083907E8
:1009900086006E083A3D87000108BB003B08A100B5
:1009A000F330BC002530BD006D083C0786006E08A2
:1009B0003D3D87000108BE003E08A200F030BF00A8
:1009C0002530C0006D083F0786006E08403D870057
:1009D00001088531B62584318E317C26080040011E
:1009E000A3004818232D0230A200210886008701A9
:1009F000220881002008A200460A860087012208FA
:100A000081002308A2004608860087012208810091
:100A10002108A2004608023E8600870122088100C4
:100A20000330A2002208C60746086B3A031D1C2D9E
:100A30006830A2002208C600C81047084606031DF9
:100A4000282D4814282D2108860087018101810A5C
:100A500021088600870102300106031D08008E313F
:100A600037264E010F1408004E01991262304001E2
:100A7000A0000630A1008E31A02685314E0119124A
:100A8000C6304001A0000F30A1008E31A92685316B
:100A9000083042019F0090309D0004309E001F30BE
:100AA0009B009C011C304001A0000E30A1008E3143
:100AB0008E2685312B304001A0000E30A1008E31F2
:100AC000972685311E304001A0000E30A1008E31E6
:100AD00085264001E601F301F2010830A200220858
:100AE000EF00F101F001E7014E01991608002030F6
:100AF0004001A5002508DA002830A5002508DD0002
:100B00003030A5002508DC003830A5002508DB00C2
:100B10000E30A0000030A1000230A5002508A20080
:100B20005A088731C92785310C304001A0000030B8
:100B3000A1000230A5002508A2005B088731C92763
:100B400085310E304001A0000030A100A2015C08F8
:100B50008731C92785310E304001A0000030A10047
:100B6000A201A20A5D088731C92708004001B5002B
:100B70000310B50C0310A00C0310A20C0310A10C61
:100B80003508A300A4012308A7002408A800200812
:100B9000A300A4012308AB002408AC002208A30092
:100BA000A4012308AF002408B0002108A300A40179
:100BB0002308B3002408B40046018D014001270832
:100BC00046018C00910140012B08460190009501DF
:100BD00040012F0846019400990140013308460165
:100BE000980008008F314E2785318E314826853197
:100BF0004001131319136330A0000730A1008E3198
:100C0000A02685318B170B1715304101DB004B30C7
:100C1000DA00BE30890B0A2EDA0B0A2EDB0B0A2E05
:100C200000008E312F2685318531772585318E3133
:100C3000502685318631EE2685318E31FC26853170
:100C400082319C2285318431932485318131D221B6
:100C500085318331D1238531202E4001A601A701A2
:100C60002008210403195D2EA501A50AA11B422E0F
:100C70000130A035A10D890B392E0130A4002408C4
:100C8000A507362E0130A635A70D890B432E210866
:100C90002302031D4D2E20082202031C542E20087F
:100CA000A2022108A33B26140130A136A00C890B17
:100CB000552E0130A502031D422E2708A10026084B
:100CC000A00008007108A03E860087018101420152
:100CD0001D1D752E7108A03E8600870181144101FB
:100CE00053088A0052080A00863142019D1C832E57
:100CF0007108A03E860087010115410151088A0054
:100D000050080A0086317108A03E8600870101085C
:100D10000319912E41014F088A004E080A008631BE
:100D200008008731E92708004001980199019A01DC
:100D30003F309200F0309300FF309400F8307E0195
:100D4000CE00E030C3000330B800C4010430B90065
:100D50000730CF00BA01C501D0013730BB00F030F9
:100D6000C600FF30D10005307D01C50014307E0182
:100D700094001330950004307D01C6000C30CB0088
:100D800008004001200821040319E92EA501A50A45
:100D9000A11BD42E0130A035A10D890BCB2E013023
:100DA000A4002408A507C82E21082302031DDA2E5B
:100DB00020082202031CE02E2008A2022108A33BE7
:100DC0000130A136A00C890BE12E0130A502031DD4
:100DD000D42E2308A1002208A0000800400194138B
:100DE0001413141294110130450190008E1746011E
:100DF0008E170E08F0390C388E0092171208F03951
:100E00000C38920096171608F0390C3896009A178D
:100E10001A08F0390C389A0009307E01A7000A3010
:100E2000A6000B30A4000C30A30008004001AD0068
:100E30004818372F2D08AB002B08A0002708AC005E
:100E40002C08A1002908A3002808A200C630873179
:100E5000A9278731C6304001AB002B08A0002A0823
:100E6000AC002C08A10001308431EF2408002A08CE
:100E7000860087018101810A080041018C018D01F2
:100E80008E018F019201930198019A019F01420105
:100E90008C018D018E018F019001920154309300DD
:100EA000563094009501960197019801D430910035
:100EB0004E018D1097141B304001A0000E30A10090
:100EC0008E315826080040011917191342011D1DC3
:100ED0006D2F4101BA01BB01722F01304101BA07E8
:100EE0000030BB3DEF30F6002530F7003A087607BA
:100EF000F8003B08773DF9007808860079088700FC
:100F00004201190881009D1C08001D121D160800D1
:100F10004001A3002308053E86000130870001033D
:100F2000031D9D2F2308053E8600013087008101A7
:100F30000130A0000030A10008002308053E860013
:100F400001308700023001060319982FA001A1018A
:100F500008004001A6002308A5002208A400A4352B
:100F6000A50D2608860087012408C03F2508C13F3B
:100F70002108A4002608023E86008701240881007B
:100F80002008A4002608033E86008701240881006B
:100F900008004001A40024088600013087002008D2
:100FA000C03F2108C13F2208A3002408023E86005A
:100FB00001308700230881002408033E86000130A9
:100FC000870081012408053E8600013087008101E9
:100FD000080042011908F6007108A83E8600870142
:100FE000760881000130F6007608F10708307102BA
:100FF0000318F1010130F60076084001E707080008
:101C36000800080008008731E92708004E018F10C8
:101C4600080040015E0808004001D801D80A0800D3
:101C560042011D121D16080001308F31242708008D
:101C66009034063401340034400165080319080035
:101C7600372E01304001D5070030D63D080040011F
:101C86005608A1005508A00008003C304001A000FD
:101C96000E30A1008E317326080040016E08BC008C
:101CA6006D08BB008331572308004001210841011C
:101CB600CB00400120084101CA000800400121086C
:101CC60041018F004001200841018E0008004001BB
:101CD600A000200841019F0042019117111408003D
:101CE600400121084101CD00400120084101CC00FE
:101CF6000800400159080319832ED9010130080054
:101D060000300800400121084101CF0040012008B1
:101D16004101CE000800400121084101D3004001E5
:101D260020084101D2000800400121084101D100EC
:101D3600400120084101D00008004001210841016E
:101D4600D500400120084101D400080040012108C7
:101D56004101D700400120084101D600080060304B
:101D660051018D008F019101063093009201080008
:101D76004F0196019701980199019A019B019C01D7
:101D86009D0108006400800101310130FE0200302F
:101D9600FF3B7F087E0403190034C62E4E018D10CA
:101DA60041014A084B04031908004B088A004A08F7
:101DB6000A008E3108004E018C1241014C084D0478
:101DC600031908004D088A004C080A008E310800E5
:101DD6000430F60076084001E3070130E402031DF3
:101DE600F92E0430F6007608E5000800E501E50A5C
:101DF600080040016C08A1006B08A0008E31612626
:101E06008E3127304001A0000E30A1008E315826B9
:101E16008E310F308E316A26080045304B019F0007
:101E2600F9309D009C014E018C1296161D30400122
:101E3600A0000E30A1008E31732680304B019E002B
:101E460008004001B40034080319322FAE01AE0A6F
:101E560024308F31E3274001DE01DE0A0800AE019F
:101E660024308F31E3274001DE01080040016D0375
:101E76006E04031D432F0030ED000230EE00472FA5
:101E86000130ED020030EE3B6E08BC006D08BB0071
:101E96008331572308008E31BB268F318631942635
:101EA6008F318E31B2268F318F3191278F31873125
:101EB6003D278F318F3110278F318531342508002A
:101EC600023040016E066D04031D6E2F0130ED00D9
:101ED6000030EE00722F0130ED070030EE3D6E0847
:101EE600BC006D08BB00833157230800F70043018F
:101EF600111540016208023E860087010108031998
:101F06008F2F7708F6006208023E860087010108D7
:101F16008600870176088100E501080068304001E7
:101F2600A0002008C7006830A0002008C600C8141A
:101F36004810CA0143018F012830900092015030A9
:101F46008D004E010F108F101914991408004001CE
:101F5600BA003408133E840084300318013E85001D
:101F66000008B7003508B8000630B835FF3E031D37
:101F7600B82F38353704B9003908AE003A08343E70
:101F86008F31E3270800083040016F020318E02F65
:101F96007208B03E86008701010842019A000130AE
:101FA600F6007608F207083072020318F2010130D3
:101FB600F60076084001EF0708004E0119120800E6
:101FC6004001B2000230AF002F08B300A701A70AF4
:101FD6003208AF00B0012F08A8003008A90033303E
:101FE600B1003108AA002E30873116278F31023012
:0A1FF60040013306031D0800FA2F16
:020000040001F9
:0A000E00EC3FFF3F9F3FFF3FFF3F25
:00000001FF
