:020000040000FA
:0400000080313328F0
:100008007E1480314E01961A8C1E0E2885314125AA
:10001800803131280B1F312899188F1C17288531FA
:10002800C1258031312819180F1C1E2880315F2006
:1000380080313128191A0F1E282840016D088A00BE
:100048006C080A0080313128991A8F1E3128410125
:1000580047088A0046080A0080317E10090080316E
:100068003528EF308400253085000130FE0002304D
:10007800FF0085314E258031F001F101F201F301D5
:10008800F401F50120308400003085003830FE008E
:100098000030FF0085314E258031A03084000030CB
:1000A80085002030FE000030FF0085314E257E108F
:1000B80040018431582C4E010F104301901F7B29B9
:1000C80090134001C9014608023E860087010108D5
:1000D800860087018101810AC6010800B21808005C
:1000E8003108F8007808C600310886008701010841
:1000F800F8007808C800310886008701413FC7002A
:100108000330F8007808B1073108583A031D9028E1
:100118005530F8007808B10032103108300603195C
:10012800B214430111140230F80078084001C900E4
:10013800080024294301111FAA280130F800780873
:100148004001B40704308431C92408007508F90057
:100158007408F800F936F80C78088C00741CBA2872
:100168000B30F80078084001C90008000330F80097
:1001780078084001C90008004301111FCC2801304C
:10018800F80078084001B40704308431C924080015
:1001980091147508F9007408F8007908F800F90155
:1001A80006307805FA0000307905FB00F0307A0453
:1001B800F40000307B04F50074144001C301C30A45
:1001C800972843030319F928470886008701403F09
:1001D800F400413FF500470886008701433FC5000A
:1001E800470886008701423FC400740843018C0019
:1001F800741CBA280530F80078084001C9000800C6
:100208004301111F12290130F80078084001B40792
:100218004301111305308431C9240800013040011D
:10022800C402440A031D27290430F8007808C707C8
:100238000130C802031D242900308431C924080074
:100248004301911497284508860087010108430156
:100258008C000130F80078084001C5070800430108
:10026800111F41290130F80078084001B407043013
:100278008431C92443011113080091150830F8008E
:1002880078084001C90008000830F8007808C9005B
:1002980043019115080043010C08F8004001450886
:1002A80086008701780881000130F8007808C507C2
:1002B8000130C40203196829430191120630F8007D
:1002C80078084001C9006C29430191168531302511
:1002D80043011116080000308431C9240800013098
:1002E800F8007808B40706308431C92408004001B2
:1002F8004908F800F9017908003A03198429732993
:100308007808003A03197228013A03199D28033A1C
:100318000319E528013A03190429073A03196F2933
:10032800013A03193329033A03194829013A0319F1
:100338006F290F3A03194F29023A03199E28013AE7
:100348000319C028732908008531AC258131400183
:100358005908E0005808DF0035085F02DC0036085D
:10036800603BDD0000305D02323003195C02031C83
:1003780008006008B6005F08B500E1010630DC003F
:100388005C08D800610885311E258131A83E4001EE
:10039800DD005D08E200620886008701403FDC005E
:1003A800413FDD005C0886005D0887000130DE0003
:1003B8006208023E84008501000AE329DE35890BC4
:1003C800E2295E080105031DF0296208033E860044
:1003D80087018101810AF5296208033E86008701A9
:1003E80081016208033E860087010108031D092A6E
:1003F8006208043E860087010103031D092A62087A
:10040800053E860087018101810A6208033E860055
:1004180087010108DC006208043E860087015C0849
:1004280081000130DC005C08E10704306102031838
:100438000800C229003482342134003400340034E6
:100448000034023439340F3400340034003440347A
:10045800803400343F3406345B344F3466346D34B2
:100468007D3407347F346F3400340034003448342A
:1004780000345334003477347C3439345E3479347E
:1004880071346F34763406341E3400343834003412
:1004980054343F347334673450346D3478343E34D4
:1004A8000034003400346E340034393400340F34EE
:1004B8000034083463345F347C3458345E347B341D
:1004C80071346F34743402341E340034063400340A
:1004D80054345C347334673450346D3478341C3499
:1004E8000034003400346E340034393430340F347E
:1004F800003400344001DB003218B22A0230DA003E
:100508005908860087015A0881005808DA00300A1D
:10051800860087015A0881005B08DA0030088600E7
:1005280087015A0881005908DA003008023E86001F
:1005380087015A0881000330DA005A08B0073008EA
:10054800583A031DAB2A5530DA005A08B000B210E9
:1005580031083006031DB72A3214B72A5908860015
:1005680087018101810A5908860087010230010646
:10057800031D08008531B8254E010F1408004E01EF
:10058800991245304001D8000330D90085316D25D6
:1005980082314E01191277304001D8000430D90059
:1005A8008531A0258231083042019F0090309D009E
:1005B80004309E001F309B009C01C8304001D800C9
:1005C8000530D90085317F258231BD304001D80002
:1005D8000530D900853176258231C4304001D800F4
:1005E8000530D900853188254001CB01F301F2019E
:1005F8000830DA005A08EE00F101F001CC014E0192
:1006080099160800A8304001DD005D08BF00AE3033
:10061800DD005D08C200B430DD005D08C100BA30FD
:10062800DD005D08C0000E30D8000030D90002306F
:10063800DD005D08DA003F088431942483310C30F2
:100648004001D8000030D9000230DD005D08DA0032
:1006580040088431942483310E304001D8000030A2
:10066800D900DA0141088431942483310E304001E5
:10067800D8000030D900DA01DA0A4208843194241B
:1006880008007108203E86008701810142011D1D76
:10069800582B7108203E86008701811441014508C6
:1006A8008A0044080A00833142019D1C662B7108A8
:1006B800203E860087010115410143088A0042084F
:1006C8000A0083317108203E86008701010803195A
:1006D800742B410141088A0040080A008331080050
:1006E8008431E12408004001980199019A013F30C2
:1006F8009200F0309300FF309400FF307E01CE006E
:10070800E030C3000730B800C401B901CF01BA0115
:10071800C501D0013730BB00F030C600FF30D10032
:1007280005307D01C50014307E019400133095001A
:1007380004307D01C6000C30CB0008004001941342
:100748001413141294110130450190008E174601BC
:100758008E170E08F0390C388E0092171208F039EF
:100768000C38920096171608F0390C3896009A172C
:100778001A08F0390C389A0009307E01A7000A30AF
:10078800A6000B30A4000C30A30008004001E500CF
:100798003218EB2B6508E3006308D8005F08E40013
:1007A8006408D9006108DB006008DA005130843140
:1007B8003824833151304001E3006308D8006208CF
:1007C800E4006408D900013082317E220800620802
:1007D800860087018101810A080040011917191351
:1007E80042011D1DFB2B4001BD01BE01002C013043
:1007F8004001BD070030BE3DEF30F6002530F70060
:100808003D087607F8003E08773DF900780886002D
:10081800790887004201190881009D1C08001D12F3
:100828001D1608004101C80002304001E7006708B2
:100838004101C9004001DF01DF0A410148084001C8
:10084800E700E8016708E0006808E100C930E9004E
:100858006908E20066308331CA23843102304101DD
:100868004906031D0800322C4001DE005B08DD004C
:100878005A08DC00DC35DD0D5E08860087015C085F
:10088800C03F5D08C13F5908DC005E08023E860093
:1008980087015C0881005808DC005E08033E86007A
:1008A80087015C088100080085310C25843183317B
:1008B800A223843185319125843140011313191302
:1008C800F130D8000330D90085316D2584318B177C
:1008D8000B17853199258431833106238431813181
:1008E800A8218431732C083040016E020318912C22
:1008F8007208283E86008701010842019A000130EB
:10090800F6007608F207083072020318F201013087
:10091800F60076084001EE0708004E01191208009B
:100928004001DC005C08860087015808C03F590870
:10093800C13F5A08DB005C08023E860087015B085D
:1009480081005C08033E8600870181015C08053E42
:10095800860087018101080055304001D8005808F9
:10096800B1005530D8005808B000B2143210B401A4
:1009780043018F0128309000920150308D004E01C4
:100988000F108F10191499140800F700430111155E
:1009980040014608023E8600870101080319DF2C42
:1009A8007708F6004608023E86008701010886009F
:1009B800870176088100C901080042011908F6007C
:1009C8007108A03E86008701760881000130F60094
:1009D8007608F107083071020318F1010130F600BA
:1009E80076084001CC07080045304B019F00F930DC
:1009F8009D009C014E018C129616C7304001D8000C
:100A08000530D9008531A62580304B019E000800AD
:100A180085315A25853183317723853185316425A0
:100A280085318431B02485318431F824853182318F
:100A3800C32208004001DB00DA015B1C272D58089F
:100A4800D9005908DA070310D80D0310DB0C5B082E
:100A5800031D212D5A0808000430F60076084001CD
:100A6800C7070130C802031D3E2D0430F600760882
:100A7800C9000800C901C90A08004E018C124001CA
:100A88006A086B04031908006B088A006A080A00E0
:100A9800853108006400800101310130FE02003018
:100AA800FF3B7F087E04031900344F2D4F01960148
:100AB8009701980199019A019B019C019D010800E9
:100AC800603051018D008F01910106309300920131
:100AD8000800400159084101C70040015808410178
:100AE800C6000800400159084101C30040015808E8
:100AF8004101C2000800400159084101C5004001F8
:100B080058084101C4000800400159084101C100CA
:100B1800400158084101C0000800B2304001D80027
:100B28000530D9008531A62508004001E601E60A0E
:100B3800243084311624080040015908ED00580873
:100B4800EC00080040015908EB005808EA000800CA
:100B580040013A08D9003908D8000800013040019E
:100B6800B9070030BA3D08004001490803190800D8
:100B7800B82D42011D121D1608004E018F100800E5
:0A0B88008431E12408000800080091
:020000040001F9
:0A000E00EC3FFF3F9F3FFF3FFF3F25
:00000001FF
