:020000040000FA
:0400000080313328F0
:100008007E1480314E01961A8C1E0E288431EB2402
:10001800803131280B1F312899188F1C17288531FA
:1000280068258031312819180F1C1E2880315D2061
:1000380080313128191A0F1E2828410129088A0001
:1000480028080A0080313128991A8F1E3128410169
:1000580027088A0026080A0080317E1009008031AE
:100068003528EF308400253085000130FE0002304D
:10007800FF008431F8248031F001F101F201F3012D
:10008800F401F50120308400003085002F30FE0097
:100098000030FF008431F8244101AA01AB01AC0112
:1000A800AD01AE01AF01B001B1017E104001823156
:1000B800062A4E010F104301901F79299013400121
:1000C800C1013E08023E86008701010886008701BB
:1000D8008101810ABE010800B21808003108F80041
:1000E8007808BE003108860087010108F800780802
:1000F800C000310886008701413FBF000330F80087
:100108007808B10731084F3A031D8E284C30F800A3
:100118007808B1003210310830060319B2144301CF
:1001280011140230F80078084001C10008002229A3
:100138004301111FA8280130F80078084001B407CE
:1001480004308431852408007508F9007408F80023
:10015800F936F80C78088C00741CB8280B30F800B5
:1001680078084001C10008000330F8007808400111
:10017800C10008004301111FCA280130F80078089F
:100188004001B407043084318524080091147508AF
:10019800F9007408F8007908F800F90106307805C4
:1001A800FA0000307905FB00F0307A04F4000030E2
:1001B8007B04F50074144001BB01BB0A95283B037E
:1001C8000319F7283F0886008701403FF400413FA4
:1001D800F5003F0886008701433FBD003F088600C1
:1001E8008701423FBC00740843018C00741CB82886
:1001F8000530F80078084001C10008004301111FCC
:1002080010290130F80078084001B40743011113A0
:10021800053084318524080001304001BC023C0AC5
:10022800031D25290430F8007808BF070130C002F3
:10023800031D2229003084318524080043019114CC
:1002480095283D0886008701010843018C0001308C
:10025800F80078084001BD0708004301111F3F2935
:100268000130F80078084001B4070430843185244F
:1002780043011113080091150830F800780840016F
:10028800C10008000830F8007808C1004301911542
:10029800080043010C08F80040013D08860087016A
:1002A800780881000130F8007808BD070130BC02E9
:1002B80003196629430191120630F80078084001B5
:1002C800C1006A29430191168431DA2443011116C9
:1002D800080000308431852408000130F8007808CF
:1002E800B407063084318524080040014108F8002D
:1002F800F9017908003A0319822971297808003A26
:1003080003197028013A03199B28033A0319E328B3
:10031800013A03190229073A03196D29013A031909
:100328003129033A03194629013A03196D290F3A6D
:1003380003194D29023A03199C28013A0319BE28CA
:100348007129080000348234213400340034003428
:100358000034023439340F3400340034003440346B
:10036800803400343F3406345B344F3466346D34A3
:100378007D3407347F346F3400340034003448341B
:1003880000345334003477347C3439345E3479346F
:1003980071346F34763406341E3400343834003403
:1003A80054343F347334673450346D3478343E34C5
:1003B8000034003400346E340034393400340F34DF
:1003C8000034083463345F347C3458345E347B340E
:1003D80071346F34743402341E34003406340034FB
:1003E80054345C347334673450346D3478341C348A
:1003F8000034003400346E340034393430340F346F
:10040800003400348431C824823183317723823127
:10041800853144258231400113131913ED30CF0083
:100428000330D0008531202582318B170B17853199
:100438004C258231EF308600253087004331010892
:100448004101B20032084001CF00EF30860025306C
:100458008700443101084101B30033084001D0004E
:10046800EF30860025308700453101084101B4008E
:1004780034084001D100EF30860025308700423132
:1004880001088231DE22823163304101B200320834
:100498004001E3000030E400E500013083319F2390
:1004A80082311E2A4001D20032188A2A0230D10035
:1004B800500886008701510881004F08D100300A92
:1004C80086008701510881005208D1003008860053
:1004D8008701510881005008D1003008023E86008B
:1004E8008701510881000330D1005108B007300856
:1004F8004F3A031D832A4C30D1005108B000B21086
:1005080031083006031D8F2A32148F2A50088600BE
:1005180087018101810A500886008701023001069F
:10052800031D080085315F254E010F1408004E0198
:1005380099121A304001CF000330D00085312025B0
:1005480082314E0119124F304001CF000430D000E3
:10055800853117258231083042019F0090309D0077
:1005680004309E001F309B009C016F304001CF007B
:100578000530D00085313225823164304001CF000A
:100588000530D0008531292582316B304001CF00FC
:100598000530D00085313B254001C201F301F2014D
:1005A8000830D1005108ED00F101F001C3014E01FE
:1005B800991608004001E4000310E40C0310CF0C66
:1005C8000310D10C0310D00C6408D200D3015208D8
:1005D800D6005308D7004F08D200D3015208DA00DA
:1005E8005308DB005108D200D3015208DE0053083B
:1005F800DF005008D200D3015208E2005308E3009C
:1006080046018D014001560846018C0091014001C8
:100618005A0846019000950140015E084601940081
:100628009901400162084601980008007108203EBF
:1006380086008701810142011D1D2D2B7108203E76
:10064800860087018114410125088A0024080A00D0
:10065800833142019D1C3B2B7108203E8600870197
:100668000115410123088A0022080A008331710814
:10067800203E8600870101080319492B4101210802
:100688008A0020080A008331080084319D2408006C
:100698004001980199019A013F309200F03093008F
:1006A800FF309400FF307E01CE00E030C3000730F9
:1006B800B800C401B901CF01BA01C501D001373072
:1006C800BB00F030C600FF30D10005307D01C50009
:1006D80014307E0194001330950004307D01C6006B
:1006E8000C30CB0008004001941314131412941119
:1006F8000130450190008E1746018E170E08F0391B
:100708000C388E0092171208F0390C3892009617A0
:100718001608F0390C3896009A171A08F0390C3870
:100728009A0009307E01A7000A30A6000B30A40009
:100738000C30A30008004001E9006308863E8400ED
:1007480081300318013E85000008E6006608EA00CB
:100758006308863E840081300318013E8500000846
:10076800E6006408E7000630E735FF3E031DB82BB6
:1007780067356604E8006808DD006908343E84319E
:10078800322408004001DC003218E72B5C08DA004C
:100798005A08CF005608DB005B08D0005808D20082
:1007A8005708D10048308431122483314830400141
:1007B800DA005A08CF005908DB005B08D000013086
:1007C8008231562208005908860087018101810A72
:1007D800080040011917191342011D1DF72B40018C
:1007E800B901BA01FC2B01304001B9070030BA3D0C
:1007F800EF30F6002530F70039087607F8003A0898
:10080800773DF900780886007908870042011908C1
:1008180081009D1C08001D121D1608004001D5000E
:100828005208D4005108D300D335D40D550886009A
:1008380087015308C03F5408C13F5008D3005508EA
:10084800023E86008701530881004F08D3005508EF
:10085800033E860087015308810008004001E1003B
:100868000230DE005E08E200D601D60A6108DE002A
:10087800DF015E08D7005F08D8006230E00060083A
:10088800D9005D308331C6238431023040016206CD
:10089800031D0800492C083040016D020318692C1B
:1008A8007208283E86008701010842019A0001303B
:1008B800F6007608F207083072020318F2010130D8
:1008C800F60076084001ED0708004E0119120800ED
:1008D8004C304001CF004F08B1004C30CF004F08DA
:1008E800B000B2143210B40143018F0128309000D7
:1008F800920150308D004E010F108F101914991469
:100908000800F7004301111540013E08023E860029
:100918008701010803199B2C7708F6003E08023E60
:100928008600870101088600870176088100C101D9
:10093800080042011908F6007108AA3E86008701DE
:10094800760881000130F6007608F1070830710258
:100958000318F1010130F60076084001C3070800CA
:1009680045304B019F00F9309D009C014E018C12CF
:1009780096166E304001CF000530D00085315325E2
:1009880080304B019E000800853104258431833175
:100998004C23843185310E25843184316C24843193
:1009A8008431B424843182319B2208000430F6005B
:1009B80076084001BF070130C002031DE82C04304F
:1009C800F6007608C1000800C101C10A08004E01FE
:1009D8008C1240016B086C04031908006C088A002B
:1009E8006B080A008431080064008001013101307D
:1009F800FE020030FF3B7F087E0403190034F92C07
:100A08004F0196019701980199019A019B019C0158
:100A18009D010800603051018D008F019101063061
:100A2800930092010800400150084101A9004001CB
:100A38004F084101A8000800400150084101A700E3
:100A480040014F084101A60008004001500841013B
:100A5800A30040014F084101A200080040015008CE
:100A68004101A50040014F084101A40008004001D0
:100A780050084101A10040014F084101A0000800B1
:100A880059304001CF000530D0008531532508008A
:100A98004001DD01DD0A24308431322408004001A0
:100AA8005008EC004F08EB00080001304001B70780
:100AB8000030B83D080040014108031908005F2DC7
:100AC80042011D121D1608004E018F1008008431C6
:080AD8009D240800080008003D
:020000040001F9
:0A000E00EC3FFF3F9F3FFF3FFF3F25
:00000001FF
