:020000040000FA
:0400000080312528FE
:100008007E1480314E01961A8C1E0E288131F521FE
:10001800803123280B1F2328191A0F1E1A28400184
:1000280061088A0060080A0080312328991A8F1E07
:10003800232840015F088A005E080A0080317E108C
:10004800090080312728EF308400253085000130F1
:10005800FE000230FF00823102228031F001F101FE
:10006800F201F301F40120308400003085001D30D6
:10007800FE000030FF00823102227E1040018031F4
:10008800C4284E019912FF304001BD000030BE0067
:1000980082312F2280314E0119129F304001BD005C
:1000A8000130BE00823129228031083042019F0090
:1000B80090309D0004309E001F309B009C015B30F7
:1000C8004001BD000230BE0082313B2280315330F6
:1000D8004001BD000230BE008231352280315730E8
:1000E8004001BD000230BE00823141224001BC0106
:1000F800F401F3010830F9007908E200F201F10196
:10010800F0014E01991608004001D2000310D20CEC
:100118000310BD0C0310BF0C0310BE0C5208C00026
:10012800C1014008C4004108C5003D08C000C10124
:100138004008C8004108C9003F08C000C101400884
:10014800CC004108CD003E08C000C1014008D000E5
:100158004108D10046018D014001440846018C0048
:1001680091014001480846019000950140014C0862
:100178004601940099014001500846019800080082
:100188008131E62180318131312180318231212252
:1001980080314001131319135930BD000130BE00DE
:1001A80082312F2280318B170B17EF3086002530D4
:1001B8008700433101084001D3005308BD00EF30E8
:1001C80086002530870044310108D4005408BE0059
:1001D800EF3086002530870045310108D5005508E5
:1001E800BF00EF308600253087004231010880319A
:1001F80088208031D9287208203E86008701810135
:1002080042011D1D12297208203E860087018114B3
:1002180040015D088A005C080A00813142019D1C8A
:1002280020297208203E86008701011540015B08DD
:100238008A005A080A0081317208203E8600870128
:10024800010803192E29400159088A0058080A0094
:10025800813108008131BC21080040019413141336
:10026800141294110130450190008E1746018E1723
:100278000E08F0390C388E0092171208F0390C3835
:10028800920096171608F0390C3896009A171A0833
:10029800F0390C389A0009307E01A7000A30A60010
:1002A8000B30A4000C30A3000800400119171913E3
:1002B80042011D1D63294001BA01BB0168290130B3
:1002C8004001BA070030BB3DEF30F5002530F6009D
:1002D8003A087507F7003B08763DF800770886006E
:1002E800780887004201190881009D1C08001D122A
:1002F8001D1608004001980199019A013F309200AB
:10030800F0309300FF309400FF307E01CE00E030E3
:10031800C3003730B800C401B901CF01BA01C50123
:10032800D0013730BB00F030C600FF30D1000C30B0
:100338007D01CB0008000830400162020318B9298A
:100348007308303E86008701010842019A00013097
:10035800F5007508F307083073020318F30101303C
:10036800F50075084001E20708004E01191208005F
:1003780042011908F5007208283E860087017508B1
:1003880081000130F5007508F20708307202031881
:10039800F2010130F5007508F007080045304B01FF
:1003A8009F00F9309D009C014E018C1296165A3020
:1003B8004001BD000230BE008231472280304B012F
:1003C8009E00080082310E22813181317E218131E7
:1003D8008231182281318131D22181318031452009
:1003E80008004E018C1240015608570403190800F2
:1003F80057088A0056080A00823108006400800104
:1004080001310130FE020030FF3B7F087E040319F2
:100418000034032A4F0196019701980199019A0126
:100428009B019C019D010800603051018D008F01E6
:10043800910106309300920108004D304001BD0043
:100448000230BE0082314722080040013E08E10028
:100458003D08E000080040013E08DF003D08DE00DE
:10046800080040013E08DB003D08DA0008004001B2
:100478003E08DD003D08DC00080040013E08D900C8
:100488003D08D800080040013E08D7003D08D600C6
:10049800080001304001B8070030B93D08004201AA
:1004A8001D121D1608008131BC2108000800080033
:020000040001F9
:0A000E00EC3FFF3F9F3FFF3FFF3F25
:00000001FF
